{
  "contractName": "PeanutsPool",
  "abi": [
    {
      "constant": true,
      "inputs": [],
      "name": "minter",
      "outputs": [
        {
          "name": "",
          "type": "address"
        }
      ],
      "payable": false,
      "stateMutability": "view",
      "type": "function"
    },
    {
      "constant": true,
      "inputs": [
        {
          "name": "",
          "type": "uint256"
        }
      ],
      "name": "delegatorList",
      "outputs": [
        {
          "name": "",
          "type": "address"
        }
      ],
      "payable": false,
      "stateMutability": "view",
      "type": "function"
    },
    {
      "constant": true,
      "inputs": [],
      "name": "devAddress",
      "outputs": [
        {
          "name": "",
          "type": "address"
        }
      ],
      "payable": false,
      "stateMutability": "view",
      "type": "function"
    },
    {
      "constant": true,
      "inputs": [],
      "name": "genesisBlock",
      "outputs": [
        {
          "name": "",
          "type": "uint256"
        }
      ],
      "payable": false,
      "stateMutability": "view",
      "type": "function"
    },
    {
      "constant": false,
      "inputs": [],
      "name": "renounceOwnership",
      "outputs": [],
      "payable": false,
      "stateMutability": "nonpayable",
      "type": "function"
    },
    {
      "constant": true,
      "inputs": [],
      "name": "totalDepositedSP",
      "outputs": [
        {
          "name": "",
          "type": "uint256"
        }
      ],
      "payable": false,
      "stateMutability": "view",
      "type": "function"
    },
    {
      "constant": true,
      "inputs": [
        {
          "name": "",
          "type": "address"
        }
      ],
      "name": "delegators",
      "outputs": [
        {
          "name": "amount",
          "type": "uint256"
        },
        {
          "name": "availablePeanuts",
          "type": "uint256"
        },
        {
          "name": "hasDeposited",
          "type": "bool"
        },
        {
          "name": "steemAccount",
          "type": "string"
        }
      ],
      "payable": false,
      "stateMutability": "view",
      "type": "function"
    },
    {
      "constant": true,
      "inputs": [],
      "name": "owner",
      "outputs": [
        {
          "name": "",
          "type": "address"
        }
      ],
      "payable": false,
      "stateMutability": "view",
      "type": "function"
    },
    {
      "constant": true,
      "inputs": [],
      "name": "isOwner",
      "outputs": [
        {
          "name": "",
          "type": "bool"
        }
      ],
      "payable": false,
      "stateMutability": "view",
      "type": "function"
    },
    {
      "constant": true,
      "inputs": [],
      "name": "lastRewardBlock",
      "outputs": [
        {
          "name": "",
          "type": "uint256"
        }
      ],
      "payable": false,
      "stateMutability": "view",
      "type": "function"
    },
    {
      "constant": false,
      "inputs": [
        {
          "name": "newOwner",
          "type": "address"
        }
      ],
      "name": "transferOwnership",
      "outputs": [],
      "payable": false,
      "stateMutability": "nonpayable",
      "type": "function"
    },
    {
      "inputs": [
        {
          "name": "_punts",
          "type": "address"
        }
      ],
      "payable": false,
      "stateMutability": "nonpayable",
      "type": "constructor"
    },
    {
      "anonymous": false,
      "inputs": [
        {
          "indexed": false,
          "name": "steemAccount",
          "type": "string"
        },
        {
          "indexed": false,
          "name": "delegator",
          "type": "address"
        },
        {
          "indexed": false,
          "name": "amount",
          "type": "uint256"
        }
      ],
      "name": "Deposit",
      "type": "event"
    },
    {
      "anonymous": false,
      "inputs": [
        {
          "indexed": false,
          "name": "steemAccount",
          "type": "string"
        },
        {
          "indexed": false,
          "name": "delegator",
          "type": "address"
        },
        {
          "indexed": false,
          "name": "amount",
          "type": "uint256"
        }
      ],
      "name": "Withdraw",
      "type": "event"
    },
    {
      "anonymous": false,
      "inputs": [
        {
          "indexed": false,
          "name": "steemAccount",
          "type": "string"
        },
        {
          "indexed": false,
          "name": "delegator",
          "type": "address"
        },
        {
          "indexed": false,
          "name": "amount",
          "type": "uint256"
        }
      ],
      "name": "WithdrawPeanuts",
      "type": "event"
    },
    {
      "anonymous": false,
      "inputs": [
        {
          "indexed": true,
          "name": "previousOwner",
          "type": "address"
        },
        {
          "indexed": true,
          "name": "newOwner",
          "type": "address"
        }
      ],
      "name": "OwnershipTransferred",
      "type": "event"
    },
    {
      "constant": false,
      "inputs": [
        {
          "name": "steemAccount",
          "type": "string"
        },
        {
          "name": "delegator",
          "type": "address"
        },
        {
          "name": "_amount",
          "type": "uint256"
        }
      ],
      "name": "deposit",
      "outputs": [],
      "payable": false,
      "stateMutability": "nonpayable",
      "type": "function"
    },
    {
      "constant": false,
      "inputs": [
        {
          "name": "delegator",
          "type": "address"
        },
        {
          "name": "_amount",
          "type": "uint256"
        }
      ],
      "name": "withdraw",
      "outputs": [],
      "payable": false,
      "stateMutability": "nonpayable",
      "type": "function"
    },
    {
      "constant": false,
      "inputs": [
        {
          "name": "steemAccount",
          "type": "string"
        },
        {
          "name": "delegator",
          "type": "address"
        },
        {
          "name": "_amount",
          "type": "uint256"
        }
      ],
      "name": "update",
      "outputs": [],
      "payable": false,
      "stateMutability": "nonpayable",
      "type": "function"
    },
    {
      "constant": false,
      "inputs": [],
      "name": "withdrawPeanuts",
      "outputs": [],
      "payable": false,
      "stateMutability": "nonpayable",
      "type": "function"
    },
    {
      "constant": true,
      "inputs": [],
      "name": "getPendingPeanuts",
      "outputs": [
        {
          "name": "",
          "type": "uint256"
        }
      ],
      "payable": false,
      "stateMutability": "view",
      "type": "function"
    },
    {
      "constant": true,
      "inputs": [],
      "name": "getTotalPendingPeanuts",
      "outputs": [
        {
          "name": "",
          "type": "uint256"
        }
      ],
      "payable": false,
      "stateMutability": "view",
      "type": "function"
    },
    {
      "constant": true,
      "inputs": [],
      "name": "getRewardsPerBlock",
      "outputs": [
        {
          "name": "",
          "type": "uint256"
        }
      ],
      "payable": false,
      "stateMutability": "view",
      "type": "function"
    },
    {
      "constant": true,
      "inputs": [],
      "name": "getTotalDepositedSP",
      "outputs": [
        {
          "name": "",
          "type": "uint256"
        }
      ],
      "payable": false,
      "stateMutability": "view",
      "type": "function"
    },
    {
      "constant": true,
      "inputs": [
        {
          "name": "steemAccount",
          "type": "string"
        }
      ],
      "name": "checkSteemAccount",
      "outputs": [
        {
          "name": "",
          "type": "bool"
        },
        {
          "name": "",
          "type": "address"
        }
      ],
      "payable": false,
      "stateMutability": "view",
      "type": "function"
    },
    {
      "constant": true,
      "inputs": [],
      "name": "getDelegatorListLength",
      "outputs": [
        {
          "name": "",
          "type": "uint256"
        }
      ],
      "payable": false,
      "stateMutability": "view",
      "type": "function"
    },
    {
      "constant": true,
      "inputs": [],
      "name": "getMinter",
      "outputs": [
        {
          "name": "",
          "type": "address"
        }
      ],
      "payable": false,
      "stateMutability": "view",
      "type": "function"
    },
    {
      "constant": false,
      "inputs": [
        {
          "name": "_minter",
          "type": "address"
        }
      ],
      "name": "setMinter",
      "outputs": [],
      "payable": false,
      "stateMutability": "nonpayable",
      "type": "function"
    },
    {
      "constant": false,
      "inputs": [
        {
          "name": "dev",
          "type": "address"
        }
      ],
      "name": "setDevAddress",
      "outputs": [],
      "payable": false,
      "stateMutability": "nonpayable",
      "type": "function"
    }
  ],
  "bytecode": "0x60806040523480156200001157600080fd5b50d380156200001f57600080fd5b50d280156200002d57600080fd5b5060405160208062003275833981018060405260208110156200004f57600080fd5b810190808051906020019092919050505062000079620001d4640100000000026401000000009004565b6000806101000a81548173ffffffffffffffffffffffffffffffffffffffff021916908373ffffffffffffffffffffffffffffffffffffffff1602179055506000809054906101000a900473ffffffffffffffffffffffffffffffffffffffff1673ffffffffffffffffffffffffffffffffffffffff16600073ffffffffffffffffffffffffffffffffffffffff167f8be0079c531659141344cd1fd0a4f28419497f9722a3daafe3b4186f6b6457e060405160405180910390a380600560006101000a81548173ffffffffffffffffffffffffffffffffffffffff021916908373ffffffffffffffffffffffffffffffffffffffff160217905550600060088190555060006007819055504360098190555033600a60006101000a81548173ffffffffffffffffffffffffffffffffffffffff021916908373ffffffffffffffffffffffffffffffffffffffff16021790555050620001dc565b600033905090565b61308980620001ec6000396000f3fe608060405234801561001057600080fd5b50d3801561001d57600080fd5b50d2801561002a57600080fd5b506004361061018f576000357c010000000000000000000000000000000000000000000000000000000090048063715018a6116100fa578063c512311a116100b3578063c512311a146106a6578063d0d41fe1146107ac578063f2fde38b146107f0578063f366751714610834578063f3fef3a31461087e578063fca3b5aa146108cc5761018f565b8063715018a61461051e5780637a54c3d2146105285780638d23fc61146105465780638da5cb5b1461061c5780638f32d59b14610666578063a9f8d181146106885761018f565b8063392953671161014c57806339295367146104525780633ad10ef6146104705780634cdc9c63146104ba57806352983a8f146104d85780635645b080146104e25780636ef75fa0146105005761018f565b80630370607c1461019457806307546172146101b25780630c1cd7f3146101fc578063105f25de1461021a5780632a48ac9a146102ff5780632d7c3b83146103e4575b600080fd5b61019c610910565b6040518082815260200191505060405180910390f35b6101ba610a58565b604051808273ffffffffffffffffffffffffffffffffffffffff1673ffffffffffffffffffffffffffffffffffffffff16815260200191505060405180910390f35b610204610a7e565b6040518082815260200191505060405180910390f35b6102fd6004803603606081101561023057600080fd5b810190808035906020019064010000000081111561024d57600080fd5b82018360208201111561025f57600080fd5b8035906020019184600183028401116401000000008311171561028157600080fd5b91908080601f016020809104026020016040519081016040528093929190818152602001838380828437600081840152601f19601f820116905080830192505050505050509192919290803573ffffffffffffffffffffffffffffffffffffffff16906020019092919080359060200190929190505050610b6b565b005b6103e26004803603606081101561031557600080fd5b810190808035906020019064010000000081111561033257600080fd5b82018360208201111561034457600080fd5b8035906020019184600183028401116401000000008311171561036657600080fd5b91908080601f016020809104026020016040519081016040528093929190818152602001838380828437600081840152601f19601f820116905080830192505050505050509192919290803573ffffffffffffffffffffffffffffffffffffffff16906020019092919080359060200190929190505050610cc4565b005b610410600480360360208110156103fa57600080fd5b8101908080359060200190929190505050611145565b604051808273ffffffffffffffffffffffffffffffffffffffff1673ffffffffffffffffffffffffffffffffffffffff16815260200191505060405180910390f35b61045a611183565b6040518082815260200191505060405180910390f35b6104786112a5565b604051808273ffffffffffffffffffffffffffffffffffffffff1673ffffffffffffffffffffffffffffffffffffffff16815260200191505060405180910390f35b6104c26112cb565b6040518082815260200191505060405180910390f35b6104e06112d1565b005b6104ea6116be565b6040518082815260200191505060405180910390f35b6105086116cb565b6040518082815260200191505060405180910390f35b6105266116d5565b005b610530611810565b6040518082815260200191505060405180910390f35b6105886004803603602081101561055c57600080fd5b81019080803573ffffffffffffffffffffffffffffffffffffffff169060200190929190505050611816565b604051808581526020018481526020018315151515815260200180602001828103825283818151815260200191508051906020019080838360005b838110156105de5780820151818401526020810190506105c3565b50505050905090810190601f16801561060b5780820380516001836020036101000a031916815260200191505b509550505050505060405180910390f35b6106246118eb565b604051808273ffffffffffffffffffffffffffffffffffffffff1673ffffffffffffffffffffffffffffffffffffffff16815260200191505060405180910390f35b61066e611914565b604051808215151515815260200191505060405180910390f35b610690611972565b6040518082815260200191505060405180910390f35b61075f600480360360208110156106bc57600080fd5b81019080803590602001906401000000008111156106d957600080fd5b8201836020820111156106eb57600080fd5b8035906020019184600183028401116401000000008311171561070d57600080fd5b91908080601f016020809104026020016040519081016040528093929190818152602001838380828437600081840152601f19601f820116905080830192505050505050509192919290505050611978565b60405180831515151581526020018273ffffffffffffffffffffffffffffffffffffffff1673ffffffffffffffffffffffffffffffffffffffff1681526020019250505060405180910390f35b6107ee600480360360208110156107c257600080fd5b81019080803573ffffffffffffffffffffffffffffffffffffffff169060200190929190505050611bf9565b005b6108326004803603602081101561080657600080fd5b81019080803573ffffffffffffffffffffffffffffffffffffffff169060200190929190505050611d5e565b005b61083c611de6565b604051808273ffffffffffffffffffffffffffffffffffffffff1673ffffffffffffffffffffffffffffffffffffffff16815260200191505060405180910390f35b6108ca6004803603604081101561089457600080fd5b81019080803573ffffffffffffffffffffffffffffffffffffffff16906020019092919080359060200190929190505050611e10565b005b61090e600480360360208110156108e257600080fd5b81019080803573ffffffffffffffffffffffffffffffffffffffff1690602001909291905050506121c9565b005b6000804390506000600754141561092b576000915050610a55565b600754811115610a0e5760006109466001600754018361232e565b9050610a056109b46008546109a6600360003373ffffffffffffffffffffffffffffffffffffffff1673ffffffffffffffffffffffffffffffffffffffff168152602001908152602001600020600001548561265c90919063ffffffff16565b6126e690919063ffffffff16565b600360003373ffffffffffffffffffffffffffffffffffffffff1673ffffffffffffffffffffffffffffffffffffffff1681526020019081526020016000206001015461273090919063ffffffff16565b92505050610a55565b600360003373ffffffffffffffffffffffffffffffffffffffff1673ffffffffffffffffffffffffffffffffffffffff168152602001908152602001600020600101549150505b90565b600660009054906101000a900473ffffffffffffffffffffffffffffffffffffffff1681565b60008043905060006301312d00905060006298968090506000624c4b4090506000622625a090506000621312d09050620f42406009540186111515610acb57849650505050505050610b68565b620f42406009540186118015610ae8575062989680600954018611155b15610afb57839650505050505050610b68565b629896806009540186118015610b1957506301312d00600954018611155b15610b2c57829650505050505050610b68565b6301312d006009540186118015610b4b57506301c9c380600954018611155b15610b5e57819650505050505050610b68565b8096505050505050505b90565b600660009054906101000a900473ffffffffffffffffffffffffffffffffffffffff1673ffffffffffffffffffffffffffffffffffffffff163373ffffffffffffffffffffffffffffffffffffffff16141515610c30576040517f08c379a00000000000000000000000000000000000000000000000000000000081526004018080602001828103825260188152602001807f43616c6c6572206973206e6f7420746865206d696e746572000000000000000081525060200191505060405180910390fd5b6000600360008473ffffffffffffffffffffffffffffffffffffffff1673ffffffffffffffffffffffffffffffffffffffff16815260200190815260200160002060000154905081811015610ca157610c9c8484610c9784866127ba90919063ffffffff16565b610cc4565b610cbe565b610cbd83610cb884846127ba90919063ffffffff16565b611e10565b5b50505050565b600660009054906101000a900473ffffffffffffffffffffffffffffffffffffffff1673ffffffffffffffffffffffffffffffffffffffff163373ffffffffffffffffffffffffffffffffffffffff16141515610d89576040517f08c379a00000000000000000000000000000000000000000000000000000000081526004018080602001828103825260188152602001807f43616c6c6572206973206e6f7420746865206d696e746572000000000000000081525060200191505060405180910390fd5b6000811415610d9757611140565b60006007541415610daa57436007819055505b600360008373ffffffffffffffffffffffffffffffffffffffff1673ffffffffffffffffffffffffffffffffffffffff16815260200190815260200160002060020160009054906101000a900460ff161515610fa9576001600360008473ffffffffffffffffffffffffffffffffffffffff1673ffffffffffffffffffffffffffffffffffffffff16815260200190815260200160002060020160006101000a81548160ff0219169083151502179055506000600360008473ffffffffffffffffffffffffffffffffffffffff1673ffffffffffffffffffffffffffffffffffffffff1681526020019081526020016000206001018190555082600360008473ffffffffffffffffffffffffffffffffffffffff1673ffffffffffffffffffffffffffffffffffffffff1681526020019081526020016000206003019080519060200190610ef9929190612f71565b506000600360008473ffffffffffffffffffffffffffffffffffffffff1673ffffffffffffffffffffffffffffffffffffffff1681526020019081526020016000206000018190555060048290806001815401808255809150509060018203906000526020600020016000909192909190916101000a81548173ffffffffffffffffffffffffffffffffffffffff021916908373ffffffffffffffffffffffffffffffffffffffff160217905550505b610fb1612804565b61100681600360008573ffffffffffffffffffffffffffffffffffffffff1673ffffffffffffffffffffffffffffffffffffffff1681526020019081526020016000206000015461273090919063ffffffff16565b600360008473ffffffffffffffffffffffffffffffffffffffff1673ffffffffffffffffffffffffffffffffffffffff168152602001908152602001600020600001819055506110618160085461273090919063ffffffff16565b6008819055507fd327b35e36b3981157588978d60961f5c09dc2926008abb81dd77b1197a416ed83838360405180806020018473ffffffffffffffffffffffffffffffffffffffff1673ffffffffffffffffffffffffffffffffffffffff168152602001838152602001828103825285818151815260200191508051906020019080838360005b838110156111035780820151818401526020810190506110e8565b50505050905090810190601f1680156111305780820380516001836020036101000a031916815260200191505b5094505050505060405180910390a15b505050565b60048181548110151561115457fe5b906000526020600020016000915054906101000a900473ffffffffffffffffffffffffffffffffffffffff1681565b6000804390506000600560009054906101000a900473ffffffffffffffffffffffffffffffffffffffff1673ffffffffffffffffffffffffffffffffffffffff166318160ddd6040518163ffffffff167c010000000000000000000000000000000000000000000000000000000002815260040160206040518083038186803b15801561120f57600080fd5b505afa158015611223573d6000803e3d6000fd5b505050506040513d602081101561123957600080fd5b8101908080519060200190929190505050905060006007541415611262576000925050506112a2565b60075482111561129c57600061127d6001600754018461232e565b9050611292818361273090919063ffffffff16565b93505050506112a2565b80925050505b90565b600a60009054906101000a900473ffffffffffffffffffffffffffffffffffffffff1681565b60095481565b600360003373ffffffffffffffffffffffffffffffffffffffff1673ffffffffffffffffffffffffffffffffffffffff16815260200190815260200160002060020160009054906101000a900460ff161515611395576040517f08c379a000000000000000000000000000000000000000000000000000000000815260040180806020018281038252601a8152602001807f4163636f756e74206973206e6f7420612064656c656761746f7200000000000081525060200191505060405180910390fd5b600060075414156113a5576116bc565b6007544311156113b8576113b7612804565b5b600560009054906101000a900473ffffffffffffffffffffffffffffffffffffffff1673ffffffffffffffffffffffffffffffffffffffff1663a9059cbb33600360003373ffffffffffffffffffffffffffffffffffffffff1673ffffffffffffffffffffffffffffffffffffffff168152602001908152602001600020600101546040518363ffffffff167c0100000000000000000000000000000000000000000000000000000000028152600401808373ffffffffffffffffffffffffffffffffffffffff1673ffffffffffffffffffffffffffffffffffffffff16815260200182815260200192505050602060405180830381600087803b1580156114bf57600080fd5b505af11580156114d3573d6000803e3d6000fd5b505050506040513d60208110156114e957600080fd5b8101908080519060200190929190505050507fc77a29b12c61d8adea11ed5ba3c2ac0291d8aba4b6cec0dacb1a1d051eaee402600360003373ffffffffffffffffffffffffffffffffffffffff1673ffffffffffffffffffffffffffffffffffffffff16815260200190815260200160002060030133600360003373ffffffffffffffffffffffffffffffffffffffff1673ffffffffffffffffffffffffffffffffffffffff1681526020019081526020016000206001015460405180806020018473ffffffffffffffffffffffffffffffffffffffff1673ffffffffffffffffffffffffffffffffffffffff1681526020018381526020018281038252858181546001816001161561010002031660029004815260200191508054600181600116156101000203166002900480156116635780601f1061163857610100808354040283529160200191611663565b820191906000526020600020905b81548152906001019060200180831161164657829003601f168201915b505094505050505060405180910390a16000600360003373ffffffffffffffffffffffffffffffffffffffff1673ffffffffffffffffffffffffffffffffffffffff168152602001908152602001600020600101819055505b565b6000600480549050905090565b6000600854905090565b6116dd611914565b1515611751576040517f08c379a00000000000000000000000000000000000000000000000000000000081526004018080602001828103825260208152602001807f4f776e61626c653a2063616c6c6572206973206e6f7420746865206f776e657281525060200191505060405180910390fd5b600073ffffffffffffffffffffffffffffffffffffffff166000809054906101000a900473ffffffffffffffffffffffffffffffffffffffff1673ffffffffffffffffffffffffffffffffffffffff167f8be0079c531659141344cd1fd0a4f28419497f9722a3daafe3b4186f6b6457e060405160405180910390a360008060006101000a81548173ffffffffffffffffffffffffffffffffffffffff021916908373ffffffffffffffffffffffffffffffffffffffff160217905550565b60085481565b60036020528060005260406000206000915090508060000154908060010154908060020160009054906101000a900460ff1690806003018054600181600116156101000203166002900480601f0160208091040260200160405190810160405280929190818152602001828054600181600116156101000203166002900480156118e15780601f106118b6576101008083540402835291602001916118e1565b820191906000526020600020905b8154815290600101906020018083116118c457829003601f168201915b5050505050905084565b60008060009054906101000a900473ffffffffffffffffffffffffffffffffffffffff16905090565b60008060009054906101000a900473ffffffffffffffffffffffffffffffffffffffff1673ffffffffffffffffffffffffffffffffffffffff16611956612c97565b73ffffffffffffffffffffffffffffffffffffffff1614905090565b60075481565b60008060008090505b600480549050811015611be8578351600360006004848154811015156119a357fe5b9060005260206000200160009054906101000a900473ffffffffffffffffffffffffffffffffffffffff1673ffffffffffffffffffffffffffffffffffffffff1673ffffffffffffffffffffffffffffffffffffffff1681526020019081526020016000206003018054600181600116156101000203166002900490501415611bdb57836040516020018082805190602001908083835b602083101515611a5f5780518252602082019150602081019050602083039250611a3a565b6001836020036101000a0380198251168184511680821785525050505050509050019150506040516020818303038152906040528051906020012060036000600484815481101515611aad57fe5b9060005260206000200160009054906101000a900473ffffffffffffffffffffffffffffffffffffffff1673ffffffffffffffffffffffffffffffffffffffff1673ffffffffffffffffffffffffffffffffffffffff1681526020019081526020016000206003016040516020018082805460018160011615610100020316600290048015611b735780601f10611b51576101008083540402835291820191611b73565b820191906000526020600020905b815481529060010190602001808311611b5f575b5050915050604051602081830303815290604052805190602001201415611bda576001600482815481101515611ba557fe5b9060005260206000200160009054906101000a900473ffffffffffffffffffffffffffffffffffffffff169250925050611bf4565b5b8080600101915050611981565b50600080809050915091505b915091565b611c01611914565b1515611c75576040517f08c379a00000000000000000000000000000000000000000000000000000000081526004018080602001828103825260208152602001807f4f776e61626c653a2063616c6c6572206973206e6f7420746865206f776e657281525060200191505060405180910390fd5b600073ffffffffffffffffffffffffffffffffffffffff168173ffffffffffffffffffffffffffffffffffffffff1614151515611d1a576040517f08c379a00000000000000000000000000000000000000000000000000000000081526004018080602001828103825260138152602001807f496e76616c69642064657620616464726573730000000000000000000000000081525060200191505060405180910390fd5b80600a60006101000a81548173ffffffffffffffffffffffffffffffffffffffff021916908373ffffffffffffffffffffffffffffffffffffffff16021790555050565b611d66611914565b1515611dda576040517f08c379a00000000000000000000000000000000000000000000000000000000081526004018080602001828103825260208152602001807f4f776e61626c653a2063616c6c6572206973206e6f7420746865206f776e657281525060200191505060405180910390fd5b611de381612c9f565b50565b6000600660009054906101000a900473ffffffffffffffffffffffffffffffffffffffff16905090565b600660009054906101000a900473ffffffffffffffffffffffffffffffffffffffff1673ffffffffffffffffffffffffffffffffffffffff163373ffffffffffffffffffffffffffffffffffffffff16141515611ed5576040517f08c379a00000000000000000000000000000000000000000000000000000000081526004018080602001828103825260188152602001807f43616c6c6572206973206e6f7420746865206d696e746572000000000000000081525060200191505060405180910390fd5b600080821415611ee557506121c5565b6000600360008573ffffffffffffffffffffffffffffffffffffffff1673ffffffffffffffffffffffffffffffffffffffff168152602001908152602001600020600001541415611f3657506121c5565b600360008473ffffffffffffffffffffffffffffffffffffffff1673ffffffffffffffffffffffffffffffffffffffff1681526020019081526020016000206000015482101515611fcb57600360008473ffffffffffffffffffffffffffffffffffffffff1673ffffffffffffffffffffffffffffffffffffffff168152602001908152602001600020600001549050611fcf565b8190505b611fd7612804565b61202c81600360008673ffffffffffffffffffffffffffffffffffffffff1673ffffffffffffffffffffffffffffffffffffffff168152602001908152602001600020600001546127ba90919063ffffffff16565b600360008573ffffffffffffffffffffffffffffffffffffffff1673ffffffffffffffffffffffffffffffffffffffff16815260200190815260200160002060000181905550612087816008546127ba90919063ffffffff16565b6008819055507f7a5e5c901f9da945e2028bd646eb1f6842dff416e862cfa502e0d3408635143a600360008573ffffffffffffffffffffffffffffffffffffffff1673ffffffffffffffffffffffffffffffffffffffff168152602001908152602001600020600301848360405180806020018473ffffffffffffffffffffffffffffffffffffffff1673ffffffffffffffffffffffffffffffffffffffff1681526020018381526020018281038252858181546001816001161561010002031660029004815260200191508054600181600116156101000203166002900480156121b35780601f10612188576101008083540402835291602001916121b3565b820191906000526020600020905b81548152906001019060200180831161219657829003601f168201915b505094505050505060405180910390a1505b5050565b6121d1611914565b1515612245576040517f08c379a00000000000000000000000000000000000000000000000000000000081526004018080602001828103825260208152602001807f4f776e61626c653a2063616c6c6572206973206e6f7420746865206f776e657281525060200191505060405180910390fd5b600073ffffffffffffffffffffffffffffffffffffffff168173ffffffffffffffffffffffffffffffffffffffff16141515156122ea576040517f08c379a00000000000000000000000000000000000000000000000000000000081526004018080602001828103825260168152602001807f496e76616c6964206d696e74657220616464726573730000000000000000000081525060200191505060405180910390fd5b80600660006101000a81548173ffffffffffffffffffffffffffffffffffffffff021916908373ffffffffffffffffffffffffffffffffffffffff16021790555050565b6000806000905060006301312d00905060006298968090506000624c4b4090506000622625a090506000621312d0905087891115151561236d57600080fd5b620f424060095401881115156123bc576123b5856123a760016123998d8d6127ba90919063ffffffff16565b61273090919063ffffffff16565b61265c90919063ffffffff16565b955061264d565b620f424060095401891180156123d9575062989680600954018811155b1561241d576124168461240860016123fa8d8d6127ba90919063ffffffff16565b61273090919063ffffffff16565b61265c90919063ffffffff16565b955061264c565b62989680600954018911801561243b57506301312d00600954018811155b1561247f576124788361246a600161245c8d8d6127ba90919063ffffffff16565b61273090919063ffffffff16565b61265c90919063ffffffff16565b955061264b565b6301312d00600954018911801561249e57506301c9c380600954018811155b156124e2576124db826124cd60016124bf8d8d6127ba90919063ffffffff16565b61273090919063ffffffff16565b61265c90919063ffffffff16565b955061264a565b6301c9c380600954018911156125315761252a8161251c600161250e8d8d6127ba90919063ffffffff16565b61273090919063ffffffff16565b61265c90919063ffffffff16565b9550612649565b60008990505b888111151561264757620f4240600954018111151561256a57612563868861273090919063ffffffff16565b965061263a565b620f42406009540181118015612587575062989680600954018111155b156125a65761259f858861273090919063ffffffff16565b9650612639565b6298968060095401811180156125c457506301312d00600954018111155b156125e3576125dc848861273090919063ffffffff16565b9650612638565b6301312d00600954018111801561260257506301c9c380600954018111155b156126215761261a838861273090919063ffffffff16565b9650612637565b612634828861273090919063ffffffff16565b96505b5b5b5b8080600101915050612537565b505b5b5b5b5b85965050505050505092915050565b60008083141561266f57600090506126e0565b6000828402905082848281151561268257fe5b041415156126db576040517f08c379a000000000000000000000000000000000000000000000000000000000815260040180806020018281038252602181526020018061303d6021913960400191505060405180910390fd5b809150505b92915050565b600061272883836040805190810160405280601a81526020017f536166654d6174683a206469766973696f6e206279207a65726f000000000000815250612de5565b905092915050565b60008082840190508381101515156127b0576040517f08c379a000000000000000000000000000000000000000000000000000000000815260040180806020018281038252601b8152602001807f536166654d6174683a206164646974696f6e206f766572666c6f77000000000081525060200191505060405180910390fd5b8091505092915050565b60006127fc83836040805190810160405280601e81526020017f536166654d6174683a207375627472616374696f6e206f766572666c6f770000815250612eaf565b905092915050565b6000809050600043905060006007541415612820575050612c95565b60075481111515612832575050612c95565b6128416001600754018261232e565b9150600560009054906101000a900473ffffffffffffffffffffffffffffffffffffffff1673ffffffffffffffffffffffffffffffffffffffff166340c10f19600a60009054906101000a900473ffffffffffffffffffffffffffffffffffffffff166128b8600a866126e690919063ffffffff16565b6040518363ffffffff167c0100000000000000000000000000000000000000000000000000000000028152600401808373ffffffffffffffffffffffffffffffffffffffff1673ffffffffffffffffffffffffffffffffffffffff16815260200182815260200192505050600060405180830381600087803b15801561293d57600080fd5b505af1158015612951573d6000803e3d6000fd5b50505050600560009054906101000a900473ffffffffffffffffffffffffffffffffffffffff1673ffffffffffffffffffffffffffffffffffffffff166340c10f1930846040518363ffffffff167c0100000000000000000000000000000000000000000000000000000000028152600401808373ffffffffffffffffffffffffffffffffffffffff1673ffffffffffffffffffffffffffffffffffffffff16815260200182815260200192505050600060405180830381600087803b158015612a1a57600080fd5b505af1158015612a2e573d6000803e3d6000fd5b5050505060008090505b600480549050811015612c8a57600060036000600484815481101515612a5a57fe5b9060005260206000200160009054906101000a900473ffffffffffffffffffffffffffffffffffffffff1673ffffffffffffffffffffffffffffffffffffffff1673ffffffffffffffffffffffffffffffffffffffff168152602001908152602001600020600001541415612ace57612c7d565b612bfd612b73600854612b6560036000600487815481101515612aed57fe5b9060005260206000200160009054906101000a900473ffffffffffffffffffffffffffffffffffffffff1673ffffffffffffffffffffffffffffffffffffffff1673ffffffffffffffffffffffffffffffffffffffff168152602001908152602001600020600001548761265c90919063ffffffff16565b6126e690919063ffffffff16565b60036000600485815481101515612b8657fe5b9060005260206000200160009054906101000a900473ffffffffffffffffffffffffffffffffffffffff1673ffffffffffffffffffffffffffffffffffffffff1673ffffffffffffffffffffffffffffffffffffffff1681526020019081526020016000206001015461273090919063ffffffff16565b60036000600484815481101515612c1057fe5b9060005260206000200160009054906101000a900473ffffffffffffffffffffffffffffffffffffffff1673ffffffffffffffffffffffffffffffffffffffff1673ffffffffffffffffffffffffffffffffffffffff168152602001908152602001600020600101819055505b8080600101915050612a38565b504360078190555050505b565b600033905090565b600073ffffffffffffffffffffffffffffffffffffffff168173ffffffffffffffffffffffffffffffffffffffff1614151515612d27576040517f08c379a00000000000000000000000000000000000000000000000000000000081526004018080602001828103825260268152602001806130176026913960400191505060405180910390fd5b8073ffffffffffffffffffffffffffffffffffffffff166000809054906101000a900473ffffffffffffffffffffffffffffffffffffffff1673ffffffffffffffffffffffffffffffffffffffff167f8be0079c531659141344cd1fd0a4f28419497f9722a3daafe3b4186f6b6457e060405160405180910390a3806000806101000a81548173ffffffffffffffffffffffffffffffffffffffff021916908373ffffffffffffffffffffffffffffffffffffffff16021790555050565b600080831182901515612e93576040517f08c379a00000000000000000000000000000000000000000000000000000000081526004018080602001828103825283818151815260200191508051906020019080838360005b83811015612e58578082015181840152602081019050612e3d565b50505050905090810190601f168015612e855780820380516001836020036101000a031916815260200191505b509250505060405180910390fd5b5060008385811515612ea157fe5b049050809150509392505050565b60008383111582901515612f5e576040517f08c379a00000000000000000000000000000000000000000000000000000000081526004018080602001828103825283818151815260200191508051906020019080838360005b83811015612f23578082015181840152602081019050612f08565b50505050905090810190601f168015612f505780820380516001836020036101000a031916815260200191505b509250505060405180910390fd5b5060008385039050809150509392505050565b828054600181600116156101000203166002900490600052602060002090601f016020900481019282601f10612fb257805160ff1916838001178555612fe0565b82800160010185558215612fe0579182015b82811115612fdf578251825591602001919060010190612fc4565b5b509050612fed9190612ff1565b5090565b61301391905b8082111561300f576000816000905550600101612ff7565b5090565b9056fe4f776e61626c653a206e6577206f776e657220697320746865207a65726f2061646472657373536166654d6174683a206d756c7469706c69636174696f6e206f766572666c6f77a165627a7a723058201193fc78ebc527e148d0aed11000b8a5f6469c5241fb892de330d71f6a057e150029",
  "source": "pragma solidity ^0.5.0;\n\nimport \"./SafeMath.sol\";\nimport \"./Ownable.sol\";\n\ninterface PnutsMining  {\n    function transfer(address _to, uint256 _value) external returns (bool success);\n    function totalSupply() external view returns (uint256);\n    function mint(address _to, uint256 _amount) external;\n}\n\ncontract PeanutsPool is Ownable {\n    using SafeMath for uint256;\n\n    struct Delegator {\n        uint256 amount;             // reserved VEST\n        uint256 availablePeanuts;   // minted peanuts for user\n        bool hasDeposited;          // set true when first time deposit\n        string steemAccount;        // related steem acount\n    }\n\n    mapping (address => uint256) private _balances;\n    mapping (address => mapping (address => uint256)) private _allowances;\n    mapping(address => Delegator) public delegators;\n    address[] public delegatorList;\n\n    PnutsMining Pnuts;\n    address public minter;\n    uint256 public lastRewardBlock;\n    uint256 public totalDepositedSP;\n    uint256 public genesisBlock;\n    address public devAddress;\n    \n    event Deposit(string steemAccount, address delegator, uint256 amount);\n    event Withdraw(string steemAccount, address delegator, uint256 amount);\n    event WithdrawPeanuts(string steemAccount, address delegator, uint256 amount);\n\n    modifier onlyDelegator() {\n        require(delegators[msg.sender].hasDeposited, \"Account is not a delegator\");\n        _;\n    }\n\n    modifier onlyMinter() {\n        require(msg.sender == minter, \"Caller is not the minter\");\n        _;\n    }\n\n    constructor (address _punts) public {\n        Pnuts = PnutsMining(_punts);\n        totalDepositedSP = 0;\n        lastRewardBlock = 0;\n        genesisBlock = block.number;\n        devAddress = msg.sender;\n    }\n\n    // Only minter can call this method\n    function deposit(string memory steemAccount, address delegator, uint256 _amount)\n        public\n        onlyMinter\n    {\n        if (_amount == 0) return;\n\n        // lastRewardBlock == 0 means there is not delegator exist. When first delegator come,\n        // we set lastRewardBlock as current block number, then our game starts!\n        if (lastRewardBlock == 0) {\n            lastRewardBlock = block.number;\n        }\n\n        // Add to delegator list if account hasn't deposited before\n        if(!delegators[delegator].hasDeposited) {\n            delegators[delegator].hasDeposited = true;\n            delegators[delegator].availablePeanuts = 0;\n            delegators[delegator].steemAccount = steemAccount;\n            delegators[delegator].amount = 0;\n            delegatorList.push(delegator);\n        }\n\n        _updateRewardInfo();\n\n        delegators[delegator].amount = delegators[delegator].amount.add(_amount);\n        totalDepositedSP = totalDepositedSP.add(_amount);\n\n        emit Deposit(steemAccount, delegator, _amount);\n    }\n\n    // Only minter can call this method\n    function withdraw(address delegator, uint256 _amount) \n        public\n        onlyMinter\n    {\n        uint256 withdrawAmount;\n\n        if (_amount == 0) return;\n\n        if (delegators[delegator].amount == 0) return;\n\n        if (_amount >= delegators[delegator].amount)\n            withdrawAmount = delegators[delegator].amount;\n        else\n            withdrawAmount = _amount;\n\n        _updateRewardInfo();\n        \n        delegators[delegator].amount = delegators[delegator].amount.sub(withdrawAmount);\n        totalDepositedSP = totalDepositedSP.sub(withdrawAmount);\n\n        emit Withdraw(delegators[delegator].steemAccount, delegator, withdrawAmount);\n    }\n\n    function update(string memory steemAccount, address delegator, uint256 _amount)\n        public\n        onlyMinter\n    {\n        uint256 prevAmount = delegators[delegator].amount;\n\n        if (prevAmount < _amount) { // deposit\n            deposit(steemAccount, delegator, _amount.sub(prevAmount));\n        } else {   // withdraw\n            withdraw(delegator, prevAmount.sub(_amount));\n        }\n    }\n\n    \n    function withdrawPeanuts() \n        public\n        onlyDelegator\n    {\n        // game has not started\n        if (lastRewardBlock == 0) return;\n\n        // There are new blocks created after last updating, so append new rewards before withdraw\n        if(block.number > lastRewardBlock) {\n            _updateRewardInfo();\n        }\n\n        Pnuts.transfer(msg.sender, delegators[msg.sender].availablePeanuts);\n\n        emit WithdrawPeanuts(delegators[msg.sender].steemAccount, msg.sender, delegators[msg.sender].availablePeanuts);\n\n        delegators[msg.sender].availablePeanuts = 0;\n    }\n\n    // calculate reward between blocks [from, to]\n    function _calculateReward(uint256 from, uint256 to) internal view returns (uint256) {\n        uint256 rewardPeanuts = 0;\n        uint256 BASE_20  = 20 * 1e6;\n        uint256 BASE_10  = 10 * 1e6;\n        uint256 BASE_5  = 5 * 1e6;\n        uint256 BASE_2  = 25 * 1e5;\n        uint256 BASE_1  = 125 * 1e4;\n\n        require(from <= to);\n        if (to <= (genesisBlock + 1000000)) {\n            rewardPeanuts = to.sub(from).add(1).mul(BASE_20);\n        } else if (from > (genesisBlock + 1000000) && to <= (genesisBlock + 10000000)) {\n            rewardPeanuts = to.sub(from).add(1).mul(BASE_10);\n        } else if (from > (genesisBlock + 10000000) && to <= (genesisBlock + 20000000)) {\n            rewardPeanuts = to.sub(from).add(1).mul(BASE_5);\n        } else if (from > (genesisBlock + 20000000) && to <= (genesisBlock + 30000000)) {\n            rewardPeanuts = to.sub(from).add(1).mul(BASE_2);\n        } else if(from > (genesisBlock + 30000000)) {\n            rewardPeanuts = to.sub(from).add(1).mul(BASE_1);\n        } else {    // reward maybe different under those blocks, so calculate it one by one\n            for(uint _block = from; _block <= to; _block++) {\n                if (_block <= genesisBlock + 1000000) {\n                    rewardPeanuts = rewardPeanuts.add(BASE_20);\n                } else if (_block > (genesisBlock + 1000000) && _block <= (genesisBlock + 10000000)){\n                    rewardPeanuts = rewardPeanuts.add(BASE_10);\n                } else if (_block > (genesisBlock + 10000000) && _block <= (genesisBlock + 20000000)){\n                    rewardPeanuts = rewardPeanuts.add(BASE_5);\n                } else if (_block > (genesisBlock + 20000000) && _block <= (genesisBlock + 30000000)){\n                    rewardPeanuts = rewardPeanuts.add(BASE_2);\n                } else {\n                    rewardPeanuts = rewardPeanuts.add(BASE_1);\n                }\n            }\n        }\n        return rewardPeanuts;\n    }\n\n    function _updateRewardInfo() internal\n    {\n        uint256 peanutsReadyToMinted = 0;\n        uint256 currentBlock = block.number;\n\n        // game has not started\n        if (lastRewardBlock == 0) return;\n\n        // make sure one block can only be calculated one time.\n        // think about this situation that more than one deposit/withdraw/withdrowPeanuts transactions \n        // were exist in the same block, delegator.amout should be updated after _updateRewardInfo being \n        // invoked and it's award peanuts should be calculated next time\n        if (currentBlock <= lastRewardBlock) return;\n\n        // calculate reward peanuts under current blocks\n        peanutsReadyToMinted = _calculateReward(lastRewardBlock + 1, currentBlock);\n\n        Pnuts.mint(devAddress, peanutsReadyToMinted.div(10));\n        Pnuts.mint(address(this), peanutsReadyToMinted);\n\n        // update availablePeanuts for every delegator\n        for (uint i = 0; i < delegatorList.length; i++) {\n            if (delegators[delegatorList[i]].amount == 0) continue;\n\n            delegators[delegatorList[i]].availablePeanuts = delegators[delegatorList[i]].availablePeanuts\n            .add(peanutsReadyToMinted.mul(delegators[delegatorList[i]].amount).div(totalDepositedSP));\n        }\n\n        lastRewardBlock = block.number;\n    }\n\n    \n    // pending peanuts >= delegator.availablePeanuts\n    function getPendingPeanuts() public view returns (uint256) {\n        uint256 currentBlock = block.number;\n        // game has not started\n        if (lastRewardBlock == 0) return 0;\n\n        // our lastRewardBlock isn't up to date, as the result, the availablePeanuts isn't\n        // the right amount that delegator can award\n        if (currentBlock > lastRewardBlock) {\n            uint256 unmintedPeanuts = _calculateReward(lastRewardBlock + 1, currentBlock);\n            return delegators[msg.sender].availablePeanuts.add(\n                   unmintedPeanuts.mul(delegators[msg.sender].amount).div(totalDepositedSP));\n        } else {\n            return delegators[msg.sender].availablePeanuts;\n        }\n    }\n\n    // Totalpending peanuts >= _totalSupply\n    function getTotalPendingPeanuts() public view returns (uint256) {\n        uint256 currentBlock = block.number;\n        uint256 totalSupply = Pnuts.totalSupply();\n\n        // game has not started\n        if (lastRewardBlock == 0) return 0;\n\n        // our lastRewardBlock isn't up to date, as the result, the availablePeanuts isn't\n        // the right amount that delegator can award\n        if (currentBlock > lastRewardBlock) {\n            uint256 unmintedPeanuts = _calculateReward(lastRewardBlock + 1, currentBlock);\n            return totalSupply.add(unmintedPeanuts);\n        } else {\n            return totalSupply;\n        }\n    }\n\n    function getRewardsPerBlock() public view returns (uint256) {\n        uint256 currentBlock = block.number;\n        uint256 BASE_20  = 20 * 1e6;\n        uint256 BASE_10  = 10 * 1e6;\n        uint256 BASE_5  = 5 * 1e6;\n        uint256 BASE_2  = 25 * 1e5;\n        uint256 BASE_1  = 125 * 1e4;\n\n        if (currentBlock <= (genesisBlock + 1000000)) {\n            return BASE_20;\n        } else if (currentBlock > (genesisBlock + 1000000) && currentBlock <= (genesisBlock + 10000000)) {\n            return BASE_10;\n        } else if (currentBlock > (genesisBlock + 10000000) && currentBlock <= (genesisBlock + 20000000)) {\n            return BASE_5;\n        } else if (currentBlock > (genesisBlock + 20000000) && currentBlock <= (genesisBlock + 30000000)) {\n            return BASE_2;\n        } else {\n            return BASE_1;\n        } \n    }\n\n    // return VEST as unit\n    function getTotalDepositedSP() public view returns (uint256) {\n        return totalDepositedSP;\n    }\n\n    //Check for illegal operation by steemAccount\n    function checkSteemAccount(string memory steemAccount) public view returns(bool, address){\n        for (uint i = 0; i < delegatorList.length; i++) {\n            if (bytes(delegators[delegatorList[i]].steemAccount).length == bytes(steemAccount).length) {\n                if(keccak256(abi.encodePacked(delegators[delegatorList[i]].steemAccount)) == keccak256(abi.encodePacked(steemAccount))){\n                    return(true, delegatorList[i]);\n                }\n            }\n        }\n        return (false, address(0));\n    }\n\n    function getDelegatorListLength() public view returns(uint256){\n        return delegatorList.length;\n    }\n\n    function getMinter() public view returns (address) {\n        return minter;\n    }\n\n    function setMinter(address _minter) \n        public\n        onlyOwner\n    {\n        require(_minter != address(0), \"Invalid minter address\");\n        minter = _minter;\n    }\n\n    function setDevAddress(address dev) \n        public\n        onlyOwner\n    {\n        require(dev != address(0), \"Invalid dev address\");\n        devAddress = dev;\n    }\n}",
  "sourcePath": "D:/dapps/nutbox-contract/contracts/PeanutsPool.sol",
  "compiler": {
    "name": "solc",
    "version": "0.5.4+commit.d15a3125.mod.Emscripten.clang"
  },
  "schemaVersion": "2.0.1",
  "updatedAt": "2020-10-20T11:04:53.452Z"
}