{
  "contractName": "PeanutsPoolV2",
  "abi": [
    {
      "constant": true,
      "inputs": [],
      "name": "minter",
      "outputs": [
        {
          "name": "",
          "type": "address"
        }
      ],
      "payable": false,
      "stateMutability": "view",
      "type": "function"
    },
    {
      "constant": true,
      "inputs": [],
      "name": "initialized",
      "outputs": [
        {
          "name": "",
          "type": "bool"
        }
      ],
      "payable": false,
      "stateMutability": "view",
      "type": "function"
    },
    {
      "constant": true,
      "inputs": [],
      "name": "shareAcc",
      "outputs": [
        {
          "name": "",
          "type": "uint256"
        }
      ],
      "payable": false,
      "stateMutability": "view",
      "type": "function"
    },
    {
      "constant": true,
      "inputs": [
        {
          "name": "",
          "type": "uint256"
        }
      ],
      "name": "delegatorList",
      "outputs": [
        {
          "name": "",
          "type": "address"
        }
      ],
      "payable": false,
      "stateMutability": "view",
      "type": "function"
    },
    {
      "constant": true,
      "inputs": [],
      "name": "devAddress",
      "outputs": [
        {
          "name": "",
          "type": "address"
        }
      ],
      "payable": false,
      "stateMutability": "view",
      "type": "function"
    },
    {
      "constant": true,
      "inputs": [],
      "name": "genesisBlock",
      "outputs": [
        {
          "name": "",
          "type": "uint256"
        }
      ],
      "payable": false,
      "stateMutability": "view",
      "type": "function"
    },
    {
      "constant": false,
      "inputs": [],
      "name": "renounceOwnership",
      "outputs": [],
      "payable": false,
      "stateMutability": "nonpayable",
      "type": "function"
    },
    {
      "constant": true,
      "inputs": [],
      "name": "totalDepositedSP",
      "outputs": [
        {
          "name": "",
          "type": "uint256"
        }
      ],
      "payable": false,
      "stateMutability": "view",
      "type": "function"
    },
    {
      "constant": true,
      "inputs": [
        {
          "name": "",
          "type": "address"
        }
      ],
      "name": "delegators",
      "outputs": [
        {
          "name": "amount",
          "type": "uint256"
        },
        {
          "name": "availablePeanuts",
          "type": "uint256"
        },
        {
          "name": "debtRewards",
          "type": "uint256"
        },
        {
          "name": "hasDeposited",
          "type": "bool"
        },
        {
          "name": "steemAccount",
          "type": "string"
        }
      ],
      "payable": false,
      "stateMutability": "view",
      "type": "function"
    },
    {
      "constant": true,
      "inputs": [],
      "name": "owner",
      "outputs": [
        {
          "name": "",
          "type": "address"
        }
      ],
      "payable": false,
      "stateMutability": "view",
      "type": "function"
    },
    {
      "constant": true,
      "inputs": [],
      "name": "isOwner",
      "outputs": [
        {
          "name": "",
          "type": "bool"
        }
      ],
      "payable": false,
      "stateMutability": "view",
      "type": "function"
    },
    {
      "constant": true,
      "inputs": [],
      "name": "lastRewardBlock",
      "outputs": [
        {
          "name": "",
          "type": "uint256"
        }
      ],
      "payable": false,
      "stateMutability": "view",
      "type": "function"
    },
    {
      "constant": false,
      "inputs": [
        {
          "name": "newOwner",
          "type": "address"
        }
      ],
      "name": "transferOwnership",
      "outputs": [],
      "payable": false,
      "stateMutability": "nonpayable",
      "type": "function"
    },
    {
      "inputs": [
        {
          "name": "_punts",
          "type": "address"
        }
      ],
      "payable": false,
      "stateMutability": "nonpayable",
      "type": "constructor"
    },
    {
      "anonymous": false,
      "inputs": [
        {
          "indexed": false,
          "name": "steemAccount",
          "type": "string"
        },
        {
          "indexed": false,
          "name": "delegator",
          "type": "address"
        },
        {
          "indexed": false,
          "name": "amount",
          "type": "uint256"
        }
      ],
      "name": "Deposit",
      "type": "event"
    },
    {
      "anonymous": false,
      "inputs": [
        {
          "indexed": false,
          "name": "steemAccount",
          "type": "string"
        },
        {
          "indexed": false,
          "name": "delegator",
          "type": "address"
        },
        {
          "indexed": false,
          "name": "amount",
          "type": "uint256"
        }
      ],
      "name": "Withdraw",
      "type": "event"
    },
    {
      "anonymous": false,
      "inputs": [
        {
          "indexed": false,
          "name": "steemAccount",
          "type": "string"
        },
        {
          "indexed": false,
          "name": "delegator",
          "type": "address"
        },
        {
          "indexed": false,
          "name": "amount",
          "type": "uint256"
        }
      ],
      "name": "WithdrawPeanuts",
      "type": "event"
    },
    {
      "anonymous": false,
      "inputs": [
        {
          "indexed": true,
          "name": "previousOwner",
          "type": "address"
        },
        {
          "indexed": true,
          "name": "newOwner",
          "type": "address"
        }
      ],
      "name": "OwnershipTransferred",
      "type": "event"
    },
    {
      "constant": false,
      "inputs": [
        {
          "name": "steemAccount",
          "type": "string"
        },
        {
          "name": "delegator",
          "type": "address"
        },
        {
          "name": "_amount",
          "type": "uint256"
        }
      ],
      "name": "deposit",
      "outputs": [],
      "payable": false,
      "stateMutability": "nonpayable",
      "type": "function"
    },
    {
      "constant": false,
      "inputs": [
        {
          "name": "delegator",
          "type": "address"
        },
        {
          "name": "_amount",
          "type": "uint256"
        }
      ],
      "name": "withdraw",
      "outputs": [],
      "payable": false,
      "stateMutability": "nonpayable",
      "type": "function"
    },
    {
      "constant": false,
      "inputs": [
        {
          "name": "steemAccount",
          "type": "string"
        },
        {
          "name": "delegator",
          "type": "address"
        },
        {
          "name": "_amount",
          "type": "uint256"
        }
      ],
      "name": "update",
      "outputs": [],
      "payable": false,
      "stateMutability": "nonpayable",
      "type": "function"
    },
    {
      "constant": false,
      "inputs": [],
      "name": "withdrawPeanuts",
      "outputs": [],
      "payable": false,
      "stateMutability": "nonpayable",
      "type": "function"
    },
    {
      "constant": true,
      "inputs": [],
      "name": "getPendingPeanuts",
      "outputs": [
        {
          "name": "",
          "type": "uint256"
        }
      ],
      "payable": false,
      "stateMutability": "view",
      "type": "function"
    },
    {
      "constant": true,
      "inputs": [],
      "name": "getTotalPendingPeanuts",
      "outputs": [
        {
          "name": "",
          "type": "uint256"
        }
      ],
      "payable": false,
      "stateMutability": "view",
      "type": "function"
    },
    {
      "constant": true,
      "inputs": [],
      "name": "getRewardsPerBlock",
      "outputs": [
        {
          "name": "",
          "type": "uint256"
        }
      ],
      "payable": false,
      "stateMutability": "view",
      "type": "function"
    },
    {
      "constant": true,
      "inputs": [],
      "name": "getTotalDepositedSP",
      "outputs": [
        {
          "name": "",
          "type": "uint256"
        }
      ],
      "payable": false,
      "stateMutability": "view",
      "type": "function"
    },
    {
      "constant": true,
      "inputs": [
        {
          "name": "steemAccount",
          "type": "string"
        }
      ],
      "name": "checkSteemAccount",
      "outputs": [
        {
          "name": "",
          "type": "bool"
        },
        {
          "name": "",
          "type": "address"
        }
      ],
      "payable": false,
      "stateMutability": "view",
      "type": "function"
    },
    {
      "constant": true,
      "inputs": [],
      "name": "getDelegatorListLength",
      "outputs": [
        {
          "name": "",
          "type": "uint256"
        }
      ],
      "payable": false,
      "stateMutability": "view",
      "type": "function"
    },
    {
      "constant": true,
      "inputs": [],
      "name": "getMinter",
      "outputs": [
        {
          "name": "",
          "type": "address"
        }
      ],
      "payable": false,
      "stateMutability": "view",
      "type": "function"
    },
    {
      "constant": false,
      "inputs": [
        {
          "name": "_minter",
          "type": "address"
        }
      ],
      "name": "setMinter",
      "outputs": [],
      "payable": false,
      "stateMutability": "nonpayable",
      "type": "function"
    },
    {
      "constant": false,
      "inputs": [
        {
          "name": "dev",
          "type": "address"
        }
      ],
      "name": "setDevAddress",
      "outputs": [],
      "payable": false,
      "stateMutability": "nonpayable",
      "type": "function"
    },
    {
      "constant": false,
      "inputs": [
        {
          "name": "steemAccount",
          "type": "string"
        },
        {
          "name": "delegator",
          "type": "address"
        },
        {
          "name": "_amount",
          "type": "uint256"
        },
        {
          "name": "_endowedAmount",
          "type": "uint256"
        }
      ],
      "name": "setEndowed",
      "outputs": [],
      "payable": false,
      "stateMutability": "nonpayable",
      "type": "function"
    },
    {
      "constant": false,
      "inputs": [],
      "name": "setInitialized",
      "outputs": [],
      "payable": false,
      "stateMutability": "nonpayable",
      "type": "function"
    }
  ],
  "bytecode": "0x60806040523480156200001157600080fd5b50d380156200001f57600080fd5b50d280156200002d57600080fd5b506040516020806200427c833981018060405260208110156200004f57600080fd5b810190808051906020019092919050505062000079620001fe640100000000026401000000009004565b6000806101000a81548173ffffffffffffffffffffffffffffffffffffffff021916908373ffffffffffffffffffffffffffffffffffffffff1602179055506000809054906101000a900473ffffffffffffffffffffffffffffffffffffffff1673ffffffffffffffffffffffffffffffffffffffff16600073ffffffffffffffffffffffffffffffffffffffff167f8be0079c531659141344cd1fd0a4f28419497f9722a3daafe3b4186f6b6457e060405160405180910390a380600360006101000a81548173ffffffffffffffffffffffffffffffffffffffff021916908373ffffffffffffffffffffffffffffffffffffffff1602179055506000600781905550630181f1d16005819055506000600681905550630172bd6960088190555033600960006101000a81548173ffffffffffffffffffffffffffffffffffffffff021916908373ffffffffffffffffffffffffffffffffffffffff1602179055506000600960146101000a81548160ff0219169083151502179055505062000206565b600033905090565b61406680620002166000396000f3fe608060405234801561001057600080fd5b50d3801561001d57600080fd5b50d2801561002a57600080fd5b50600436106101fb576000357c0100000000000000000000000000000000000000000000000000000000900480636ef75fa011610130578063a9f8d181116100ce578063f2fde38b116100a8578063f2fde38b1461099c578063f3667517146109e0578063f3fef3a314610a2a578063fca3b5aa14610a78576101fb565b8063a9f8d18114610834578063c512311a14610852578063d0d41fe114610958576101fb565b8063801928211161010a57806380192821146106e15780638d23fc61146106eb5780638da5cb5b146107c85780638f32d59b14610812576101fb565b80636ef75fa01461069b578063715018a6146106b95780637a54c3d2146106c3576101fb565b80632a48ac9a1161019d5780633ad10ef6116101775780633ad10ef61461060b5780634cdc9c631461065557806352983a8f146106735780635645b0801461067d576101fb565b80632a48ac9a1461049a5780632d7c3b831461057f57806339295367146105ed576101fb565b8063105f25de116101d9578063105f25de14610286578063158ef93e1461036b5780631ef827a21461038d578063245357a31461047c576101fb565b80630370607c14610200578063075461721461021e5780630c1cd7f314610268575b600080fd5b610208610abc565b6040518082815260200191505060405180910390f35b610226610ca9565b604051808273ffffffffffffffffffffffffffffffffffffffff1673ffffffffffffffffffffffffffffffffffffffff16815260200191505060405180910390f35b610270610ccf565b6040518082815260200191505060405180910390f35b6103696004803603606081101561029c57600080fd5b81019080803590602001906401000000008111156102b957600080fd5b8201836020820111156102cb57600080fd5b803590602001918460018302840111640100000000831117156102ed57600080fd5b91908080601f016020809104026020016040519081016040528093929190818152602001838380828437600081840152601f19601f820116905080830192505050505050509192919290803573ffffffffffffffffffffffffffffffffffffffff16906020019092919080359060200190929190505050610dbc565b005b610373610f83565b604051808215151515815260200191505060405180910390f35b61047a600480360360808110156103a357600080fd5b81019080803590602001906401000000008111156103c057600080fd5b8201836020820111156103d257600080fd5b803590602001918460018302840111640100000000831117156103f457600080fd5b91908080601f016020809104026020016040519081016040528093929190818152602001838380828437600081840152601f19601f820116905080830192505050505050509192919290803573ffffffffffffffffffffffffffffffffffffffff1690602001909291908035906020019092919080359060200190929190505050610f96565b005b610484611389565b6040518082815260200191505060405180910390f35b61057d600480360360608110156104b057600080fd5b81019080803590602001906401000000008111156104cd57600080fd5b8201836020820111156104df57600080fd5b8035906020019184600183028401116401000000008311171561050157600080fd5b91908080601f016020809104026020016040519081016040528093929190818152602001838380828437600081840152601f19601f820116905080830192505050505050509192919290803573ffffffffffffffffffffffffffffffffffffffff1690602001909291908035906020019092919050505061138f565b005b6105ab6004803603602081101561059557600080fd5b8101908080359060200190929190505050611b31565b604051808273ffffffffffffffffffffffffffffffffffffffff1673ffffffffffffffffffffffffffffffffffffffff16815260200191505060405180910390f35b6105f5611b6f565b6040518082815260200191505060405180910390f35b610613611cb6565b604051808273ffffffffffffffffffffffffffffffffffffffff1673ffffffffffffffffffffffffffffffffffffffff16815260200191505060405180910390f35b61065d611cdc565b6040518082815260200191505060405180910390f35b61067b611ce2565b005b61068561235d565b6040518082815260200191505060405180910390f35b6106a361236a565b6040518082815260200191505060405180910390f35b6106c1612374565b005b6106cb6124af565b6040518082815260200191505060405180910390f35b6106e96124b5565b005b61072d6004803603602081101561070157600080fd5b81019080803573ffffffffffffffffffffffffffffffffffffffff1690602001909291905050506125d9565b604051808681526020018581526020018481526020018315151515815260200180602001828103825283818151815260200191508051906020019080838360005b8381101561078957808201518184015260208101905061076e565b50505050905090810190601f1680156107b65780820380516001836020036101000a031916815260200191505b50965050505050505060405180910390f35b6107d06126b4565b604051808273ffffffffffffffffffffffffffffffffffffffff1673ffffffffffffffffffffffffffffffffffffffff16815260200191505060405180910390f35b61081a6126dd565b604051808215151515815260200191505060405180910390f35b61083c61273b565b6040518082815260200191505060405180910390f35b61090b6004803603602081101561086857600080fd5b810190808035906020019064010000000081111561088557600080fd5b82018360208201111561089757600080fd5b803590602001918460018302840111640100000000831117156108b957600080fd5b91908080601f016020809104026020016040519081016040528093929190818152602001838380828437600081840152601f19601f820116905080830192505050505050509192919290505050612741565b60405180831515151581526020018273ffffffffffffffffffffffffffffffffffffffff1673ffffffffffffffffffffffffffffffffffffffff1681526020019250505060405180910390f35b61099a6004803603602081101561096e57600080fd5b81019080803573ffffffffffffffffffffffffffffffffffffffff1690602001909291905050506129c2565b005b6109de600480360360208110156109b257600080fd5b81019080803573ffffffffffffffffffffffffffffffffffffffff169060200190929190505050612b27565b005b6109e8612baf565b604051808273ffffffffffffffffffffffffffffffffffffffff1673ffffffffffffffffffffffffffffffffffffffff16815260200191505060405180910390f35b610a7660048036036040811015610a4057600080fd5b81019080803573ffffffffffffffffffffffffffffffffffffffff16906020019092919080359060200190929190505050612bd9565b005b610aba60048036036020811015610a8e57600080fd5b81019080803573ffffffffffffffffffffffffffffffffffffffff16906020019092919050505061321f565b005b60008043905060006005541415610ad7576000915050610ca6565b600554811115610c5f57600060065490506000610af960016005540184613384565b9050610b39610b2a600754610b1c64e8d4a510008561382b90919063ffffffff16565b6138b590919063ffffffff16565b836138ff90919063ffffffff16565b91506000610bfd600160003373ffffffffffffffffffffffffffffffffffffffff1673ffffffffffffffffffffffffffffffffffffffff16815260200190815260200160002060020154610bef64e8d4a51000610be187600160003373ffffffffffffffffffffffffffffffffffffffff1673ffffffffffffffffffffffffffffffffffffffff1681526020019081526020016000206000015461382b90919063ffffffff16565b6138b590919063ffffffff16565b61398990919063ffffffff16565b9050610c5481600160003373ffffffffffffffffffffffffffffffffffffffff1673ffffffffffffffffffffffffffffffffffffffff168152602001908152602001600020600101546138ff90919063ffffffff16565b945050505050610ca6565b600160003373ffffffffffffffffffffffffffffffffffffffff1673ffffffffffffffffffffffffffffffffffffffff168152602001908152602001600020600101549150505b90565b600460009054906101000a900473ffffffffffffffffffffffffffffffffffffffff1681565b60008043905060006301312d00905060006298968090506000624c4b4090506000622625a090506000621312d09050620f42406008540186111515610d1c57849650505050505050610db9565b620f42406008540186118015610d39575062989680600854018611155b15610d4c57839650505050505050610db9565b629896806008540186118015610d6a57506301312d00600854018611155b15610d7d57829650505050505050610db9565b6301312d006008540186118015610d9c57506301c9c380600854018611155b15610daf57819650505050505050610db9565b8096505050505050505b90565b600460009054906101000a900473ffffffffffffffffffffffffffffffffffffffff1673ffffffffffffffffffffffffffffffffffffffff163373ffffffffffffffffffffffffffffffffffffffff16141515610e81576040517f08c379a00000000000000000000000000000000000000000000000000000000081526004018080602001828103825260188152602001807f43616c6c6572206973206e6f7420746865206d696e746572000000000000000081525060200191505060405180910390fd5b60011515600960149054906101000a900460ff161515141515610eef576040517f08c379a0000000000000000000000000000000000000000000000000000000008152600401808060200182810382526021815260200180613fd36021913960400191505060405180910390fd5b6000600160008473ffffffffffffffffffffffffffffffffffffffff1673ffffffffffffffffffffffffffffffffffffffff16815260200190815260200160002060000154905081811015610f6057610f5b8484610f56848661398990919063ffffffff16565b61138f565b610f7d565b610f7c83610f77848461398990919063ffffffff16565b612bd9565b5b50505050565b600960149054906101000a900460ff1681565b610f9e6126dd565b1515611012576040517f08c379a00000000000000000000000000000000000000000000000000000000081526004018080602001828103825260208152602001807f4f776e61626c653a2063616c6c6572206973206e6f7420746865206f776e657281525060200191505060405180910390fd5b60001515600960149054906101000a900460ff16151514151561109d576040517f08c379a000000000000000000000000000000000000000000000000000000000815260040180806020018281038252601c8152602001807f436f6e747261637420616c726561647920696e697469616c697a65640000000081525060200191505060405180910390fd5b60018060008573ffffffffffffffffffffffffffffffffffffffff1673ffffffffffffffffffffffffffffffffffffffff16815260200190815260200160002060030160006101000a81548160ff02191690831515021790555083600160008573ffffffffffffffffffffffffffffffffffffffff1673ffffffffffffffffffffffffffffffffffffffff168152602001908152602001600020600401908051906020019061114d929190613f2d565b5081600160008573ffffffffffffffffffffffffffffffffffffffff1673ffffffffffffffffffffffffffffffffffffffff168152602001908152602001600020600001819055506000600160008573ffffffffffffffffffffffffffffffffffffffff1673ffffffffffffffffffffffffffffffffffffffff168152602001908152602001600020600201819055506000600160008573ffffffffffffffffffffffffffffffffffffffff1673ffffffffffffffffffffffffffffffffffffffff16815260200190815260200160002060010181905550600360009054906101000a900473ffffffffffffffffffffffffffffffffffffffff1673ffffffffffffffffffffffffffffffffffffffff166340c10f1984836040518363ffffffff167c0100000000000000000000000000000000000000000000000000000000028152600401808373ffffffffffffffffffffffffffffffffffffffff1673ffffffffffffffffffffffffffffffffffffffff16815260200182815260200192505050600060405180830381600087803b1580156112ea57600080fd5b505af11580156112fe573d6000803e3d6000fd5b5050505060028390806001815401808255809150509060018203906000526020600020016000909192909190916101000a81548173ffffffffffffffffffffffffffffffffffffffff021916908373ffffffffffffffffffffffffffffffffffffffff1602179055505061137d826007546138ff90919063ffffffff16565b60078190555050505050565b60065481565b600460009054906101000a900473ffffffffffffffffffffffffffffffffffffffff1673ffffffffffffffffffffffffffffffffffffffff163373ffffffffffffffffffffffffffffffffffffffff16141515611454576040517f08c379a00000000000000000000000000000000000000000000000000000000081526004018080602001828103825260188152602001807f43616c6c6572206973206e6f7420746865206d696e746572000000000000000081525060200191505060405180910390fd5b60011515600960149054906101000a900460ff1615151415156114c2576040517f08c379a0000000000000000000000000000000000000000000000000000000008152600401808060200182810382526021815260200180613fd36021913960400191505060405180910390fd5b60008114156114d057611b2c565b600060055414156114e357436005819055505b600160008373ffffffffffffffffffffffffffffffffffffffff1673ffffffffffffffffffffffffffffffffffffffff16815260200190815260200160002060030160009054906101000a900460ff1615156117295760018060008473ffffffffffffffffffffffffffffffffffffffff1673ffffffffffffffffffffffffffffffffffffffff16815260200190815260200160002060030160006101000a81548160ff0219169083151502179055506000600160008473ffffffffffffffffffffffffffffffffffffffff1673ffffffffffffffffffffffffffffffffffffffff1681526020019081526020016000206001018190555082600160008473ffffffffffffffffffffffffffffffffffffffff1673ffffffffffffffffffffffffffffffffffffffff1681526020019081526020016000206004019080519060200190611631929190613f2d565b506000600160008473ffffffffffffffffffffffffffffffffffffffff1673ffffffffffffffffffffffffffffffffffffffff168152602001908152602001600020600001819055506000600160008473ffffffffffffffffffffffffffffffffffffffff1673ffffffffffffffffffffffffffffffffffffffff1681526020019081526020016000206002018190555060028290806001815401808255809150509060018203906000526020600020016000909192909190916101000a81548173ffffffffffffffffffffffffffffffffffffffff021916908373ffffffffffffffffffffffffffffffffffffffff160217905550505b6117316139d3565b6000600160008473ffffffffffffffffffffffffffffffffffffffff1673ffffffffffffffffffffffffffffffffffffffff1681526020019081526020016000206000015411156118e9576000611840600160008573ffffffffffffffffffffffffffffffffffffffff1673ffffffffffffffffffffffffffffffffffffffff1681526020019081526020016000206002015461183264e8d4a51000611824600654600160008a73ffffffffffffffffffffffffffffffffffffffff1673ffffffffffffffffffffffffffffffffffffffff1681526020019081526020016000206000015461382b90919063ffffffff16565b6138b590919063ffffffff16565b61398990919063ffffffff16565b905060008111156118e7576118a081600160008673ffffffffffffffffffffffffffffffffffffffff1673ffffffffffffffffffffffffffffffffffffffff168152602001908152602001600020600101546138ff90919063ffffffff16565b600160008573ffffffffffffffffffffffffffffffffffffffff1673ffffffffffffffffffffffffffffffffffffffff168152602001908152602001600020600101819055505b505b61193e81600160008573ffffffffffffffffffffffffffffffffffffffff1673ffffffffffffffffffffffffffffffffffffffff168152602001908152602001600020600001546138ff90919063ffffffff16565b600160008473ffffffffffffffffffffffffffffffffffffffff1673ffffffffffffffffffffffffffffffffffffffff16815260200190815260200160002060000181905550611999816007546138ff90919063ffffffff16565b600781905550611a0d64e8d4a510006119ff600654600160008773ffffffffffffffffffffffffffffffffffffffff1673ffffffffffffffffffffffffffffffffffffffff1681526020019081526020016000206000015461382b90919063ffffffff16565b6138b590919063ffffffff16565b600160008473ffffffffffffffffffffffffffffffffffffffff1673ffffffffffffffffffffffffffffffffffffffff168152602001908152602001600020600201819055507fd327b35e36b3981157588978d60961f5c09dc2926008abb81dd77b1197a416ed83838360405180806020018473ffffffffffffffffffffffffffffffffffffffff1673ffffffffffffffffffffffffffffffffffffffff168152602001838152602001828103825285818151815260200191508051906020019080838360005b83811015611aef578082015181840152602081019050611ad4565b50505050905090810190601f168015611b1c5780820380516001836020036101000a031916815260200191505b5094505050505060405180910390a15b505050565b600281815481101515611b4057fe5b906000526020600020016000915054906101000a900473ffffffffffffffffffffffffffffffffffffffff1681565b6000804390506000600360009054906101000a900473ffffffffffffffffffffffffffffffffffffffff1673ffffffffffffffffffffffffffffffffffffffff166318160ddd6040518163ffffffff167c010000000000000000000000000000000000000000000000000000000002815260040160206040518083038186803b158015611bfb57600080fd5b505afa158015611c0f573d6000803e3d6000fd5b505050506040513d6020811015611c2557600080fd5b8101908080519060200190929190505050905060006005541415611c4e57600092505050611cb3565b600554821115611cad576000611c6960016005540184613384565b9050611ca3611c82600a836138b590919063ffffffff16565b611c9583856138ff90919063ffffffff16565b6138ff90919063ffffffff16565b9350505050611cb3565b80925050505b90565b600960009054906101000a900473ffffffffffffffffffffffffffffffffffffffff1681565b60085481565b600160003373ffffffffffffffffffffffffffffffffffffffff1673ffffffffffffffffffffffffffffffffffffffff16815260200190815260200160002060030160009054906101000a900460ff161515611da6576040517f08c379a000000000000000000000000000000000000000000000000000000000815260040180806020018281038252601a8152602001807f4163636f756e74206973206e6f7420612064656c656761746f7200000000000081525060200191505060405180910390fd5b60011515600960149054906101000a900460ff161515141515611e14576040517f08c379a0000000000000000000000000000000000000000000000000000000008152600401808060200182810382526021815260200180613fd36021913960400191505060405180910390fd5b60006005541415611e245761235b565b600554431115611e3757611e366139d3565b5b6000611efb600160003373ffffffffffffffffffffffffffffffffffffffff1673ffffffffffffffffffffffffffffffffffffffff16815260200190815260200160002060020154611eed64e8d4a51000611edf600654600160003373ffffffffffffffffffffffffffffffffffffffff1673ffffffffffffffffffffffffffffffffffffffff1681526020019081526020016000206000015461382b90919063ffffffff16565b6138b590919063ffffffff16565b61398990919063ffffffff16565b90506000811115611fa257611f5b81600160003373ffffffffffffffffffffffffffffffffffffffff1673ffffffffffffffffffffffffffffffffffffffff168152602001908152602001600020600101546138ff90919063ffffffff16565b600160003373ffffffffffffffffffffffffffffffffffffffff1673ffffffffffffffffffffffffffffffffffffffff168152602001908152602001600020600101819055505b600360009054906101000a900473ffffffffffffffffffffffffffffffffffffffff1673ffffffffffffffffffffffffffffffffffffffff1663a9059cbb33600160003373ffffffffffffffffffffffffffffffffffffffff1673ffffffffffffffffffffffffffffffffffffffff168152602001908152602001600020600101546040518363ffffffff167c0100000000000000000000000000000000000000000000000000000000028152600401808373ffffffffffffffffffffffffffffffffffffffff1673ffffffffffffffffffffffffffffffffffffffff16815260200182815260200192505050602060405180830381600087803b1580156120a957600080fd5b505af11580156120bd573d6000803e3d6000fd5b505050506040513d60208110156120d357600080fd5b81019080805190602001909291905050505061215364e8d4a51000612145600654600160003373ffffffffffffffffffffffffffffffffffffffff1673ffffffffffffffffffffffffffffffffffffffff1681526020019081526020016000206000015461382b90919063ffffffff16565b6138b590919063ffffffff16565b600160003373ffffffffffffffffffffffffffffffffffffffff1673ffffffffffffffffffffffffffffffffffffffff168152602001908152602001600020600201819055507fc77a29b12c61d8adea11ed5ba3c2ac0291d8aba4b6cec0dacb1a1d051eaee402600160003373ffffffffffffffffffffffffffffffffffffffff1673ffffffffffffffffffffffffffffffffffffffff16815260200190815260200160002060040133600160003373ffffffffffffffffffffffffffffffffffffffff1673ffffffffffffffffffffffffffffffffffffffff1681526020019081526020016000206001015460405180806020018473ffffffffffffffffffffffffffffffffffffffff1673ffffffffffffffffffffffffffffffffffffffff1681526020018381526020018281038252858181546001816001161561010002031660029004815260200191508054600181600116156101000203166002900480156123015780601f106122d657610100808354040283529160200191612301565b820191906000526020600020905b8154815290600101906020018083116122e457829003601f168201915b505094505050505060405180910390a16000600160003373ffffffffffffffffffffffffffffffffffffffff1673ffffffffffffffffffffffffffffffffffffffff16815260200190815260200160002060010181905550505b565b6000600280549050905090565b6000600754905090565b61237c6126dd565b15156123f0576040517f08c379a00000000000000000000000000000000000000000000000000000000081526004018080602001828103825260208152602001807f4f776e61626c653a2063616c6c6572206973206e6f7420746865206f776e657281525060200191505060405180910390fd5b600073ffffffffffffffffffffffffffffffffffffffff166000809054906101000a900473ffffffffffffffffffffffffffffffffffffffff1673ffffffffffffffffffffffffffffffffffffffff167f8be0079c531659141344cd1fd0a4f28419497f9722a3daafe3b4186f6b6457e060405160405180910390a360008060006101000a81548173ffffffffffffffffffffffffffffffffffffffff021916908373ffffffffffffffffffffffffffffffffffffffff160217905550565b60075481565b6124bd6126dd565b1515612531576040517f08c379a00000000000000000000000000000000000000000000000000000000081526004018080602001828103825260208152602001807f4f776e61626c653a2063616c6c6572206973206e6f7420746865206f776e657281525060200191505060405180910390fd5b60001515600960149054906101000a900460ff1615151415156125bc576040517f08c379a000000000000000000000000000000000000000000000000000000000815260040180806020018281038252601c8152602001807f436f6e747261637420616c726561647920696e697469616c697a65640000000081525060200191505060405180910390fd5b6001600960146101000a81548160ff021916908315150217905550565b60016020528060005260406000206000915090508060000154908060010154908060020154908060030160009054906101000a900460ff1690806004018054600181600116156101000203166002900480601f0160208091040260200160405190810160405280929190818152602001828054600181600116156101000203166002900480156126aa5780601f1061267f576101008083540402835291602001916126aa565b820191906000526020600020905b81548152906001019060200180831161268d57829003601f168201915b5050505050905085565b60008060009054906101000a900473ffffffffffffffffffffffffffffffffffffffff16905090565b60008060009054906101000a900473ffffffffffffffffffffffffffffffffffffffff1673ffffffffffffffffffffffffffffffffffffffff1661271f613c53565b73ffffffffffffffffffffffffffffffffffffffff1614905090565b60055481565b60008060008090505b6002805490508110156129b15783516001600060028481548110151561276c57fe5b9060005260206000200160009054906101000a900473ffffffffffffffffffffffffffffffffffffffff1673ffffffffffffffffffffffffffffffffffffffff1673ffffffffffffffffffffffffffffffffffffffff16815260200190815260200160002060040180546001816001161561010002031660029004905014156129a457836040516020018082805190602001908083835b6020831015156128285780518252602082019150602081019050602083039250612803565b6001836020036101000a038019825116818451168082178552505050505050905001915050604051602081830303815290604052805190602001206001600060028481548110151561287657fe5b9060005260206000200160009054906101000a900473ffffffffffffffffffffffffffffffffffffffff1673ffffffffffffffffffffffffffffffffffffffff1673ffffffffffffffffffffffffffffffffffffffff168152602001908152602001600020600401604051602001808280546001816001161561010002031660029004801561293c5780601f1061291a57610100808354040283529182019161293c565b820191906000526020600020905b815481529060010190602001808311612928575b50509150506040516020818303038152906040528051906020012014156129a357600160028281548110151561296e57fe5b9060005260206000200160009054906101000a900473ffffffffffffffffffffffffffffffffffffffff1692509250506129bd565b5b808060010191505061274a565b50600080809050915091505b915091565b6129ca6126dd565b1515612a3e576040517f08c379a00000000000000000000000000000000000000000000000000000000081526004018080602001828103825260208152602001807f4f776e61626c653a2063616c6c6572206973206e6f7420746865206f776e657281525060200191505060405180910390fd5b600073ffffffffffffffffffffffffffffffffffffffff168173ffffffffffffffffffffffffffffffffffffffff1614151515612ae3576040517f08c379a00000000000000000000000000000000000000000000000000000000081526004018080602001828103825260138152602001807f496e76616c69642064657620616464726573730000000000000000000000000081525060200191505060405180910390fd5b80600960006101000a81548173ffffffffffffffffffffffffffffffffffffffff021916908373ffffffffffffffffffffffffffffffffffffffff16021790555050565b612b2f6126dd565b1515612ba3576040517f08c379a00000000000000000000000000000000000000000000000000000000081526004018080602001828103825260208152602001807f4f776e61626c653a2063616c6c6572206973206e6f7420746865206f776e657281525060200191505060405180910390fd5b612bac81613c5b565b50565b6000600460009054906101000a900473ffffffffffffffffffffffffffffffffffffffff16905090565b600460009054906101000a900473ffffffffffffffffffffffffffffffffffffffff1673ffffffffffffffffffffffffffffffffffffffff163373ffffffffffffffffffffffffffffffffffffffff16141515612c9e576040517f08c379a00000000000000000000000000000000000000000000000000000000081526004018080602001828103825260188152602001807f43616c6c6572206973206e6f7420746865206d696e746572000000000000000081525060200191505060405180910390fd5b60011515600960149054906101000a900460ff161515141515612d0c576040517f08c379a0000000000000000000000000000000000000000000000000000000008152600401808060200182810382526021815260200180613fd36021913960400191505060405180910390fd5b6000811415612d1a5761321b565b6000600160008473ffffffffffffffffffffffffffffffffffffffff1673ffffffffffffffffffffffffffffffffffffffff168152602001908152602001600020600001541415612d6a5761321b565b612d726139d3565b6000612e36600160008573ffffffffffffffffffffffffffffffffffffffff1673ffffffffffffffffffffffffffffffffffffffff16815260200190815260200160002060020154612e2864e8d4a51000612e1a600654600160008a73ffffffffffffffffffffffffffffffffffffffff1673ffffffffffffffffffffffffffffffffffffffff1681526020019081526020016000206000015461382b90919063ffffffff16565b6138b590919063ffffffff16565b61398990919063ffffffff16565b90506000811115612edd57612e9681600160008673ffffffffffffffffffffffffffffffffffffffff1673ffffffffffffffffffffffffffffffffffffffff168152602001908152602001600020600101546138ff90919063ffffffff16565b600160008573ffffffffffffffffffffffffffffffffffffffff1673ffffffffffffffffffffffffffffffffffffffff168152602001908152602001600020600101819055505b6000600160008573ffffffffffffffffffffffffffffffffffffffff1673ffffffffffffffffffffffffffffffffffffffff1681526020019081526020016000206000015483101515612f7457600160008573ffffffffffffffffffffffffffffffffffffffff1673ffffffffffffffffffffffffffffffffffffffff168152602001908152602001600020600001549050612f78565b8290505b612fcd81600160008773ffffffffffffffffffffffffffffffffffffffff1673ffffffffffffffffffffffffffffffffffffffff1681526020019081526020016000206000015461398990919063ffffffff16565b600160008673ffffffffffffffffffffffffffffffffffffffff1673ffffffffffffffffffffffffffffffffffffffff168152602001908152602001600020600001819055506130288160075461398990919063ffffffff16565b60078190555061309c64e8d4a5100061308e600654600160008973ffffffffffffffffffffffffffffffffffffffff1673ffffffffffffffffffffffffffffffffffffffff1681526020019081526020016000206000015461382b90919063ffffffff16565b6138b590919063ffffffff16565b600160008673ffffffffffffffffffffffffffffffffffffffff1673ffffffffffffffffffffffffffffffffffffffff168152602001908152602001600020600201819055507f7a5e5c901f9da945e2028bd646eb1f6842dff416e862cfa502e0d3408635143a600160008673ffffffffffffffffffffffffffffffffffffffff1673ffffffffffffffffffffffffffffffffffffffff168152602001908152602001600020600401858360405180806020018473ffffffffffffffffffffffffffffffffffffffff1673ffffffffffffffffffffffffffffffffffffffff1681526020018381526020018281038252858181546001816001161561010002031660029004815260200191508054600181600116156101000203166002900480156132085780601f106131dd57610100808354040283529160200191613208565b820191906000526020600020905b8154815290600101906020018083116131eb57829003601f168201915b505094505050505060405180910390a150505b5050565b6132276126dd565b151561329b576040517f08c379a00000000000000000000000000000000000000000000000000000000081526004018080602001828103825260208152602001807f4f776e61626c653a2063616c6c6572206973206e6f7420746865206f776e657281525060200191505060405180910390fd5b600073ffffffffffffffffffffffffffffffffffffffff168173ffffffffffffffffffffffffffffffffffffffff1614151515613340576040517f08c379a00000000000000000000000000000000000000000000000000000000081526004018080602001828103825260168152602001807f496e76616c6964206d696e74657220616464726573730000000000000000000081525060200191505060405180910390fd5b80600460006101000a81548173ffffffffffffffffffffffffffffffffffffffff021916908373ffffffffffffffffffffffffffffffffffffffff16021790555050565b6000806301312d00905060006298968090506000624c4b4090506000622625a090506000621312d090508688111515156133bd57600080fd5b620f4240600854018711151561341157613405856133f760016133e98c8c61398990919063ffffffff16565b6138ff90919063ffffffff16565b61382b90919063ffffffff16565b95505050505050613825565b620f4240600854018811801561342e575062989680600854018711155b156134775761346b8461345d600161344f8c8c61398990919063ffffffff16565b6138ff90919063ffffffff16565b61382b90919063ffffffff16565b95505050505050613825565b62989680600854018811801561349557506301312d00600854018711155b156134de576134d2836134c460016134b68c8c61398990919063ffffffff16565b6138ff90919063ffffffff16565b61382b90919063ffffffff16565b95505050505050613825565b6301312d0060085401881180156134fd57506301c9c380600854018711155b156135465761353a8261352c600161351e8c8c61398990919063ffffffff16565b6138ff90919063ffffffff16565b61382b90919063ffffffff16565b95505050505050613825565b6301c9c3806008540188111561359a5761358e8161358060016135728c8c61398990919063ffffffff16565b6138ff90919063ffffffff16565b61382b90919063ffffffff16565b95505050505050613825565b620f42406008540188111580156135b85750620f4240600854018710155b15613645576136396135ec6135dd620f4240600854018a61398990919063ffffffff16565b8661382b90919063ffffffff16565b61362b61361c600161360e8d620f42406008540161398990919063ffffffff16565b6138ff90919063ffffffff16565b8861382b90919063ffffffff16565b6138ff90919063ffffffff16565b95505050505050613825565b62989680600854018811158015613663575062989680600854018710155b156136f0576136e461369761368862989680600854018a61398990919063ffffffff16565b8561382b90919063ffffffff16565b6136d66136c760016136b98d629896806008540161398990919063ffffffff16565b6138ff90919063ffffffff16565b8761382b90919063ffffffff16565b6138ff90919063ffffffff16565b95505050505050613825565b6301312d0060085401881115801561371057506301312d00600854018710155b1561379f576137936137456137366301312d00600854018a61398990919063ffffffff16565b8461382b90919063ffffffff16565b61378561377660016137688d6301312d006008540161398990919063ffffffff16565b6138ff90919063ffffffff16565b8661382b90919063ffffffff16565b6138ff90919063ffffffff16565b95505050505050613825565b61381d6137cf6137c06301c9c380600854018a61398990919063ffffffff16565b8361382b90919063ffffffff16565b61380f61380060016137f28d6301c9c3806008540161398990919063ffffffff16565b6138ff90919063ffffffff16565b8561382b90919063ffffffff16565b6138ff90919063ffffffff16565b955050505050505b92915050565b60008083141561383e57600090506138af565b6000828402905082848281151561385157fe5b041415156138aa576040517f08c379a000000000000000000000000000000000000000000000000000000000815260040180806020018281038252602181526020018061401a6021913960400191505060405180910390fd5b809150505b92915050565b60006138f783836040805190810160405280601a81526020017f536166654d6174683a206469766973696f6e206279207a65726f000000000000815250613da1565b905092915050565b600080828401905083811015151561397f576040517f08c379a000000000000000000000000000000000000000000000000000000000815260040180806020018281038252601b8152602001807f536166654d6174683a206164646974696f6e206f766572666c6f77000000000081525060200191505060405180910390fd5b8091505092915050565b60006139cb83836040805190810160405280601e81526020017f536166654d6174683a207375627472616374696f6e206f766572666c6f770000815250613e6b565b905092915050565b60008090506000439050600060055414156139ef575050613c51565b60055481111515613a01575050613c51565b613a1060016005540182613384565b9150600360009054906101000a900473ffffffffffffffffffffffffffffffffffffffff1673ffffffffffffffffffffffffffffffffffffffff166340c10f19600960009054906101000a900473ffffffffffffffffffffffffffffffffffffffff16613a87600a866138b590919063ffffffff16565b6040518363ffffffff167c0100000000000000000000000000000000000000000000000000000000028152600401808373ffffffffffffffffffffffffffffffffffffffff1673ffffffffffffffffffffffffffffffffffffffff16815260200182815260200192505050600060405180830381600087803b158015613b0c57600080fd5b505af1158015613b20573d6000803e3d6000fd5b50505050600360009054906101000a900473ffffffffffffffffffffffffffffffffffffffff1673ffffffffffffffffffffffffffffffffffffffff166340c10f1930846040518363ffffffff167c0100000000000000000000000000000000000000000000000000000000028152600401808373ffffffffffffffffffffffffffffffffffffffff1673ffffffffffffffffffffffffffffffffffffffff16815260200182815260200192505050600060405180830381600087803b158015613be957600080fd5b505af1158015613bfd573d6000803e3d6000fd5b50505050613c41613c30600754613c2264e8d4a510008661382b90919063ffffffff16565b6138b590919063ffffffff16565b6006546138ff90919063ffffffff16565b6006819055504360058190555050505b565b600033905090565b600073ffffffffffffffffffffffffffffffffffffffff168173ffffffffffffffffffffffffffffffffffffffff1614151515613ce3576040517f08c379a0000000000000000000000000000000000000000000000000000000008152600401808060200182810382526026815260200180613ff46026913960400191505060405180910390fd5b8073ffffffffffffffffffffffffffffffffffffffff166000809054906101000a900473ffffffffffffffffffffffffffffffffffffffff1673ffffffffffffffffffffffffffffffffffffffff167f8be0079c531659141344cd1fd0a4f28419497f9722a3daafe3b4186f6b6457e060405160405180910390a3806000806101000a81548173ffffffffffffffffffffffffffffffffffffffff021916908373ffffffffffffffffffffffffffffffffffffffff16021790555050565b600080831182901515613e4f576040517f08c379a00000000000000000000000000000000000000000000000000000000081526004018080602001828103825283818151815260200191508051906020019080838360005b83811015613e14578082015181840152602081019050613df9565b50505050905090810190601f168015613e415780820380516001836020036101000a031916815260200191505b509250505060405180910390fd5b5060008385811515613e5d57fe5b049050809150509392505050565b60008383111582901515613f1a576040517f08c379a00000000000000000000000000000000000000000000000000000000081526004018080602001828103825283818151815260200191508051906020019080838360005b83811015613edf578082015181840152602081019050613ec4565b50505050905090810190601f168015613f0c5780820380516001836020036101000a031916815260200191505b509250505060405180910390fd5b5060008385039050809150509392505050565b828054600181600116156101000203166002900490600052602060002090601f016020900481019282601f10613f6e57805160ff1916838001178555613f9c565b82800160010185558215613f9c579182015b82811115613f9b578251825591602001919060010190613f80565b5b509050613fa99190613fad565b5090565b613fcf91905b80821115613fcb576000816000905550600101613fb3565b5090565b9056fe436f6e747261637420686173206e6f74206265656e20696e697469616c697a65644f776e61626c653a206e6577206f776e657220697320746865207a65726f2061646472657373536166654d6174683a206d756c7469706c69636174696f6e206f766572666c6f77a165627a7a723058206282ca9eb35666da3af7c07636b2c067ba9af4e85f5ec9ec6c4e7bf73e62df030029",
  "source": "pragma solidity ^0.5.0;\n\nimport \"./SafeMath.sol\";\nimport \"./Ownable.sol\";\n\ninterface PnutsMining  {\n    function transfer(address _to, uint256 _value) external returns (bool success);\n    function totalSupply() external view returns (uint256);\n    function mint(address _to, uint256 _amount) external;\n}\n\ncontract PeanutsPoolV2 is Ownable {\n    using SafeMath for uint256;\n\n    struct Delegator {\n        uint256 amount;             // reserved VEST\n        uint256 availablePeanuts;   // minted peanuts for user\n        uint256 debtRewards;        // rewards debt \n        bool hasDeposited;          // set true when first time deposit\n        string steemAccount;        // related steem acount\n    }\n\n    mapping(address => Delegator) public delegators;\n    address[] public delegatorList;\n\n    PnutsMining Pnuts;\n    address public minter;\n    uint256 public lastRewardBlock;\n    uint256 public shareAcc;\n    uint256 public totalDepositedSP;\n    uint256 public genesisBlock;\n    address public devAddress;\n    bool    public initialized;\n    \n    event Deposit(string steemAccount, address delegator, uint256 amount);\n    event Withdraw(string steemAccount, address delegator, uint256 amount);\n    event WithdrawPeanuts(string steemAccount, address delegator, uint256 amount);\n\n    modifier onlyDelegator() {\n        require(delegators[msg.sender].hasDeposited, \"Account is not a delegator\");\n        _;\n    }\n\n    modifier onlyMinter() {\n        require(msg.sender == minter, \"Caller is not the minter\");\n        _;\n    }\n\n    constructor (address _punts) public {\n        Pnuts = PnutsMining(_punts);\n        totalDepositedSP = 0;\n        lastRewardBlock = 25293265;\n        shareAcc = 0;\n        genesisBlock = 24296809;\n        devAddress = msg.sender;\n        initialized = false;\n    }\n\n    // Only minter can call this method\n    function deposit(string memory steemAccount, address delegator, uint256 _amount)\n        public\n        onlyMinter\n    {\n        require(initialized == true, \"Contract has not been initialized\");\n\n        if (_amount == 0) return;\n\n        // lastRewardBlock == 0 means there is not delegator exist. When first delegator come,\n        // we set lastRewardBlock as current block number, then our game starts!\n        if (lastRewardBlock == 0) {\n            lastRewardBlock = block.number;\n        }\n\n        // Add to delegator list if account hasn't deposited before\n        if(!delegators[delegator].hasDeposited) {\n            delegators[delegator].hasDeposited = true;\n            delegators[delegator].availablePeanuts = 0;\n            delegators[delegator].steemAccount = steemAccount;\n            delegators[delegator].amount = 0;\n            delegators[delegator].debtRewards = 0;\n            delegatorList.push(delegator);\n        }\n\n        _updateRewardInfo();\n\n        if (delegators[delegator].amount > 0) {\n            uint256 pending = delegators[delegator].amount.mul(shareAcc).div(1e12).sub(delegators[delegator].debtRewards);\n            if(pending > 0) {\n                delegators[delegator].availablePeanuts = delegators[delegator].availablePeanuts.add(pending);\n            }\n        }\n\n        delegators[delegator].amount = delegators[delegator].amount.add(_amount);\n        totalDepositedSP = totalDepositedSP.add(_amount);\n\n        delegators[delegator].debtRewards = delegators[delegator].amount.mul(shareAcc).div(1e12);\n\n        emit Deposit(steemAccount, delegator, _amount);\n    }\n\n    // Only minter can call this method\n    function withdraw(address delegator, uint256 _amount) \n        public\n        onlyMinter\n    {\n        require(initialized == true, \"Contract has not been initialized\");\n\n        if (_amount == 0) return;\n\n        if (delegators[delegator].amount == 0) return;\n\n        _updateRewardInfo();\n\n        uint256 pending = delegators[delegator].amount.mul(shareAcc).div(1e12).sub(delegators[delegator].debtRewards);\n        if(pending > 0) {\n            delegators[delegator].availablePeanuts = delegators[delegator].availablePeanuts.add(pending);\n        }\n        \n        uint256 withdrawAmount;\n        if (_amount >= delegators[delegator].amount)\n            withdrawAmount = delegators[delegator].amount;\n        else\n            withdrawAmount = _amount;\n\n        delegators[delegator].amount = delegators[delegator].amount.sub(withdrawAmount);\n        totalDepositedSP = totalDepositedSP.sub(withdrawAmount);\n\n        delegators[delegator].debtRewards = delegators[delegator].amount.mul(shareAcc).div(1e12);\n\n        emit Withdraw(delegators[delegator].steemAccount, delegator, withdrawAmount);\n    }\n\n    function update(string memory steemAccount, address delegator, uint256 _amount)\n        public\n        onlyMinter\n    {\n        require(initialized == true, \"Contract has not been initialized\");\n\n        uint256 prevAmount = delegators[delegator].amount;\n\n        if (prevAmount < _amount) { // deposit\n            deposit(steemAccount, delegator, _amount.sub(prevAmount));\n        } else {   // withdraw\n            withdraw(delegator, prevAmount.sub(_amount));\n        }\n    }\n\n    \n    function withdrawPeanuts() \n        public\n        onlyDelegator\n    {\n        require(initialized == true, \"Contract has not been initialized\");\n\n        // game has not started\n        if (lastRewardBlock == 0) return;\n\n        // There are new blocks created after last updating, so append new rewards before withdraw\n        if(block.number > lastRewardBlock) {\n            _updateRewardInfo();\n        }\n\n        uint256 pending = delegators[msg.sender].amount.mul(shareAcc).div(1e12).sub(delegators[msg.sender].debtRewards);\n        if(pending > 0) {\n            delegators[msg.sender].availablePeanuts = delegators[msg.sender].availablePeanuts.add(pending);\n        }\n\n        Pnuts.transfer(msg.sender, delegators[msg.sender].availablePeanuts);\n\n        delegators[msg.sender].debtRewards = delegators[msg.sender].amount.mul(shareAcc).div(1e12);\n\n        emit WithdrawPeanuts(delegators[msg.sender].steemAccount, msg.sender, delegators[msg.sender].availablePeanuts);\n\n        delegators[msg.sender].availablePeanuts = 0;\n    }\n\n    // calculate reward between blocks [from, to]\n    function _calculateReward(uint256 from, uint256 to) internal view returns (uint256) {\n        uint256 BASE_20  = 20 * 1e6;\n        uint256 BASE_10  = 10 * 1e6;\n        uint256 BASE_5  = 5 * 1e6;\n        uint256 BASE_2  = 25 * 1e5;\n        uint256 BASE_1  = 125 * 1e4;\n\n        require(from <= to);\n        if (to <= (genesisBlock + 1000000)) {\n            return to.sub(from).add(1).mul(BASE_20);\n        } else if (from > (genesisBlock + 1000000) && to <= (genesisBlock + 10000000)) {\n            return to.sub(from).add(1).mul(BASE_10);\n        } else if (from > (genesisBlock + 10000000) && to <= (genesisBlock + 20000000)) {\n            return to.sub(from).add(1).mul(BASE_5);\n        } else if (from > (genesisBlock + 20000000) && to <= (genesisBlock + 30000000)) {\n            return to.sub(from).add(1).mul(BASE_2);\n        } else if(from > (genesisBlock + 30000000)) {\n            return to.sub(from).add(1).mul(BASE_1);\n        } else {    // reward maybe different under those blocks, so calculate it one by one\n            if (from <= (genesisBlock + 1000000) && to >= (genesisBlock + 1000000)) {\n                return BASE_20.mul((genesisBlock + 1000000).sub(from).add(1)).add(BASE_10.mul(to.sub((genesisBlock + 1000000))));\n            } else if (from <= (genesisBlock + 10000000) && to >= (genesisBlock + 10000000)) {\n                return BASE_10.mul((genesisBlock + 10000000).sub(from).add(1)).add(BASE_5.mul(to.sub((genesisBlock + 10000000))));\n            } else if (from <= (genesisBlock + 20000000) && to >= (genesisBlock + 20000000)) {\n                return BASE_5.mul((genesisBlock + 20000000).sub(from).add(1)).add(BASE_2.mul(to.sub((genesisBlock + 20000000))));\n            } else {\n                return BASE_2.mul((genesisBlock + 30000000).sub(from).add(1)).add(BASE_1.mul(to.sub((genesisBlock + 30000000))));\n            }\n        }\n    }\n\n    function _updateRewardInfo() internal\n    {\n        uint256 peanutsReadyToMinted = 0;\n        uint256 currentBlock = block.number;\n\n        // game has not started\n        if (lastRewardBlock == 0) return;\n\n        // make sure one block can only be calculated one time.\n        // think about this situation that more than one deposit/withdraw/withdrowPeanuts transactions \n        // were exist in the same block, delegator.amout should be updated after _updateRewardInfo being \n        // invoked and it's award peanuts should be calculated next time\n        if (currentBlock <= lastRewardBlock) return;\n\n        // calculate reward peanuts under current blocks\n        peanutsReadyToMinted = _calculateReward(lastRewardBlock + 1, currentBlock);\n\n        Pnuts.mint(devAddress, peanutsReadyToMinted.div(10));\n        Pnuts.mint(address(this), peanutsReadyToMinted);\n\n        shareAcc = shareAcc.add(peanutsReadyToMinted.mul(1e12).div(totalDepositedSP));\n\n        lastRewardBlock = block.number;\n    }\n\n    \n    // pending peanuts >= delegator.availablePeanuts\n    function getPendingPeanuts() public view returns (uint256) {\n        uint256 currentBlock = block.number;\n        // game has not started\n        if (lastRewardBlock == 0) return 0;\n\n        // our lastRewardBlock isn't up to date, as the result, the availablePeanuts isn't\n        // the right amount that delegator can award\n        if (currentBlock > lastRewardBlock) {\n            uint256 _shareAcc = shareAcc;\n            uint256 unmintedPeanuts = _calculateReward(lastRewardBlock + 1, currentBlock);\n            _shareAcc = _shareAcc.add(unmintedPeanuts.mul(1e12).div(totalDepositedSP));\n            uint256 pending = delegators[msg.sender].amount.mul(_shareAcc).div(1e12).sub(delegators[msg.sender].debtRewards);\n            return delegators[msg.sender].availablePeanuts.add(pending);\n        } else {\n            return delegators[msg.sender].availablePeanuts;\n        }\n    }\n\n    // Totalpending peanuts >= _totalSupply\n    function getTotalPendingPeanuts() public view returns (uint256) {\n        uint256 currentBlock = block.number;\n        uint256 totalSupply = Pnuts.totalSupply();\n\n        // game has not started\n        if (lastRewardBlock == 0) return 0;\n\n        // our lastRewardBlock isn't up to date, as the result, the availablePeanuts isn't\n        // the right amount that delegator can award\n        if (currentBlock > lastRewardBlock) {\n            uint256 unmintedPeanuts = _calculateReward(lastRewardBlock + 1, currentBlock);\n            return totalSupply.add(unmintedPeanuts).add(unmintedPeanuts.div(10));\n        } else {\n            return totalSupply;\n        }\n    }\n\n    function getRewardsPerBlock() public view returns (uint256) {\n        uint256 currentBlock = block.number;\n        uint256 BASE_20  = 20 * 1e6;\n        uint256 BASE_10  = 10 * 1e6;\n        uint256 BASE_5  = 5 * 1e6;\n        uint256 BASE_2  = 25 * 1e5;\n        uint256 BASE_1  = 125 * 1e4;\n\n        if (currentBlock <= (genesisBlock + 1000000)) {\n            return BASE_20;\n        } else if (currentBlock > (genesisBlock + 1000000) && currentBlock <= (genesisBlock + 10000000)) {\n            return BASE_10;\n        } else if (currentBlock > (genesisBlock + 10000000) && currentBlock <= (genesisBlock + 20000000)) {\n            return BASE_5;\n        } else if (currentBlock > (genesisBlock + 20000000) && currentBlock <= (genesisBlock + 30000000)) {\n            return BASE_2;\n        } else {\n            return BASE_1;\n        } \n    }\n\n    // return VEST as unit\n    function getTotalDepositedSP() public view returns (uint256) {\n        return totalDepositedSP;\n    }\n\n    //Check for illegal operation by steemAccount\n    function checkSteemAccount(string memory steemAccount) public view returns(bool, address){\n        for (uint i = 0; i < delegatorList.length; i++) {\n            if (bytes(delegators[delegatorList[i]].steemAccount).length == bytes(steemAccount).length) {\n                if(keccak256(abi.encodePacked(delegators[delegatorList[i]].steemAccount)) == keccak256(abi.encodePacked(steemAccount))){\n                    return(true, delegatorList[i]);\n                }\n            }\n        }\n        return (false, address(0));\n    }\n\n    function getDelegatorListLength() public view returns(uint256){\n        return delegatorList.length;\n    }\n\n    function getMinter() public view returns (address) {\n        return minter;\n    }\n\n    function setMinter(address _minter) \n        public\n        onlyOwner\n    {\n        require(_minter != address(0), \"Invalid minter address\");\n        minter = _minter;\n    }\n\n    function setDevAddress(address dev) \n        public\n        onlyOwner\n    {\n        require(dev != address(0), \"Invalid dev address\");\n        devAddress = dev;\n    }\n\n    function setEndowed(string memory steemAccount, address delegator, uint256 _amount, uint256 _endowedAmount) \n        public \n        onlyOwner \n    {\n        require(initialized == false, \"Contract already initialized\");\n        delegators[delegator].hasDeposited = true;\n        delegators[delegator].steemAccount = steemAccount;\n        delegators[delegator].amount = _amount;\n        delegators[delegator].debtRewards = 0;\n        delegators[delegator].availablePeanuts = 0;\n        Pnuts.mint(delegator, _endowedAmount);\n        delegatorList.push(delegator);\n\n        totalDepositedSP = totalDepositedSP.add(_amount);\n    }\n\n    function setInitialized() \n        public \n        onlyOwner \n    {\n        require(initialized == false, \"Contract already initialized\");\n        initialized = true;\n    }\n}",
  "sourcePath": "D:/dapps/nutbox-contract/contracts/PeanutsPoolV2.sol",
  "compiler": {
    "name": "solc",
    "version": "0.5.4+commit.d15a3125.mod.Emscripten.clang"
  },
  "schemaVersion": "2.0.1",
  "updatedAt": "2020-11-26T23:52:55.424Z"
}