{
  "contractName": "TspLpPool",
  "abi": [
    {
      "constant": true,
      "inputs": [],
      "name": "totalDepositedTSPLP",
      "outputs": [
        {
          "name": "",
          "type": "uint256"
        }
      ],
      "payable": false,
      "stateMutability": "view",
      "type": "function"
    },
    {
      "constant": true,
      "inputs": [],
      "name": "LPAddress",
      "outputs": [
        {
          "name": "",
          "type": "address"
        }
      ],
      "payable": false,
      "stateMutability": "view",
      "type": "function"
    },
    {
      "constant": true,
      "inputs": [],
      "name": "daemonAddress",
      "outputs": [
        {
          "name": "",
          "type": "address"
        }
      ],
      "payable": false,
      "stateMutability": "view",
      "type": "function"
    },
    {
      "constant": true,
      "inputs": [],
      "name": "shareAcc",
      "outputs": [
        {
          "name": "",
          "type": "uint256"
        }
      ],
      "payable": false,
      "stateMutability": "view",
      "type": "function"
    },
    {
      "constant": true,
      "inputs": [],
      "name": "devAddress",
      "outputs": [
        {
          "name": "",
          "type": "address"
        }
      ],
      "payable": false,
      "stateMutability": "view",
      "type": "function"
    },
    {
      "constant": true,
      "inputs": [],
      "name": "genesisBlock",
      "outputs": [
        {
          "name": "",
          "type": "uint256"
        }
      ],
      "payable": false,
      "stateMutability": "view",
      "type": "function"
    },
    {
      "constant": true,
      "inputs": [
        {
          "name": "",
          "type": "uint256"
        }
      ],
      "name": "delegatorsList",
      "outputs": [
        {
          "name": "",
          "type": "address"
        }
      ],
      "payable": false,
      "stateMutability": "view",
      "type": "function"
    },
    {
      "constant": false,
      "inputs": [],
      "name": "renounceOwnership",
      "outputs": [],
      "payable": false,
      "stateMutability": "nonpayable",
      "type": "function"
    },
    {
      "constant": true,
      "inputs": [
        {
          "name": "",
          "type": "address"
        }
      ],
      "name": "delegators",
      "outputs": [
        {
          "name": "tspLPAmount",
          "type": "uint256"
        },
        {
          "name": "availablePeanuts",
          "type": "uint256"
        },
        {
          "name": "debtRewards",
          "type": "uint256"
        },
        {
          "name": "hasDeposited",
          "type": "bool"
        }
      ],
      "payable": false,
      "stateMutability": "view",
      "type": "function"
    },
    {
      "constant": true,
      "inputs": [],
      "name": "owner",
      "outputs": [
        {
          "name": "",
          "type": "address"
        }
      ],
      "payable": false,
      "stateMutability": "view",
      "type": "function"
    },
    {
      "constant": true,
      "inputs": [],
      "name": "isOwner",
      "outputs": [
        {
          "name": "",
          "type": "bool"
        }
      ],
      "payable": false,
      "stateMutability": "view",
      "type": "function"
    },
    {
      "constant": true,
      "inputs": [],
      "name": "lastRewardBlock",
      "outputs": [
        {
          "name": "",
          "type": "uint256"
        }
      ],
      "payable": false,
      "stateMutability": "view",
      "type": "function"
    },
    {
      "constant": true,
      "inputs": [],
      "name": "TSPLPToVests",
      "outputs": [
        {
          "name": "",
          "type": "uint256"
        }
      ],
      "payable": false,
      "stateMutability": "view",
      "type": "function"
    },
    {
      "constant": false,
      "inputs": [
        {
          "name": "newOwner",
          "type": "address"
        }
      ],
      "name": "transferOwnership",
      "outputs": [],
      "payable": false,
      "stateMutability": "nonpayable",
      "type": "function"
    },
    {
      "inputs": [
        {
          "name": "_pnuts",
          "type": "address"
        },
        {
          "name": "_pnutPool",
          "type": "address"
        },
        {
          "name": "_tsp",
          "type": "address"
        },
        {
          "name": "_tsplp",
          "type": "address"
        },
        {
          "name": "_LPAddress",
          "type": "address"
        },
        {
          "name": "_tspToVests",
          "type": "uint256"
        }
      ],
      "payable": false,
      "stateMutability": "nonpayable",
      "type": "constructor"
    },
    {
      "anonymous": false,
      "inputs": [
        {
          "indexed": false,
          "name": "delegator",
          "type": "address"
        },
        {
          "indexed": false,
          "name": "amount",
          "type": "uint256"
        }
      ],
      "name": "DepositTSP",
      "type": "event"
    },
    {
      "anonymous": false,
      "inputs": [
        {
          "indexed": false,
          "name": "delegator",
          "type": "address"
        },
        {
          "indexed": false,
          "name": "amount",
          "type": "uint256"
        }
      ],
      "name": "WithdrawTSP",
      "type": "event"
    },
    {
      "anonymous": false,
      "inputs": [
        {
          "indexed": false,
          "name": "delegator",
          "type": "address"
        },
        {
          "indexed": false,
          "name": "amount",
          "type": "uint256"
        }
      ],
      "name": "WithdrawPeanuts",
      "type": "event"
    },
    {
      "anonymous": false,
      "inputs": [
        {
          "indexed": false,
          "name": "vestsToSP",
          "type": "uint256"
        }
      ],
      "name": "UpdateData",
      "type": "event"
    },
    {
      "anonymous": false,
      "inputs": [],
      "name": "InsufficientBalance",
      "type": "event"
    },
    {
      "anonymous": false,
      "inputs": [
        {
          "indexed": true,
          "name": "previousOwner",
          "type": "address"
        },
        {
          "indexed": true,
          "name": "newOwner",
          "type": "address"
        }
      ],
      "name": "OwnershipTransferred",
      "type": "event"
    },
    {
      "constant": false,
      "inputs": [
        {
          "name": "_amount",
          "type": "uint256"
        }
      ],
      "name": "deposit",
      "outputs": [],
      "payable": false,
      "stateMutability": "nonpayable",
      "type": "function"
    },
    {
      "constant": false,
      "inputs": [
        {
          "name": "_amount",
          "type": "uint256"
        }
      ],
      "name": "withdraw",
      "outputs": [],
      "payable": false,
      "stateMutability": "nonpayable",
      "type": "function"
    },
    {
      "constant": false,
      "inputs": [],
      "name": "withdrawPeanuts",
      "outputs": [],
      "payable": false,
      "stateMutability": "nonpayable",
      "type": "function"
    },
    {
      "constant": false,
      "inputs": [
        {
          "name": "_tspToVests",
          "type": "uint256"
        }
      ],
      "name": "updateDataBy",
      "outputs": [],
      "payable": false,
      "stateMutability": "nonpayable",
      "type": "function"
    },
    {
      "constant": false,
      "inputs": [
        {
          "name": "_amount",
          "type": "uint256"
        }
      ],
      "name": "withdrawBanlanceOfPeanuts",
      "outputs": [],
      "payable": false,
      "stateMutability": "nonpayable",
      "type": "function"
    },
    {
      "constant": true,
      "inputs": [],
      "name": "getPendingPeanuts",
      "outputs": [
        {
          "name": "",
          "type": "uint256"
        }
      ],
      "payable": false,
      "stateMutability": "view",
      "type": "function"
    },
    {
      "constant": true,
      "inputs": [],
      "name": "getTotalDepositedTSPLP",
      "outputs": [
        {
          "name": "",
          "type": "uint256"
        }
      ],
      "payable": false,
      "stateMutability": "view",
      "type": "function"
    },
    {
      "constant": true,
      "inputs": [],
      "name": "getDelegatorListLength",
      "outputs": [
        {
          "name": "",
          "type": "uint256"
        }
      ],
      "payable": false,
      "stateMutability": "view",
      "type": "function"
    },
    {
      "constant": false,
      "inputs": [
        {
          "name": "daemon",
          "type": "address"
        }
      ],
      "name": "setDaemonAddress",
      "outputs": [],
      "payable": false,
      "stateMutability": "nonpayable",
      "type": "function"
    },
    {
      "constant": false,
      "inputs": [
        {
          "name": "dev",
          "type": "address"
        }
      ],
      "name": "setDevAddress",
      "outputs": [],
      "payable": false,
      "stateMutability": "nonpayable",
      "type": "function"
    },
    {
      "constant": true,
      "inputs": [],
      "name": "getBalanceOfPeanuts",
      "outputs": [
        {
          "name": "",
          "type": "uint256"
        }
      ],
      "payable": false,
      "stateMutability": "view",
      "type": "function"
    }
  ],
  "bytecode": "0x60806040523480156200001157600080fd5b50d380156200001f57600080fd5b50d280156200002d57600080fd5b5060405160c0806200441d833981018060405260c08110156200004f57600080fd5b81019080805190602001909291908051906020019092919080519060200190929190805190602001909291908051906020019092919080519060200190929190505050620000ab620003b8640100000000026401000000009004565b6000806101000a81548173ffffffffffffffffffffffffffffffffffffffff021916908373ffffffffffffffffffffffffffffffffffffffff1602179055506000809054906101000a900473ffffffffffffffffffffffffffffffffffffffff1673ffffffffffffffffffffffffffffffffffffffff16600073ffffffffffffffffffffffffffffffffffffffff167f8be0079c531659141344cd1fd0a4f28419497f9722a3daafe3b4186f6b6457e060405160405180910390a385600b60006101000a81548173ffffffffffffffffffffffffffffffffffffffff021916908373ffffffffffffffffffffffffffffffffffffffff16021790555082600c60006101000a81548173ffffffffffffffffffffffffffffffffffffffff021916908373ffffffffffffffffffffffffffffffffffffffff16021790555083600d60006101000a81548173ffffffffffffffffffffffffffffffffffffffff021916908373ffffffffffffffffffffffffffffffffffffffff16021790555081600a60006101000a81548173ffffffffffffffffffffffffffffffffffffffff021916908373ffffffffffffffffffffffffffffffffffffffff16021790555084600e60006101000a81548173ffffffffffffffffffffffffffffffffffffffff021916908373ffffffffffffffffffffffffffffffffffffffff16021790555060006003819055506000600481905550600e60009054906101000a900473ffffffffffffffffffffffffffffffffffffffff1673ffffffffffffffffffffffffffffffffffffffff16634cdc9c636040518163ffffffff167c010000000000000000000000000000000000000000000000000000000002815260040160206040518083038186803b1580156200034057600080fd5b505afa15801562000355573d6000803e3d6000fd5b505050506040513d60208110156200036c57600080fd5b810190808051906020019092919050505060068190555043600781905550620003a481620003c0640100000000026401000000009004565b6000600381905550505050505050620007d5565b600033905090565b6000600d60009054906101000a900473ffffffffffffffffffffffffffffffffffffffff1673ffffffffffffffffffffffffffffffffffffffff166370a08231600a60009054906101000a900473ffffffffffffffffffffffffffffffffffffffff166040518263ffffffff167c0100000000000000000000000000000000000000000000000000000000028152600401808273ffffffffffffffffffffffffffffffffffffffff1673ffffffffffffffffffffffffffffffffffffffff16815260200191505060206040518083038186803b158015620004a057600080fd5b505afa158015620004b5573d6000803e3d6000fd5b505050506040513d6020811015620004cc57600080fd5b810190808051906020019092919050505090506000600c60009054906101000a900473ffffffffffffffffffffffffffffffffffffffff1673ffffffffffffffffffffffffffffffffffffffff166318160ddd6040518163ffffffff167c010000000000000000000000000000000000000000000000000000000002815260040160206040518083038186803b1580156200056657600080fd5b505afa1580156200057b573d6000803e3d6000fd5b505050506040513d60208110156200059257600080fd5b810190808051906020019092919050505090506200061183620005f483620005d764e8d4a51000876200061c640100000000026200302f179091906401000000009004565b620006ab64010000000002620030b9179091906401000000009004565b6200061c640100000000026200302f179091906401000000009004565b600581905550505050565b600080831415620006315760009050620006a5565b600082840290508284828115156200064557fe5b04141515620006a0576040517f08c379a0000000000000000000000000000000000000000000000000000000008152600401808060200182810382526021815260200180620043fc6021913960400191505060405180910390fd5b809150505b92915050565b6000620006fe83836040805190810160405280601a81526020017f536166654d6174683a206469766973696f6e206279207a65726f00000000000081525062000706640100000000026401000000009004565b905092915050565b600080831182901515620007b8576040517f08c379a00000000000000000000000000000000000000000000000000000000081526004018080602001828103825283818151815260200191508051906020019080838360005b838110156200077c5780820151818401526020810190506200075f565b50505050905090810190601f168015620007aa5780820380516001836020036101000a031916815260200191505b509250505060405180910390fd5b5060008385811515620007c757fe5b049050809150509392505050565b613c1780620007e56000396000f3fe608060405234801561001057600080fd5b50d3801561001d57600080fd5b50d2801561002a57600080fd5b50600436106101aa576000357c01000000000000000000000000000000000000000000000000000000009004806352e270e2116101155780638f32d59b116100ce578063b6b55f25116100a8578063b6b55f25146105aa578063d0d41fe1146105d8578063eb3ae6821461061c578063f2fde38b1461063a576101aa565b80638f32d59b146105265780639eae861b14610548578063a9f8d1811461058c576101aa565b806352e270e2146103a75780635645b080146104155780635a44066b14610433578063715018a6146104615780638d23fc611461046b5780638da5cb5b146104dc576101aa565b806336d9efa71161016757806336d9efa7146102cb5780633ad10ef6146102e957806342e3b0d2146103335780634cdc9c631461036157806350400e321461037f57806352983a8f1461039d576101aa565b80630370607c146101af578063051ba87f146101cd578063120f2eda146101eb5780631d0ef75514610235578063245357a31461027f5780632e1a7d4d1461029d575b600080fd5b6101b761067e565b6040518082815260200191505060405180910390f35b6101d56107ab565b6040518082815260200191505060405180910390f35b6101f36107b1565b604051808273ffffffffffffffffffffffffffffffffffffffff1673ffffffffffffffffffffffffffffffffffffffff16815260200191505060405180910390f35b61023d6107d7565b604051808273ffffffffffffffffffffffffffffffffffffffff1673ffffffffffffffffffffffffffffffffffffffff16815260200191505060405180910390f35b6102876107fd565b6040518082815260200191505060405180910390f35b6102c9600480360360208110156102b357600080fd5b8101908080359060200190929190505050610803565b005b6102d36113a3565b6040518082815260200191505060405180910390f35b6102f161151c565b604051808273ffffffffffffffffffffffffffffffffffffffff1673ffffffffffffffffffffffffffffffffffffffff16815260200191505060405180910390f35b61035f6004803603602081101561034957600080fd5b8101908080359060200190929190505050611542565b005b610369611851565b6040518082815260200191505060405180910390f35b610387611857565b6040518082815260200191505060405180910390f35b6103a5611861565b005b6103d3600480360360208110156103bd57600080fd5b8101908080359060200190929190505050611fb2565b604051808273ffffffffffffffffffffffffffffffffffffffff1673ffffffffffffffffffffffffffffffffffffffff16815260200191505060405180910390f35b61041d611ff0565b6040518082815260200191505060405180910390f35b61045f6004803603602081101561044957600080fd5b8101908080359060200190929190505050611ffd565b005b61046961211a565b005b6104ad6004803603602081101561048157600080fd5b81019080803573ffffffffffffffffffffffffffffffffffffffff169060200190929190505050612255565b604051808581526020018481526020018381526020018215151515815260200194505050505060405180910390f35b6104e4612292565b604051808273ffffffffffffffffffffffffffffffffffffffff1673ffffffffffffffffffffffffffffffffffffffff16815260200191505060405180910390f35b61052e6122bb565b604051808215151515815260200191505060405180910390f35b61058a6004803603602081101561055e57600080fd5b81019080803573ffffffffffffffffffffffffffffffffffffffff169060200190929190505050612319565b005b61059461247e565b6040518082815260200191505060405180910390f35b6105d6600480360360208110156105c057600080fd5b8101908080359060200190929190505050612484565b005b61061a600480360360208110156105ee57600080fd5b81019080803573ffffffffffffffffffffffffffffffffffffffff169060200190929190505050612cde565b005b610624612e43565b6040518082815260200191505060405180910390f35b61067c6004803603602081101561065057600080fd5b81019080803573ffffffffffffffffffffffffffffffffffffffff169060200190929190505050612e49565b005b600080610689612ed1565b9050600061074d600160003373ffffffffffffffffffffffffffffffffffffffff1673ffffffffffffffffffffffffffffffffffffffff1681526020019081526020016000206002015461073f64e8d4a5100061073186600160003373ffffffffffffffffffffffffffffffffffffffff1673ffffffffffffffffffffffffffffffffffffffff1681526020019081526020016000206000015461302f90919063ffffffff16565b6130b990919063ffffffff16565b61310390919063ffffffff16565b90506107a481600160003373ffffffffffffffffffffffffffffffffffffffff1673ffffffffffffffffffffffffffffffffffffffff1681526020019081526020016000206001015461314d90919063ffffffff16565b9250505090565b60045481565b600a60009054906101000a900473ffffffffffffffffffffffffffffffffffffffff1681565b600860009054906101000a900473ffffffffffffffffffffffffffffffffffffffff1681565b60035481565b600160003373ffffffffffffffffffffffffffffffffffffffff1673ffffffffffffffffffffffffffffffffffffffff16815260200190815260200160002060030160009054906101000a900460ff1615156108c7576040517f08c379a000000000000000000000000000000000000000000000000000000000815260040180806020018281038252601a8152602001807f4163636f756e74206973206e6f7420612064656c656761746f7200000000000081525060200191505060405180910390fd5b60008114156108d5576113a0565b6000600160003373ffffffffffffffffffffffffffffffffffffffff1673ffffffffffffffffffffffffffffffffffffffff168152602001908152602001600020600001541415610925576113a0565b600061092f612ed1565b905060006109f3600160003373ffffffffffffffffffffffffffffffffffffffff1673ffffffffffffffffffffffffffffffffffffffff168152602001908152602001600020600201546109e564e8d4a510006109d786600160003373ffffffffffffffffffffffffffffffffffffffff1673ffffffffffffffffffffffffffffffffffffffff1681526020019081526020016000206000015461302f90919063ffffffff16565b6130b990919063ffffffff16565b61310390919063ffffffff16565b90506000811115610a9a57610a5381600160003373ffffffffffffffffffffffffffffffffffffffff1673ffffffffffffffffffffffffffffffffffffffff1681526020019081526020016000206001015461314d90919063ffffffff16565b600160003373ffffffffffffffffffffffffffffffffffffffff1673ffffffffffffffffffffffffffffffffffffffff168152602001908152602001600020600101819055505b6000600160003373ffffffffffffffffffffffffffffffffffffffff1673ffffffffffffffffffffffffffffffffffffffff1681526020019081526020016000206000015484101515610b3157600160003373ffffffffffffffffffffffffffffffffffffffff1673ffffffffffffffffffffffffffffffffffffffff168152602001908152602001600020600001549050610b35565b8390505b600c60009054906101000a900473ffffffffffffffffffffffffffffffffffffffff1673ffffffffffffffffffffffffffffffffffffffff166370a08231306040518263ffffffff167c0100000000000000000000000000000000000000000000000000000000028152600401808273ffffffffffffffffffffffffffffffffffffffff1673ffffffffffffffffffffffffffffffffffffffff16815260200191505060206040518083038186803b158015610bf057600080fd5b505afa158015610c04573d6000803e3d6000fd5b505050506040513d6020811015610c1a57600080fd5b81019080805190602001909291905050508111151515610c85576040517f08c379a0000000000000000000000000000000000000000000000000000000008152600401808060200182810382526026815260200180613ba56026913960400191505060405180910390fd5b600c60009054906101000a900473ffffffffffffffffffffffffffffffffffffffff1673ffffffffffffffffffffffffffffffffffffffff1663a9059cbb33836040518363ffffffff167c0100000000000000000000000000000000000000000000000000000000028152600401808373ffffffffffffffffffffffffffffffffffffffff1673ffffffffffffffffffffffffffffffffffffffff16815260200182815260200192505050602060405180830381600087803b158015610d4a57600080fd5b505af1158015610d5e573d6000803e3d6000fd5b505050506040513d6020811015610d7457600080fd5b810190808051906020019092919050505050610ddb81600160003373ffffffffffffffffffffffffffffffffffffffff1673ffffffffffffffffffffffffffffffffffffffff1681526020019081526020016000206000015461310390919063ffffffff16565b600160003373ffffffffffffffffffffffffffffffffffffffff1673ffffffffffffffffffffffffffffffffffffffff16815260200190815260200160002060000181905550610e368160045461310390919063ffffffff16565b600481905550610ea864e8d4a51000610e9a85600160003373ffffffffffffffffffffffffffffffffffffffff1673ffffffffffffffffffffffffffffffffffffffff1681526020019081526020016000206000015461302f90919063ffffffff16565b6130b990919063ffffffff16565b600160003373ffffffffffffffffffffffffffffffffffffffff1673ffffffffffffffffffffffffffffffffffffffff168152602001908152602001600020600201819055506000600160003373ffffffffffffffffffffffffffffffffffffffff1673ffffffffffffffffffffffffffffffffffffffff16815260200190815260200160002060000154148015610f8257506000600160003373ffffffffffffffffffffffffffffffffffffffff1673ffffffffffffffffffffffffffffffffffffffff16815260200190815260200160002060010154115b1561133157600b60009054906101000a900473ffffffffffffffffffffffffffffffffffffffff1673ffffffffffffffffffffffffffffffffffffffff166370a08231306040518263ffffffff167c0100000000000000000000000000000000000000000000000000000000028152600401808273ffffffffffffffffffffffffffffffffffffffff1673ffffffffffffffffffffffffffffffffffffffff16815260200191505060206040518083038186803b15801561104257600080fd5b505afa158015611056573d6000803e3d6000fd5b505050506040513d602081101561106c57600080fd5b8101908080519060200190929190505050600160003373ffffffffffffffffffffffffffffffffffffffff1673ffffffffffffffffffffffffffffffffffffffff1681526020019081526020016000206001015411156110f7577ff4d678b8ce6b5157126b1484a53523762a93571537a7d5ae97d8014a44715c9460405160405180910390a1611330565b600b60009054906101000a900473ffffffffffffffffffffffffffffffffffffffff1673ffffffffffffffffffffffffffffffffffffffff1663a9059cbb33600160003373ffffffffffffffffffffffffffffffffffffffff1673ffffffffffffffffffffffffffffffffffffffff168152602001908152602001600020600101546040518363ffffffff167c0100000000000000000000000000000000000000000000000000000000028152600401808373ffffffffffffffffffffffffffffffffffffffff1673ffffffffffffffffffffffffffffffffffffffff16815260200182815260200192505050602060405180830381600087803b1580156111fe57600080fd5b505af1158015611212573d6000803e3d6000fd5b505050506040513d602081101561122857600080fd5b8101908080519060200190929190505050507f53b9d5507ac4acc6089be6ad220e498a2ee4c787c3e697596406bc7f3dc19e7f33600160003373ffffffffffffffffffffffffffffffffffffffff1673ffffffffffffffffffffffffffffffffffffffff16815260200190815260200160002060010154604051808373ffffffffffffffffffffffffffffffffffffffff1673ffffffffffffffffffffffffffffffffffffffff1681526020018281526020019250505060405180910390a16000600160003373ffffffffffffffffffffffffffffffffffffffff1673ffffffffffffffffffffffffffffffffffffffff168152602001908152602001600020600101819055505b5b7f41ebc803482ede4e53affbf933a58c937037ae6029f4b061ac9c30333dd31f393385604051808373ffffffffffffffffffffffffffffffffffffffff1673ffffffffffffffffffffffffffffffffffffffff1681526020018281526020019250505060405180910390a15050505b50565b60006113ad6122bb565b1515611421576040517f08c379a00000000000000000000000000000000000000000000000000000000081526004018080602001828103825260208152602001807f4f776e61626c653a2063616c6c6572206973206e6f7420746865206f776e657281525060200191505060405180910390fd5b600b60009054906101000a900473ffffffffffffffffffffffffffffffffffffffff1673ffffffffffffffffffffffffffffffffffffffff166370a08231306040518263ffffffff167c0100000000000000000000000000000000000000000000000000000000028152600401808273ffffffffffffffffffffffffffffffffffffffff1673ffffffffffffffffffffffffffffffffffffffff16815260200191505060206040518083038186803b1580156114dc57600080fd5b505afa1580156114f0573d6000803e3d6000fd5b505050506040513d602081101561150657600080fd5b8101908080519060200190929190505050905090565b600960009054906101000a900473ffffffffffffffffffffffffffffffffffffffff1681565b61154a6122bb565b15156115be576040517f08c379a00000000000000000000000000000000000000000000000000000000081526004018080602001828103825260208152602001807f4f776e61626c653a2063616c6c6572206973206e6f7420746865206f776e657281525060200191505060405180910390fd5b80600b60009054906101000a900473ffffffffffffffffffffffffffffffffffffffff1673ffffffffffffffffffffffffffffffffffffffff166370a08231306040518263ffffffff167c0100000000000000000000000000000000000000000000000000000000028152600401808273ffffffffffffffffffffffffffffffffffffffff1673ffffffffffffffffffffffffffffffffffffffff16815260200191505060206040518083038186803b15801561167a57600080fd5b505afa15801561168e573d6000803e3d6000fd5b505050506040513d60208110156116a457600080fd5b81019080805190602001909291905050501015151561172b576040517f08c379a000000000000000000000000000000000000000000000000000000000815260040180806020018281038252601e8152602001807f4e6f7420656e6f7567682062616c616e636520746f207769746864726177000081525060200191505060405180910390fd5b600b60009054906101000a900473ffffffffffffffffffffffffffffffffffffffff1673ffffffffffffffffffffffffffffffffffffffff1663a9059cbb600960009054906101000a900473ffffffffffffffffffffffffffffffffffffffff16836040518363ffffffff167c0100000000000000000000000000000000000000000000000000000000028152600401808373ffffffffffffffffffffffffffffffffffffffff1673ffffffffffffffffffffffffffffffffffffffff16815260200182815260200192505050602060405180830381600087803b15801561181257600080fd5b505af1158015611826573d6000803e3d6000fd5b505050506040513d602081101561183c57600080fd5b81019080805190602001909291905050505050565b60065481565b6000600454905090565b600160003373ffffffffffffffffffffffffffffffffffffffff1673ffffffffffffffffffffffffffffffffffffffff16815260200190815260200160002060030160009054906101000a900460ff161515611925576040517f08c379a000000000000000000000000000000000000000000000000000000000815260040180806020018281038252601a8152602001807f4163636f756e74206973206e6f7420612064656c656761746f7200000000000081525060200191505060405180910390fd5b600061192f612ed1565b905060006119f3600160003373ffffffffffffffffffffffffffffffffffffffff1673ffffffffffffffffffffffffffffffffffffffff168152602001908152602001600020600201546119e564e8d4a510006119d786600160003373ffffffffffffffffffffffffffffffffffffffff1673ffffffffffffffffffffffffffffffffffffffff1681526020019081526020016000206000015461302f90919063ffffffff16565b6130b990919063ffffffff16565b61310390919063ffffffff16565b90506000600b60009054906101000a900473ffffffffffffffffffffffffffffffffffffffff1673ffffffffffffffffffffffffffffffffffffffff166370a08231306040518263ffffffff167c0100000000000000000000000000000000000000000000000000000000028152600401808273ffffffffffffffffffffffffffffffffffffffff1673ffffffffffffffffffffffffffffffffffffffff16815260200191505060206040518083038186803b158015611ab257600080fd5b505afa158015611ac6573d6000803e3d6000fd5b505050506040513d6020811015611adc57600080fd5b8101908080519060200190929190505050905080611b4583600160003373ffffffffffffffffffffffffffffffffffffffff1673ffffffffffffffffffffffffffffffffffffffff1681526020019081526020016000206001015461314d90919063ffffffff16565b101515611b80577ff4d678b8ce6b5157126b1484a53523762a93571537a7d5ae97d8014a44715c9460405160405180910390a1505050611fb0565b6000821115611c2557611bde82600160003373ffffffffffffffffffffffffffffffffffffffff1673ffffffffffffffffffffffffffffffffffffffff1681526020019081526020016000206001015461314d90919063ffffffff16565b600160003373ffffffffffffffffffffffffffffffffffffffff1673ffffffffffffffffffffffffffffffffffffffff168152602001908152602001600020600101819055505b80600160003373ffffffffffffffffffffffffffffffffffffffff1673ffffffffffffffffffffffffffffffffffffffff1681526020019081526020016000206001015411151515611cc2576040517f08c379a0000000000000000000000000000000000000000000000000000000008152600401808060200182810382526026815260200180613ba56026913960400191505060405180910390fd5b600b60009054906101000a900473ffffffffffffffffffffffffffffffffffffffff1673ffffffffffffffffffffffffffffffffffffffff1663a9059cbb33600160003373ffffffffffffffffffffffffffffffffffffffff1673ffffffffffffffffffffffffffffffffffffffff168152602001908152602001600020600101546040518363ffffffff167c0100000000000000000000000000000000000000000000000000000000028152600401808373ffffffffffffffffffffffffffffffffffffffff1673ffffffffffffffffffffffffffffffffffffffff16815260200182815260200192505050602060405180830381600087803b158015611dc957600080fd5b505af1158015611ddd573d6000803e3d6000fd5b505050506040513d6020811015611df357600080fd5b810190808051906020019092919050505050611e7164e8d4a51000611e6385600160003373ffffffffffffffffffffffffffffffffffffffff1673ffffffffffffffffffffffffffffffffffffffff1681526020019081526020016000206000015461302f90919063ffffffff16565b6130b990919063ffffffff16565b600160003373ffffffffffffffffffffffffffffffffffffffff1673ffffffffffffffffffffffffffffffffffffffff168152602001908152602001600020600201819055506000600160003373ffffffffffffffffffffffffffffffffffffffff1673ffffffffffffffffffffffffffffffffffffffff168152602001908152602001600020600101819055507f53b9d5507ac4acc6089be6ad220e498a2ee4c787c3e697596406bc7f3dc19e7f33600160003373ffffffffffffffffffffffffffffffffffffffff1673ffffffffffffffffffffffffffffffffffffffff16815260200190815260200160002060010154604051808373ffffffffffffffffffffffffffffffffffffffff1673ffffffffffffffffffffffffffffffffffffffff1681526020018281526020019250505060405180910390a15050505b565b600281815481101515611fc157fe5b906000526020600020016000915054906101000a900473ffffffffffffffffffffffffffffffffffffffff1681565b6000600280549050905090565b600860009054906101000a900473ffffffffffffffffffffffffffffffffffffffff1673ffffffffffffffffffffffffffffffffffffffff163373ffffffffffffffffffffffffffffffffffffffff161415156120c2576040517f08c379a00000000000000000000000000000000000000000000000000000000081526004018080602001828103825260188152602001807f43616c6c6572206973206e6f7420746865206461656d6f6e000000000000000081525060200191505060405180910390fd5b6120ca612ed1565b6003819055506120d9816131d7565b436007819055507f4e8bac1a32b11d2514ec08e01a628be195b36461888a0a9658b7d33c97b4dc78816040518082815260200191505060405180910390a150565b6121226122bb565b1515612196576040517f08c379a00000000000000000000000000000000000000000000000000000000081526004018080602001828103825260208152602001807f4f776e61626c653a2063616c6c6572206973206e6f7420746865206f776e657281525060200191505060405180910390fd5b600073ffffffffffffffffffffffffffffffffffffffff166000809054906101000a900473ffffffffffffffffffffffffffffffffffffffff1673ffffffffffffffffffffffffffffffffffffffff167f8be0079c531659141344cd1fd0a4f28419497f9722a3daafe3b4186f6b6457e060405160405180910390a360008060006101000a81548173ffffffffffffffffffffffffffffffffffffffff021916908373ffffffffffffffffffffffffffffffffffffffff160217905550565b60016020528060005260406000206000915090508060000154908060010154908060020154908060030160009054906101000a900460ff16905084565b60008060009054906101000a900473ffffffffffffffffffffffffffffffffffffffff16905090565b60008060009054906101000a900473ffffffffffffffffffffffffffffffffffffffff1673ffffffffffffffffffffffffffffffffffffffff166122fd6133fd565b73ffffffffffffffffffffffffffffffffffffffff1614905090565b6123216122bb565b1515612395576040517f08c379a00000000000000000000000000000000000000000000000000000000081526004018080602001828103825260208152602001807f4f776e61626c653a2063616c6c6572206973206e6f7420746865206f776e657281525060200191505060405180910390fd5b600073ffffffffffffffffffffffffffffffffffffffff168173ffffffffffffffffffffffffffffffffffffffff161415151561243a576040517f08c379a00000000000000000000000000000000000000000000000000000000081526004018080602001828103825260168152602001807f496e76616c6964206461656d6f6e20616464726573730000000000000000000081525060200191505060405180910390fd5b80600860006101000a81548173ffffffffffffffffffffffffffffffffffffffff021916908373ffffffffffffffffffffffffffffffffffffffff16021790555050565b60075481565b600081141561249257612cdb565b6000600c60009054906101000a900473ffffffffffffffffffffffffffffffffffffffff1673ffffffffffffffffffffffffffffffffffffffff166370a08231336040518263ffffffff167c0100000000000000000000000000000000000000000000000000000000028152600401808273ffffffffffffffffffffffffffffffffffffffff1673ffffffffffffffffffffffffffffffffffffffff16815260200191505060206040518083038186803b15801561254f57600080fd5b505afa158015612563573d6000803e3d6000fd5b505050506040513d602081101561257957600080fd5b810190808051906020019092919050505090508082111515156125e7576040517f08c379a0000000000000000000000000000000000000000000000000000000008152600401808060200182810382526026815260200180613ba56026913960400191505060405180910390fd5b600c60009054906101000a900473ffffffffffffffffffffffffffffffffffffffff1673ffffffffffffffffffffffffffffffffffffffff166323b872dd3330856040518463ffffffff167c0100000000000000000000000000000000000000000000000000000000028152600401808473ffffffffffffffffffffffffffffffffffffffff1673ffffffffffffffffffffffffffffffffffffffff1681526020018373ffffffffffffffffffffffffffffffffffffffff1673ffffffffffffffffffffffffffffffffffffffff1681526020018281526020019350505050602060405180830381600087803b1580156126e057600080fd5b505af11580156126f4573d6000803e3d6000fd5b505050506040513d602081101561270a57600080fd5b8101908080519060200190929190505050506000612726612ed1565b9050600160003373ffffffffffffffffffffffffffffffffffffffff1673ffffffffffffffffffffffffffffffffffffffff16815260200190815260200160002060030160009054906101000a900460ff16151561294f5760018060003373ffffffffffffffffffffffffffffffffffffffff1673ffffffffffffffffffffffffffffffffffffffff16815260200190815260200160002060030160006101000a81548160ff0219169083151502179055506000600160003373ffffffffffffffffffffffffffffffffffffffff1673ffffffffffffffffffffffffffffffffffffffff1681526020019081526020016000206001018190555061284a64e8d4a5100061283c838661302f90919063ffffffff16565b6130b990919063ffffffff16565b600160003373ffffffffffffffffffffffffffffffffffffffff1673ffffffffffffffffffffffffffffffffffffffff1681526020019081526020016000206002018190555082600160003373ffffffffffffffffffffffffffffffffffffffff1673ffffffffffffffffffffffffffffffffffffffff16815260200190815260200160002060000181905550826004540160048190555060023390806001815401808255809150509060018203906000526020600020016000909192909190916101000a81548173ffffffffffffffffffffffffffffffffffffffff021916908373ffffffffffffffffffffffffffffffffffffffff160217905550505050612cdb565b6000600160003373ffffffffffffffffffffffffffffffffffffffff1673ffffffffffffffffffffffffffffffffffffffff168152602001908152602001600020600001541115612b05576000612a5c600160003373ffffffffffffffffffffffffffffffffffffffff1673ffffffffffffffffffffffffffffffffffffffff16815260200190815260200160002060020154612a4e64e8d4a51000612a4086600160003373ffffffffffffffffffffffffffffffffffffffff1673ffffffffffffffffffffffffffffffffffffffff1681526020019081526020016000206000015461302f90919063ffffffff16565b6130b990919063ffffffff16565b61310390919063ffffffff16565b90506000811115612b0357612abc81600160003373ffffffffffffffffffffffffffffffffffffffff1673ffffffffffffffffffffffffffffffffffffffff1681526020019081526020016000206001015461314d90919063ffffffff16565b600160003373ffffffffffffffffffffffffffffffffffffffff1673ffffffffffffffffffffffffffffffffffffffff168152602001908152602001600020600101819055505b505b612b5a83600160003373ffffffffffffffffffffffffffffffffffffffff1673ffffffffffffffffffffffffffffffffffffffff1681526020019081526020016000206000015461314d90919063ffffffff16565b600160003373ffffffffffffffffffffffffffffffffffffffff1673ffffffffffffffffffffffffffffffffffffffff16815260200190815260200160002060000181905550612bb58360045461314d90919063ffffffff16565b600481905550612c2764e8d4a51000612c1983600160003373ffffffffffffffffffffffffffffffffffffffff1673ffffffffffffffffffffffffffffffffffffffff1681526020019081526020016000206000015461302f90919063ffffffff16565b6130b990919063ffffffff16565b600160003373ffffffffffffffffffffffffffffffffffffffff1673ffffffffffffffffffffffffffffffffffffffff168152602001908152602001600020600201819055507f5aedeeae90d2689c6e011778ba0380949d9286ec47fd37c8444e569536ae6c5a3384604051808373ffffffffffffffffffffffffffffffffffffffff1673ffffffffffffffffffffffffffffffffffffffff1681526020018281526020019250505060405180910390a150505b50565b612ce66122bb565b1515612d5a576040517f08c379a00000000000000000000000000000000000000000000000000000000081526004018080602001828103825260208152602001807f4f776e61626c653a2063616c6c6572206973206e6f7420746865206f776e657281525060200191505060405180910390fd5b600073ffffffffffffffffffffffffffffffffffffffff168173ffffffffffffffffffffffffffffffffffffffff1614151515612dff576040517f08c379a00000000000000000000000000000000000000000000000000000000081526004018080602001828103825260138152602001807f496e76616c69642064657620616464726573730000000000000000000000000081525060200191505060405180910390fd5b80600960006101000a81548173ffffffffffffffffffffffffffffffffffffffff021916908373ffffffffffffffffffffffffffffffffffffffff16021790555050565b60055481565b612e516122bb565b1515612ec5576040517f08c379a00000000000000000000000000000000000000000000000000000000081526004018080602001828103825260208152602001807f4f776e61626c653a2063616c6c6572206973206e6f7420746865206f776e657281525060200191505060405180910390fd5b612ece81613405565b50565b600043600754101515612ee857600354905061302c565b6000600e60009054906101000a900473ffffffffffffffffffffffffffffffffffffffff1673ffffffffffffffffffffffffffffffffffffffff16637a54c3d26040518163ffffffff167c010000000000000000000000000000000000000000000000000000000002815260040160206040518083038186803b158015612f6e57600080fd5b505afa158015612f82573d6000803e3d6000fd5b505050506040513d6020811015612f9857600080fd5b810190808051906020019092919050505090506000612fe282612fd464e8d4a51000612fc66007544361354b565b61302f90919063ffffffff16565b6130b990919063ffffffff16565b9050613027613016670de0b6b3a76400006130086005548561302f90919063ffffffff16565b6130b990919063ffffffff16565b60035461314d90919063ffffffff16565b925050505b90565b60008083141561304257600090506130b3565b6000828402905082848281151561305557fe5b041415156130ae576040517f08c379a0000000000000000000000000000000000000000000000000000000008152600401808060200182810382526021815260200180613bcb6021913960400191505060405180910390fd5b809150505b92915050565b60006130fb83836040805190810160405280601a81526020017f536166654d6174683a206469766973696f6e206279207a65726f0000000000008152506139f2565b905092915050565b600061314583836040805190810160405280601e81526020017f536166654d6174683a207375627472616374696f6e206f766572666c6f770000815250613abc565b905092915050565b60008082840190508381101515156131cd576040517f08c379a000000000000000000000000000000000000000000000000000000000815260040180806020018281038252601b8152602001807f536166654d6174683a206164646974696f6e206f766572666c6f77000000000081525060200191505060405180910390fd5b8091505092915050565b6000600d60009054906101000a900473ffffffffffffffffffffffffffffffffffffffff1673ffffffffffffffffffffffffffffffffffffffff166370a08231600a60009054906101000a900473ffffffffffffffffffffffffffffffffffffffff166040518263ffffffff167c0100000000000000000000000000000000000000000000000000000000028152600401808273ffffffffffffffffffffffffffffffffffffffff1673ffffffffffffffffffffffffffffffffffffffff16815260200191505060206040518083038186803b1580156132b657600080fd5b505afa1580156132ca573d6000803e3d6000fd5b505050506040513d60208110156132e057600080fd5b810190808051906020019092919050505090506000600c60009054906101000a900473ffffffffffffffffffffffffffffffffffffffff1673ffffffffffffffffffffffffffffffffffffffff166318160ddd6040518163ffffffff167c010000000000000000000000000000000000000000000000000000000002815260040160206040518083038186803b15801561337957600080fd5b505afa15801561338d573d6000803e3d6000fd5b505050506040513d60208110156133a357600080fd5b810190808051906020019092919050505090506133f2836133e4836133d664e8d4a510008761302f90919063ffffffff16565b6130b990919063ffffffff16565b61302f90919063ffffffff16565b600581905550505050565b600033905090565b600073ffffffffffffffffffffffffffffffffffffffff168173ffffffffffffffffffffffffffffffffffffffff161415151561348d576040517f08c379a0000000000000000000000000000000000000000000000000000000008152600401808060200182810382526026815260200180613b7f6026913960400191505060405180910390fd5b8073ffffffffffffffffffffffffffffffffffffffff166000809054906101000a900473ffffffffffffffffffffffffffffffffffffffff1673ffffffffffffffffffffffffffffffffffffffff167f8be0079c531659141344cd1fd0a4f28419497f9722a3daafe3b4186f6b6457e060405160405180910390a3806000806101000a81548173ffffffffffffffffffffffffffffffffffffffff021916908373ffffffffffffffffffffffffffffffffffffffff16021790555050565b6000806301312d00905060006298968090506000624c4b4090506000622625a090506000621312d0905086881115151561358457600080fd5b620f424060065401871115156135d8576135cc856135be60016135b08c8c61310390919063ffffffff16565b61314d90919063ffffffff16565b61302f90919063ffffffff16565b955050505050506139ec565b620f424060065401881180156135f5575062989680600654018711155b1561363e576136328461362460016136168c8c61310390919063ffffffff16565b61314d90919063ffffffff16565b61302f90919063ffffffff16565b955050505050506139ec565b62989680600654018811801561365c57506301312d00600654018711155b156136a5576136998361368b600161367d8c8c61310390919063ffffffff16565b61314d90919063ffffffff16565b61302f90919063ffffffff16565b955050505050506139ec565b6301312d0060065401881180156136c457506301c9c380600654018711155b1561370d57613701826136f360016136e58c8c61310390919063ffffffff16565b61314d90919063ffffffff16565b61302f90919063ffffffff16565b955050505050506139ec565b6301c9c38060065401881115613761576137558161374760016137398c8c61310390919063ffffffff16565b61314d90919063ffffffff16565b61302f90919063ffffffff16565b955050505050506139ec565b620f424060065401881115801561377f5750620f4240600654018710155b1561380c576138006137b36137a4620f4240600654018a61310390919063ffffffff16565b8661302f90919063ffffffff16565b6137f26137e360016137d58d620f42406006540161310390919063ffffffff16565b61314d90919063ffffffff16565b8861302f90919063ffffffff16565b61314d90919063ffffffff16565b955050505050506139ec565b6298968060065401881115801561382a575062989680600654018710155b156138b7576138ab61385e61384f62989680600654018a61310390919063ffffffff16565b8561302f90919063ffffffff16565b61389d61388e60016138808d629896806006540161310390919063ffffffff16565b61314d90919063ffffffff16565b8761302f90919063ffffffff16565b61314d90919063ffffffff16565b955050505050506139ec565b6301312d006006540188111580156138d757506301312d00600654018710155b156139665761395a61390c6138fd6301312d00600654018a61310390919063ffffffff16565b8461302f90919063ffffffff16565b61394c61393d600161392f8d6301312d006006540161310390919063ffffffff16565b61314d90919063ffffffff16565b8661302f90919063ffffffff16565b61314d90919063ffffffff16565b955050505050506139ec565b6139e46139966139876301c9c380600654018a61310390919063ffffffff16565b8361302f90919063ffffffff16565b6139d66139c760016139b98d6301c9c3806006540161310390919063ffffffff16565b61314d90919063ffffffff16565b8561302f90919063ffffffff16565b61314d90919063ffffffff16565b955050505050505b92915050565b600080831182901515613aa0576040517f08c379a00000000000000000000000000000000000000000000000000000000081526004018080602001828103825283818151815260200191508051906020019080838360005b83811015613a65578082015181840152602081019050613a4a565b50505050905090810190601f168015613a925780820380516001836020036101000a031916815260200191505b509250505060405180910390fd5b5060008385811515613aae57fe5b049050809150509392505050565b60008383111582901515613b6b576040517f08c379a00000000000000000000000000000000000000000000000000000000081526004018080602001828103825283818151815260200191508051906020019080838360005b83811015613b30578082015181840152602081019050613b15565b50505050905090810190601f168015613b5d5780820380516001836020036101000a031916815260200191505b509250505060405180910390fd5b506000838503905080915050939250505056fe4f776e61626c653a206e6577206f776e657220697320746865207a65726f206164647265737345524332303a207472616e7366657220616d6f756e7420657863656564732062616c616e6365536166654d6174683a206d756c7469706c69636174696f6e206f766572666c6f77a165627a7a723058207d2196ac715dc938bab745a63e9b6810cdb095118fda44b9cacc8ea58d931b150029536166654d6174683a206d756c7469706c69636174696f6e206f766572666c6f77",
  "source": "pragma solidity ^0.5.0;\n\nimport \"./SafeMath.sol\";\nimport \"./Ownable.sol\";\n\ninterface ERC20Token {\n    function transfer(address _to, uint256 _value) external returns (bool);\n    function transferFrom(address sender, address recipient, uint256 amount) external returns (bool);\n    function balanceOf(address account) external view returns (uint256);\n    function totalSupply() external view returns (uint256);\n}\n\ninterface PeanutsPool {\n    function genesisBlock() external view returns (uint256);\n    function totalDepositedSP() external view returns (uint256);\n}\n\ncontract TspLpPool is Ownable {\n    using SafeMath for uint256;\n    struct Delegator {\n        uint256 tspLPAmount;             // TSP-LP token\n        uint256 availablePeanuts;       // minted peanuts for user\n        uint256 debtRewards;            // rewards debt\n        bool hasDeposited;              // set true when first time deposit\n    }\n\n    mapping(address => Delegator) public delegators;\n    address[] public delegatorsList;\n    uint256 public shareAcc;                        // reward peanuts per TSPLP * 1e12\n    uint256 public totalDepositedTSPLP;\n    uint256 public TSPLPToVests;                    // TSP-LP to vests * 1e12\n    uint256 public genesisBlock;             \n    uint256 public lastRewardBlock;       \n    address public daemonAddress;\n    address public devAddress;                      // send balance peanuts to this devAddress\n    address public LPAddress;                       // address of TRX-TSP pool    \n\n    ERC20Token Pnuts;                               // pnut token\n    ERC20Token TspLP;                               // Tsp-LP token\n    ERC20Token Tsp;                                 // TSP token\n    PeanutsPool PnutPool;                           // pnutPool :use to cal acc\n\n    modifier onlyDaemon(){\n        require(msg.sender == daemonAddress, \"Caller is not the daemon\");\n        _;\n    }\n\n    modifier onlyDelegator() {\n        require(delegators[msg.sender].hasDeposited, \"Account is not a delegator\");\n        _;\n    }\n\n\n    event DepositTSP(address delegator, uint256 amount);\n    event WithdrawTSP(address delegator, uint256 amount);\n    event WithdrawPeanuts(address delegator, uint256 amount);\n    event UpdateData(uint256 vestsToSP);\n    event InsufficientBalance();\n\n    constructor (address _pnuts, address _pnutPool, address _tsp, address _tsplp, address _LPAddress, uint256 _tspToVests) public {\n        Pnuts = ERC20Token(_pnuts);\n        TspLP = ERC20Token(_tsplp);\n        Tsp = ERC20Token(_tsp);\n        LPAddress = _LPAddress;\n        PnutPool = PeanutsPool(_pnutPool);\n\n        shareAcc = 0;\n        totalDepositedTSPLP = 0;\n        genesisBlock = PnutPool.genesisBlock();\n        lastRewardBlock = block.number;\n\n//      set TSPLPToVests first time\n        _updateTSPLPToVests(_tspToVests);\n        shareAcc = 0;\n    }\n\n    function deposit(uint256 _amount)\n        public\n    {\n        if (_amount == 0) return;\n\n        uint256 tspLPBalance = TspLP.balanceOf(msg.sender);\n        require(_amount <= tspLPBalance, \"ERC20: transfer amount exceeds balance\");\n\n        TspLP.transferFrom(msg.sender, address(this), _amount);\n\n        uint256 _shareAcc = _calculateCurrentAcc();\n\n        if(!delegators[msg.sender].hasDeposited){\n            delegators[msg.sender].hasDeposited = true;\n            delegators[msg.sender].availablePeanuts = 0;\n            delegators[msg.sender].debtRewards = _amount.mul(_shareAcc).div(1e12);\n            delegators[msg.sender].tspLPAmount = _amount;\n            totalDepositedTSPLP = totalDepositedTSPLP + _amount;\n            delegatorsList.push(msg.sender);\n            return;\n        }\n        if (delegators[msg.sender].tspLPAmount > 0){\n            uint256 pending = delegators[msg.sender].tspLPAmount.mul(_shareAcc).div(1e12).sub(delegators[msg.sender].debtRewards);\n            if (pending > 0){\n                delegators[msg.sender].availablePeanuts = delegators[msg.sender].availablePeanuts.add(pending);\n            }\n        }\n        delegators[msg.sender].tspLPAmount = delegators[msg.sender].tspLPAmount.add(_amount);\n        totalDepositedTSPLP = totalDepositedTSPLP.add(_amount);\n\n        delegators[msg.sender].debtRewards = delegators[msg.sender].tspLPAmount.mul(_shareAcc).div(1e12);\n\n        emit DepositTSP(msg.sender, _amount);\n\n    }\n\n    function withdraw(uint256 _amount)\n        public\n        onlyDelegator\n    {\n        if (_amount == 0) return;\n\n        if (delegators[msg.sender].tspLPAmount == 0) return;\n\n        uint256 _shareAcc = _calculateCurrentAcc();\n        uint256 pending = delegators[msg.sender].tspLPAmount.mul(_shareAcc).div(1e12).sub(delegators[msg.sender].debtRewards);\n        if(pending > 0){\n            delegators[msg.sender].availablePeanuts = delegators[msg.sender].availablePeanuts.add(pending);\n        }\n        uint256 withdrawAmount;\n        if (_amount >= delegators[msg.sender].tspLPAmount)\n            withdrawAmount = delegators[msg.sender].tspLPAmount;\n        else\n            withdrawAmount = _amount;\n\n        require(withdrawAmount <= TspLP.balanceOf(address(this)), \"ERC20: transfer amount exceeds balance\");\n        TspLP.transfer(msg.sender, withdrawAmount);\n        delegators[msg.sender].tspLPAmount = delegators[msg.sender].tspLPAmount.sub(withdrawAmount);\n        totalDepositedTSPLP = totalDepositedTSPLP.sub(withdrawAmount);\n        delegators[msg.sender].debtRewards = delegators[msg.sender].tspLPAmount.mul(_shareAcc).div(1e12);\n\n//      withdraw peanuts when cancel delegate\n        if (delegators[msg.sender].tspLPAmount == 0 && delegators[msg.sender].availablePeanuts > 0){\n            // do not withdraw peanuts if contract insufficentBalance\n            if (delegators[msg.sender].availablePeanuts > Pnuts.balanceOf(address(this))){\n                emit InsufficientBalance();\n            }else{\n                Pnuts.transfer(msg.sender, delegators[msg.sender].availablePeanuts);\n                emit WithdrawPeanuts(msg.sender, delegators[msg.sender].availablePeanuts);\n                delegators[msg.sender].availablePeanuts = 0;\n            }\n        }\n\n        emit WithdrawTSP(msg.sender, _amount);\n    }\n\n    function withdrawPeanuts()\n        public\n        onlyDelegator\n    {\n        uint256 _shareAcc = _calculateCurrentAcc();\n        uint256 pending = delegators[msg.sender].tspLPAmount.mul(_shareAcc).div(1e12).sub(delegators[msg.sender].debtRewards);\n        uint256 balanceOfPnut = Pnuts.balanceOf(address(this));\n        // withraw fail when contract insufficient of peanuts\n        if (delegators[msg.sender].availablePeanuts.add(pending) >= balanceOfPnut){\n            emit InsufficientBalance();\n            return;\n        }\n        \n        if (pending > 0)\n            delegators[msg.sender].availablePeanuts = delegators[msg.sender].availablePeanuts.add(pending);\n        \n        require(delegators[msg.sender].availablePeanuts <= balanceOfPnut, \"ERC20: transfer amount exceeds balance\");\n        Pnuts.transfer(msg.sender, delegators[msg.sender].availablePeanuts);\n        delegators[msg.sender].debtRewards = delegators[msg.sender].tspLPAmount.mul(_shareAcc).div(1e12);\n        delegators[msg.sender].availablePeanuts = 0;\n\n        emit WithdrawPeanuts(msg.sender, delegators[msg.sender].availablePeanuts);\n    }\n\n//  _tspToVests = (totalvest / totalsteem) * 1e6\n    function updateDataBy(uint256 _tspToVests)\n        public\n        onlyDaemon\n    {\n        // cul acc use the old vestsToTSPlP,then update vestsToTSPLP\n        shareAcc = _calculateCurrentAcc();\n\n        _updateTSPLPToVests(_tspToVests);\n        lastRewardBlock = block.number;\n\n        emit UpdateData(_tspToVests);\n    }\n\n    function _calculateCurrentAcc() internal view returns (uint256) {\n        if (lastRewardBlock >= block.number) return shareAcc;\n        uint256 totalDepositedSP = PnutPool.totalDepositedSP();\n        uint256 readyRewardsPerVests = _calculateReward(lastRewardBlock,block.number).mul(1e12).div(totalDepositedSP);\n        return shareAcc.add(readyRewardsPerVests.mul(TSPLPToVests).div(1e18));\n    }\n\n    // calculate reward between blocks [from, to]\n    function _calculateReward(uint256 from, uint256 to) internal view returns (uint256) {\n        uint256 BASE_20  = 20 * 1e6;\n        uint256 BASE_10  = 10 * 1e6;\n        uint256 BASE_5  = 5 * 1e6;\n        uint256 BASE_2  = 25 * 1e5;\n        uint256 BASE_1  = 125 * 1e4;\n\n        require(from <= to);\n        if (to <= (genesisBlock + 1000000)) {\n            return to.sub(from).add(1).mul(BASE_20);\n        } else if (from > (genesisBlock + 1000000) && to <= (genesisBlock + 10000000)) {\n            return to.sub(from).add(1).mul(BASE_10);\n        } else if (from > (genesisBlock + 10000000) && to <= (genesisBlock + 20000000)) {\n            return to.sub(from).add(1).mul(BASE_5);\n        } else if (from > (genesisBlock + 20000000) && to <= (genesisBlock + 30000000)) {\n            return to.sub(from).add(1).mul(BASE_2);\n        } else if(from > (genesisBlock + 30000000)) {\n            return to.sub(from).add(1).mul(BASE_1);\n        } else {    // reward maybe different under those blocks, so calculate it one by one\n            if (from <= (genesisBlock + 1000000) && to >= (genesisBlock + 1000000)) {\n                return BASE_20.mul((genesisBlock + 1000000).sub(from).add(1)).add(BASE_10.mul(to.sub((genesisBlock + 1000000))));\n            } else if (from <= (genesisBlock + 10000000) && to >= (genesisBlock + 10000000)) {\n                return BASE_10.mul((genesisBlock + 10000000).sub(from).add(1)).add(BASE_5.mul(to.sub((genesisBlock + 10000000))));\n            } else if (from <= (genesisBlock + 20000000) && to >= (genesisBlock + 20000000)) {\n                return BASE_5.mul((genesisBlock + 20000000).sub(from).add(1)).add(BASE_2.mul(to.sub((genesisBlock + 20000000))));\n            } else {\n                return BASE_2.mul((genesisBlock + 30000000).sub(from).add(1)).add(BASE_1.mul(to.sub((genesisBlock + 30000000))));\n            }\n        }\n    }\n\n    function _updateTSPLPToVests(uint256 _vestsToTSP) internal {\n        uint256 TSPinPool = Tsp.balanceOf(LPAddress);\n        uint256 totalLPToken = TspLP.totalSupply();\n        TSPLPToVests = TSPinPool.mul(1e12).div(totalLPToken).mul(_vestsToTSP);\n    }\n\n    function withdrawBanlanceOfPeanuts(uint256 _amount)\n        public\n        onlyOwner\n    {\n        require(Pnuts.balanceOf(address(this)) >= _amount, \"Not enough balance to withdraw\");\n        Pnuts.transfer(devAddress, _amount);\n    }\n\n    function getPendingPeanuts() public view returns (uint256) {\n        uint256 _shareAcc = _calculateCurrentAcc();\n        uint256 pending = delegators[msg.sender].tspLPAmount.mul(_shareAcc).div(1e12).sub(delegators[msg.sender].debtRewards);\n        return delegators[msg.sender].availablePeanuts.add(pending);\n    }\n\n       // return TSP-LP as unit\n    function getTotalDepositedTSPLP() public view returns (uint256) {\n        return totalDepositedTSPLP;\n    }\n\n    function getDelegatorListLength() public view returns(uint256){\n        return delegatorsList.length;\n    }\n\n    function setDaemonAddress(address daemon)\n        public\n        onlyOwner\n    {\n        require(daemon != address(0), \"Invalid daemon address\");\n        daemonAddress = daemon;    \n    }\n\n        // should do this before game start\n    function setDevAddress(address dev) \n        public\n        onlyOwner\n    {\n        require(dev != address(0), \"Invalid dev address\");\n        devAddress = dev;\n    }\n\n    function getBalanceOfPeanuts() public view onlyOwner returns(uint256)\n    {\n        return Pnuts.balanceOf(address(this)); \n    }\n\n}",
  "sourcePath": "/Users/wangxi/work/deploy-contract/contracts/TspLpPool.sol",
  "compiler": {
    "name": "solc",
    "version": "0.5.4+commit.d15a3125.mod.Emscripten.clang"
  },
  "schemaVersion": "2.0.1",
  "updatedAt": "2020-12-29T12:31:00.215Z"
}