{
  "contractName": "TspLPPooling",
  "abi": [
    {
      "constant": true,
      "inputs": [],
      "name": "totalDepositedTSPLP",
      "outputs": [
        {
          "name": "",
          "type": "uint256"
        }
      ],
      "payable": false,
      "stateMutability": "view",
      "type": "function"
    },
    {
      "constant": true,
      "inputs": [],
      "name": "LPAddress",
      "outputs": [
        {
          "name": "",
          "type": "address"
        }
      ],
      "payable": false,
      "stateMutability": "view",
      "type": "function"
    },
    {
      "constant": true,
      "inputs": [],
      "name": "daemonAddress",
      "outputs": [
        {
          "name": "",
          "type": "address"
        }
      ],
      "payable": false,
      "stateMutability": "view",
      "type": "function"
    },
    {
      "constant": true,
      "inputs": [],
      "name": "shareAcc",
      "outputs": [
        {
          "name": "",
          "type": "uint256"
        }
      ],
      "payable": false,
      "stateMutability": "view",
      "type": "function"
    },
    {
      "constant": true,
      "inputs": [],
      "name": "devAddress",
      "outputs": [
        {
          "name": "",
          "type": "address"
        }
      ],
      "payable": false,
      "stateMutability": "view",
      "type": "function"
    },
    {
      "constant": true,
      "inputs": [],
      "name": "genesisBlock",
      "outputs": [
        {
          "name": "",
          "type": "uint256"
        }
      ],
      "payable": false,
      "stateMutability": "view",
      "type": "function"
    },
    {
      "constant": true,
      "inputs": [
        {
          "name": "",
          "type": "uint256"
        }
      ],
      "name": "delegatorsList",
      "outputs": [
        {
          "name": "",
          "type": "address"
        }
      ],
      "payable": false,
      "stateMutability": "view",
      "type": "function"
    },
    {
      "constant": false,
      "inputs": [],
      "name": "renounceOwnership",
      "outputs": [],
      "payable": false,
      "stateMutability": "nonpayable",
      "type": "function"
    },
    {
      "constant": true,
      "inputs": [
        {
          "name": "",
          "type": "address"
        }
      ],
      "name": "delegators",
      "outputs": [
        {
          "name": "tspLPAmount",
          "type": "uint256"
        },
        {
          "name": "availablePeanuts",
          "type": "uint256"
        },
        {
          "name": "debtRewards",
          "type": "uint256"
        },
        {
          "name": "hasDeposited",
          "type": "bool"
        }
      ],
      "payable": false,
      "stateMutability": "view",
      "type": "function"
    },
    {
      "constant": true,
      "inputs": [],
      "name": "owner",
      "outputs": [
        {
          "name": "",
          "type": "address"
        }
      ],
      "payable": false,
      "stateMutability": "view",
      "type": "function"
    },
    {
      "constant": true,
      "inputs": [],
      "name": "isOwner",
      "outputs": [
        {
          "name": "",
          "type": "bool"
        }
      ],
      "payable": false,
      "stateMutability": "view",
      "type": "function"
    },
    {
      "constant": true,
      "inputs": [],
      "name": "TSPLPToVests",
      "outputs": [
        {
          "name": "",
          "type": "uint256"
        }
      ],
      "payable": false,
      "stateMutability": "view",
      "type": "function"
    },
    {
      "constant": false,
      "inputs": [
        {
          "name": "newOwner",
          "type": "address"
        }
      ],
      "name": "transferOwnership",
      "outputs": [],
      "payable": false,
      "stateMutability": "nonpayable",
      "type": "function"
    },
    {
      "inputs": [
        {
          "name": "_pnuts",
          "type": "address"
        },
        {
          "name": "_pnutPool",
          "type": "address"
        },
        {
          "name": "_tsp",
          "type": "address"
        },
        {
          "name": "_tsplp",
          "type": "address"
        },
        {
          "name": "_LPAddress",
          "type": "address"
        },
        {
          "name": "_tspToVests",
          "type": "uint256"
        }
      ],
      "payable": false,
      "stateMutability": "nonpayable",
      "type": "constructor"
    },
    {
      "anonymous": false,
      "inputs": [
        {
          "indexed": false,
          "name": "delegator",
          "type": "address"
        },
        {
          "indexed": false,
          "name": "amount",
          "type": "uint256"
        }
      ],
      "name": "DepositTSP",
      "type": "event"
    },
    {
      "anonymous": false,
      "inputs": [
        {
          "indexed": false,
          "name": "delegator",
          "type": "address"
        },
        {
          "indexed": false,
          "name": "amount",
          "type": "uint256"
        }
      ],
      "name": "WithdrawTSP",
      "type": "event"
    },
    {
      "anonymous": false,
      "inputs": [
        {
          "indexed": false,
          "name": "delegator",
          "type": "address"
        },
        {
          "indexed": false,
          "name": "amount",
          "type": "uint256"
        }
      ],
      "name": "WithdrawPeanuts",
      "type": "event"
    },
    {
      "anonymous": false,
      "inputs": [
        {
          "indexed": false,
          "name": "vestsToSP",
          "type": "uint256"
        }
      ],
      "name": "UpdateData",
      "type": "event"
    },
    {
      "anonymous": false,
      "inputs": [],
      "name": "InsufficientBalance",
      "type": "event"
    },
    {
      "anonymous": false,
      "inputs": [
        {
          "indexed": true,
          "name": "previousOwner",
          "type": "address"
        },
        {
          "indexed": true,
          "name": "newOwner",
          "type": "address"
        }
      ],
      "name": "OwnershipTransferred",
      "type": "event"
    },
    {
      "constant": false,
      "inputs": [
        {
          "name": "_amount",
          "type": "uint256"
        }
      ],
      "name": "deposit",
      "outputs": [],
      "payable": false,
      "stateMutability": "nonpayable",
      "type": "function"
    },
    {
      "constant": false,
      "inputs": [
        {
          "name": "_amount",
          "type": "uint256"
        }
      ],
      "name": "withdraw",
      "outputs": [],
      "payable": false,
      "stateMutability": "nonpayable",
      "type": "function"
    },
    {
      "constant": false,
      "inputs": [],
      "name": "withdrawPeanuts",
      "outputs": [],
      "payable": false,
      "stateMutability": "nonpayable",
      "type": "function"
    },
    {
      "constant": false,
      "inputs": [
        {
          "name": "_tspToVests",
          "type": "uint256"
        }
      ],
      "name": "updateData",
      "outputs": [],
      "payable": false,
      "stateMutability": "nonpayable",
      "type": "function"
    },
    {
      "constant": false,
      "inputs": [
        {
          "name": "_amount",
          "type": "uint256"
        }
      ],
      "name": "withdrawBanlanceOfPeanuts",
      "outputs": [],
      "payable": false,
      "stateMutability": "nonpayable",
      "type": "function"
    },
    {
      "constant": true,
      "inputs": [],
      "name": "getPendingPeanuts",
      "outputs": [
        {
          "name": "",
          "type": "uint256"
        }
      ],
      "payable": false,
      "stateMutability": "view",
      "type": "function"
    },
    {
      "constant": true,
      "inputs": [],
      "name": "getTotalDepositedSP",
      "outputs": [
        {
          "name": "",
          "type": "uint256"
        }
      ],
      "payable": false,
      "stateMutability": "view",
      "type": "function"
    },
    {
      "constant": true,
      "inputs": [],
      "name": "getDelegatorListLength",
      "outputs": [
        {
          "name": "",
          "type": "uint256"
        }
      ],
      "payable": false,
      "stateMutability": "view",
      "type": "function"
    },
    {
      "constant": false,
      "inputs": [
        {
          "name": "daemon",
          "type": "address"
        }
      ],
      "name": "setDaemonAddress",
      "outputs": [],
      "payable": false,
      "stateMutability": "nonpayable",
      "type": "function"
    },
    {
      "constant": false,
      "inputs": [
        {
          "name": "dev",
          "type": "address"
        }
      ],
      "name": "setDevAddress",
      "outputs": [],
      "payable": false,
      "stateMutability": "nonpayable",
      "type": "function"
    }
  ],
  "bytecode": "0x60806040523480156200001157600080fd5b50d380156200001f57600080fd5b50d280156200002d57600080fd5b5060405160c08062004ab7833981018060405260c08110156200004f57600080fd5b81019080805190602001909291908051906020019092919080519060200190929190805190602001909291908051906020019092919080519060200190929190505050620000ab620003c8640100000000026401000000009004565b6000806101000a81548173ffffffffffffffffffffffffffffffffffffffff021916908373ffffffffffffffffffffffffffffffffffffffff1602179055506000809054906101000a900473ffffffffffffffffffffffffffffffffffffffff1673ffffffffffffffffffffffffffffffffffffffff16600073ffffffffffffffffffffffffffffffffffffffff167f8be0079c531659141344cd1fd0a4f28419497f9722a3daafe3b4186f6b6457e060405160405180910390a385600a60006101000a81548173ffffffffffffffffffffffffffffffffffffffff021916908373ffffffffffffffffffffffffffffffffffffffff16021790555082600b60006101000a81548173ffffffffffffffffffffffffffffffffffffffff021916908373ffffffffffffffffffffffffffffffffffffffff16021790555083600c60006101000a81548173ffffffffffffffffffffffffffffffffffffffff021916908373ffffffffffffffffffffffffffffffffffffffff16021790555081600960006101000a81548173ffffffffffffffffffffffffffffffffffffffff021916908373ffffffffffffffffffffffffffffffffffffffff16021790555084600d60006101000a81548173ffffffffffffffffffffffffffffffffffffffff021916908373ffffffffffffffffffffffffffffffffffffffff16021790555060006003819055506000600481905550600d60009054906101000a900473ffffffffffffffffffffffffffffffffffffffff1673ffffffffffffffffffffffffffffffffffffffff16634cdc9c636040518163ffffffff167c010000000000000000000000000000000000000000000000000000000002815260040160206040518083038186803b1580156200034057600080fd5b505afa15801562000355573d6000803e3d6000fd5b505050506040513d60208110156200036c57600080fd5b81019080805190602001909291905050506006819055506200039d81620003d0640100000000026401000000009004565b620003b66200062c640100000000026401000000009004565b60038190555050505050505062001341565b600033905090565b6000600c60009054906101000a900473ffffffffffffffffffffffffffffffffffffffff1673ffffffffffffffffffffffffffffffffffffffff166370a08231600960009054906101000a900473ffffffffffffffffffffffffffffffffffffffff166040518263ffffffff167c0100000000000000000000000000000000000000000000000000000000028152600401808273ffffffffffffffffffffffffffffffffffffffff1673ffffffffffffffffffffffffffffffffffffffff16815260200191505060206040518083038186803b158015620004b057600080fd5b505afa158015620004c5573d6000803e3d6000fd5b505050506040513d6020811015620004dc57600080fd5b810190808051906020019092919050505090506000600b60009054906101000a900473ffffffffffffffffffffffffffffffffffffffff1673ffffffffffffffffffffffffffffffffffffffff166318160ddd6040518163ffffffff167c010000000000000000000000000000000000000000000000000000000002815260040160206040518083038186803b1580156200057657600080fd5b505afa1580156200058b573d6000803e3d6000fd5b505050506040513d6020811015620005a257600080fd5b8101908080519060200190929190505050905062000621836200060483620005e764e8d4a5100087620008ae6401000000000262002b5d179091906401000000009004565b6200093d6401000000000262002be7179091906401000000009004565b620008ae6401000000000262002b5d179091906401000000009004565b600581905550505050565b600080600d60009054906101000a900473ffffffffffffffffffffffffffffffffffffffff1673ffffffffffffffffffffffffffffffffffffffff1663a9f8d1816040518163ffffffff167c010000000000000000000000000000000000000000000000000000000002815260040160206040518083038186803b158015620006b457600080fd5b505afa158015620006c9573d6000803e3d6000fd5b505050506040513d6020811015620006e057600080fd5b8101908080519060200190929190505050905043811015156200070957600354915050620008ab565b6000600d60009054906101000a900473ffffffffffffffffffffffffffffffffffffffff1673ffffffffffffffffffffffffffffffffffffffff16637a54c3d26040518163ffffffff167c010000000000000000000000000000000000000000000000000000000002815260040160206040518083038186803b1580156200079057600080fd5b505afa158015620007a5573d6000803e3d6000fd5b505050506040513d6020811015620007bc57600080fd5b81019080805190602001909291905050509050600062000835826200081864e8d4a51000620007fb874362000998640100000000026401000000009004565b620008ae6401000000000262002b5d179091906401000000009004565b6200093d6401000000000262002be7179091906401000000009004565b9050620008a562000885620f42406200086860055485620008ae6401000000000262002b5d179091906401000000009004565b6200093d6401000000000262002be7179091906401000000009004565b600354620010c66401000000000262002c7b179091906401000000009004565b93505050505b90565b600080831415620008c3576000905062000937565b60008284029050828482811515620008d757fe5b0414151562000932576040517f08c379a000000000000000000000000000000000000000000000000000000000815260040180806020018281038252602181526020018062004a966021913960400191505060405180910390fd5b809150505b92915050565b60006200099083836040805190810160405280601a81526020017f536166654d6174683a206469766973696f6e206279207a65726f00000000000081525062001151640100000000026401000000009004565b905092915050565b6000806301312d00905060006298968090506000624c4b4090506000622625a090506000621312d09050868811151515620009d257600080fd5b620f4240600654018711151562000a585762000a4b8562000a2e600162000a118c8c620012206401000000000262002c31179091906401000000009004565b620010c66401000000000262002c7b179091906401000000009004565b620008ae6401000000000262002b5d179091906401000000009004565b95505050505050620010c0565b620f4240600654018811801562000a76575062989680600654018711155b1562000af15762000ae48462000ac7600162000aaa8c8c620012206401000000000262002c31179091906401000000009004565b620010c66401000000000262002c7b179091906401000000009004565b620008ae6401000000000262002b5d179091906401000000009004565b95505050505050620010c0565b62989680600654018811801562000b1057506301312d00600654018711155b1562000b8b5762000b7e8362000b61600162000b448c8c620012206401000000000262002c31179091906401000000009004565b620010c66401000000000262002c7b179091906401000000009004565b620008ae6401000000000262002b5d179091906401000000009004565b95505050505050620010c0565b6301312d00600654018811801562000bab57506301c9c380600654018711155b1562000c265762000c198262000bfc600162000bdf8c8c620012206401000000000262002c31179091906401000000009004565b620010c66401000000000262002c7b179091906401000000009004565b620008ae6401000000000262002b5d179091906401000000009004565b95505050505050620010c0565b6301c9c3806006540188111562000cac5762000c9f8162000c82600162000c658c8c620012206401000000000262002c31179091906401000000009004565b620010c66401000000000262002c7b179091906401000000009004565b620008ae6401000000000262002b5d179091906401000000009004565b95505050505050620010c0565b620f424060065401881115801562000ccb5750620f4240600654018710155b1562000dba5762000dad62000d2162000d03620f4240600654018a620012206401000000000262002c31179091906401000000009004565b86620008ae6401000000000262002b5d179091906401000000009004565b62000d9062000d72600162000d558d620f424060065401620012206401000000000262002c31179091906401000000009004565b620010c66401000000000262002c7b179091906401000000009004565b88620008ae6401000000000262002b5d179091906401000000009004565b620010c66401000000000262002c7b179091906401000000009004565b95505050505050620010c0565b6298968060065401881115801562000dd9575062989680600654018710155b1562000ec85762000ebb62000e2f62000e1162989680600654018a620012206401000000000262002c31179091906401000000009004565b85620008ae6401000000000262002b5d179091906401000000009004565b62000e9e62000e80600162000e638d6298968060065401620012206401000000000262002c31179091906401000000009004565b620010c66401000000000262002c7b179091906401000000009004565b87620008ae6401000000000262002b5d179091906401000000009004565b620010c66401000000000262002c7b179091906401000000009004565b95505050505050620010c0565b6301312d0060065401881115801562000ee957506301312d00600654018710155b1562000fda5762000fcd62000f4062000f226301312d00600654018a620012206401000000000262002c31179091906401000000009004565b84620008ae6401000000000262002b5d179091906401000000009004565b62000fb062000f92600162000f758d6301312d0060065401620012206401000000000262002c31179091906401000000009004565b620010c66401000000000262002c7b179091906401000000009004565b86620008ae6401000000000262002b5d179091906401000000009004565b620010c66401000000000262002c7b179091906401000000009004565b95505050505050620010c0565b620010b86200102b6200100d6301c9c380600654018a620012206401000000000262002c31179091906401000000009004565b83620008ae6401000000000262002b5d179091906401000000009004565b6200109b6200107d6001620010608d6301c9c38060065401620012206401000000000262002c31179091906401000000009004565b620010c66401000000000262002c7b179091906401000000009004565b85620008ae6401000000000262002b5d179091906401000000009004565b620010c66401000000000262002c7b179091906401000000009004565b955050505050505b92915050565b600080828401905083811015151562001147576040517f08c379a000000000000000000000000000000000000000000000000000000000815260040180806020018281038252601b8152602001807f536166654d6174683a206164646974696f6e206f766572666c6f77000000000081525060200191505060405180910390fd5b8091505092915050565b60008083118290151562001203576040517f08c379a00000000000000000000000000000000000000000000000000000000081526004018080602001828103825283818151815260200191508051906020019080838360005b83811015620011c7578082015181840152602081019050620011aa565b50505050905090810190601f168015620011f55780820380516001836020036101000a031916815260200191505b509250505060405180910390fd5b50600083858115156200121257fe5b049050809150509392505050565b60006200127383836040805190810160405280601e81526020017f536166654d6174683a207375627472616374696f6e206f766572666c6f7700008152506200127b640100000000026401000000009004565b905092915050565b600083831115829015156200132e576040517f08c379a00000000000000000000000000000000000000000000000000000000081526004018080602001828103825283818151815260200191508051906020019080838360005b83811015620012f2578082015181840152602081019050620012d5565b50505050905090810190601f168015620013205780820380516001836020036101000a031916815260200191505b509250505060405180910390fd5b5060008385039050809150509392505050565b61374580620013516000396000f3fe608060405234801561001057600080fd5b50d3801561001d57600080fd5b50d2801561002a57600080fd5b5060043610610184576000357c01000000000000000000000000000000000000000000000000000000009004806352e270e2116100fa5780638f32d59b116100b35780638f32d59b146104e25780639eae861b14610504578063b6b55f2514610548578063d0d41fe114610576578063eb3ae682146105ba578063f2fde38b146105d857610184565b806352e270e2146103735780635645b080146103e15780636ef75fa0146103ff578063715018a61461041d5780638d23fc61146104275780638da5cb5b1461049857610184565b8063245357a31161014c578063245357a3146102875780632e1a7d4d146102a55780633ad10ef6146102d357806342e3b0d21461031d5780634cdc9c631461034b57806352983a8f1461036957610184565b80630370607c14610189578063051ba87f146101a757806309e96008146101c5578063120f2eda146101f35780631d0ef7551461023d575b600080fd5b61019161061c565b6040518082815260200191505060405180910390f35b6101af610749565b6040518082815260200191505060405180910390f35b6101f1600480360360208110156101db57600080fd5b810190808035906020019092919050505061074f565b005b6101fb610865565b604051808273ffffffffffffffffffffffffffffffffffffffff1673ffffffffffffffffffffffffffffffffffffffff16815260200191505060405180910390f35b61024561088b565b604051808273ffffffffffffffffffffffffffffffffffffffff1673ffffffffffffffffffffffffffffffffffffffff16815260200191505060405180910390f35b61028f6108b1565b6040518082815260200191505060405180910390f35b6102d1600480360360208110156102bb57600080fd5b81019080803590602001909291905050506108b7565b005b6102db611014565b604051808273ffffffffffffffffffffffffffffffffffffffff1673ffffffffffffffffffffffffffffffffffffffff16815260200191505060405180910390f35b6103496004803603602081101561033357600080fd5b810190808035906020019092919050505061103a565b005b610353611349565b6040518082815260200191505060405180910390f35b61037161134f565b005b61039f6004803603602081101561038957600080fd5b8101908080359060200190929190505050611a85565b604051808273ffffffffffffffffffffffffffffffffffffffff1673ffffffffffffffffffffffffffffffffffffffff16815260200191505060405180910390f35b6103e9611ac3565b6040518082815260200191505060405180910390f35b610407611ad0565b6040518082815260200191505060405180910390f35b610425611ada565b005b6104696004803603602081101561043d57600080fd5b81019080803573ffffffffffffffffffffffffffffffffffffffff169060200190929190505050611c15565b604051808581526020018481526020018381526020018215151515815260200194505050505060405180910390f35b6104a0611c52565b604051808273ffffffffffffffffffffffffffffffffffffffff1673ffffffffffffffffffffffffffffffffffffffff16815260200191505060405180910390f35b6104ea611c7b565b604051808215151515815260200191505060405180910390f35b6105466004803603602081101561051a57600080fd5b81019080803573ffffffffffffffffffffffffffffffffffffffff169060200190929190505050611cd9565b005b6105746004803603602081101561055e57600080fd5b8101908080359060200190929190505050611e3e565b005b6105b86004803603602081101561058c57600080fd5b81019080803573ffffffffffffffffffffffffffffffffffffffff169060200190929190505050612751565b005b6105c26128b6565b6040518082815260200191505060405180910390f35b61061a600480360360208110156105ee57600080fd5b81019080803573ffffffffffffffffffffffffffffffffffffffff1690602001909291905050506128bc565b005b600080610627612944565b905060006106eb600160003373ffffffffffffffffffffffffffffffffffffffff1673ffffffffffffffffffffffffffffffffffffffff168152602001908152602001600020600201546106dd64e8d4a510006106cf86600160003373ffffffffffffffffffffffffffffffffffffffff1673ffffffffffffffffffffffffffffffffffffffff16815260200190815260200160002060000154612b5d90919063ffffffff16565b612be790919063ffffffff16565b612c3190919063ffffffff16565b905061074281600160003373ffffffffffffffffffffffffffffffffffffffff1673ffffffffffffffffffffffffffffffffffffffff16815260200190815260200160002060010154612c7b90919063ffffffff16565b9250505090565b60045481565b600760009054906101000a900473ffffffffffffffffffffffffffffffffffffffff1673ffffffffffffffffffffffffffffffffffffffff163373ffffffffffffffffffffffffffffffffffffffff16141515610814576040517f08c379a00000000000000000000000000000000000000000000000000000000081526004018080602001828103825260188152602001807f43616c6c6572206973206e6f7420746865206461656d6f6e000000000000000081525060200191505060405180910390fd5b61081c612944565b60038190555061082b81612d05565b7f4e8bac1a32b11d2514ec08e01a628be195b36461888a0a9658b7d33c97b4dc78816040518082815260200191505060405180910390a150565b600960009054906101000a900473ffffffffffffffffffffffffffffffffffffffff1681565b600760009054906101000a900473ffffffffffffffffffffffffffffffffffffffff1681565b60035481565b600160003373ffffffffffffffffffffffffffffffffffffffff1673ffffffffffffffffffffffffffffffffffffffff16815260200190815260200160002060030160009054906101000a900460ff16151561097b576040517f08c379a000000000000000000000000000000000000000000000000000000000815260040180806020018281038252601a8152602001807f4163636f756e74206973206e6f7420612064656c656761746f7200000000000081525060200191505060405180910390fd5b600081141561098957611011565b6000600160003373ffffffffffffffffffffffffffffffffffffffff1673ffffffffffffffffffffffffffffffffffffffff1681526020019081526020016000206000015414156109d957611011565b60006109e3612944565b90506000610aa7600160003373ffffffffffffffffffffffffffffffffffffffff1673ffffffffffffffffffffffffffffffffffffffff16815260200190815260200160002060020154610a9964e8d4a51000610a8b86600160003373ffffffffffffffffffffffffffffffffffffffff1673ffffffffffffffffffffffffffffffffffffffff16815260200190815260200160002060000154612b5d90919063ffffffff16565b612be790919063ffffffff16565b612c3190919063ffffffff16565b90506000811115610b4e57610b0781600160003373ffffffffffffffffffffffffffffffffffffffff1673ffffffffffffffffffffffffffffffffffffffff16815260200190815260200160002060010154612c7b90919063ffffffff16565b600160003373ffffffffffffffffffffffffffffffffffffffff1673ffffffffffffffffffffffffffffffffffffffff168152602001908152602001600020600101819055505b6000600160003373ffffffffffffffffffffffffffffffffffffffff1673ffffffffffffffffffffffffffffffffffffffff1681526020019081526020016000206000015484101515610be557600160003373ffffffffffffffffffffffffffffffffffffffff1673ffffffffffffffffffffffffffffffffffffffff168152602001908152602001600020600001549050610be9565b8390505b600b60009054906101000a900473ffffffffffffffffffffffffffffffffffffffff1673ffffffffffffffffffffffffffffffffffffffff166370a08231306040518263ffffffff167c0100000000000000000000000000000000000000000000000000000000028152600401808273ffffffffffffffffffffffffffffffffffffffff1673ffffffffffffffffffffffffffffffffffffffff16815260200191505060206040518083038186803b158015610ca457600080fd5b505afa158015610cb8573d6000803e3d6000fd5b505050506040513d6020811015610cce57600080fd5b81019080805190602001909291905050508111151515610d39576040517f08c379a00000000000000000000000000000000000000000000000000000000081526004018080602001828103825260268152602001806136d36026913960400191505060405180910390fd5b600b60009054906101000a900473ffffffffffffffffffffffffffffffffffffffff1673ffffffffffffffffffffffffffffffffffffffff1663a9059cbb33836040518363ffffffff167c0100000000000000000000000000000000000000000000000000000000028152600401808373ffffffffffffffffffffffffffffffffffffffff1673ffffffffffffffffffffffffffffffffffffffff16815260200182815260200192505050602060405180830381600087803b158015610dfe57600080fd5b505af1158015610e12573d6000803e3d6000fd5b505050506040513d6020811015610e2857600080fd5b810190808051906020019092919050505050610e8f81600160003373ffffffffffffffffffffffffffffffffffffffff1673ffffffffffffffffffffffffffffffffffffffff16815260200190815260200160002060000154612c3190919063ffffffff16565b600160003373ffffffffffffffffffffffffffffffffffffffff1673ffffffffffffffffffffffffffffffffffffffff16815260200190815260200160002060000181905550610eea81600454612c3190919063ffffffff16565b600481905550610f5c64e8d4a51000610f4e85600160003373ffffffffffffffffffffffffffffffffffffffff1673ffffffffffffffffffffffffffffffffffffffff16815260200190815260200160002060000154612b5d90919063ffffffff16565b612be790919063ffffffff16565b600160003373ffffffffffffffffffffffffffffffffffffffff1673ffffffffffffffffffffffffffffffffffffffff168152602001908152602001600020600201819055507f41ebc803482ede4e53affbf933a58c937037ae6029f4b061ac9c30333dd31f393385604051808373ffffffffffffffffffffffffffffffffffffffff1673ffffffffffffffffffffffffffffffffffffffff1681526020018281526020019250505060405180910390a15050505b50565b600860009054906101000a900473ffffffffffffffffffffffffffffffffffffffff1681565b611042611c7b565b15156110b6576040517f08c379a00000000000000000000000000000000000000000000000000000000081526004018080602001828103825260208152602001807f4f776e61626c653a2063616c6c6572206973206e6f7420746865206f776e657281525060200191505060405180910390fd5b80600a60009054906101000a900473ffffffffffffffffffffffffffffffffffffffff1673ffffffffffffffffffffffffffffffffffffffff166370a08231306040518263ffffffff167c0100000000000000000000000000000000000000000000000000000000028152600401808273ffffffffffffffffffffffffffffffffffffffff1673ffffffffffffffffffffffffffffffffffffffff16815260200191505060206040518083038186803b15801561117257600080fd5b505afa158015611186573d6000803e3d6000fd5b505050506040513d602081101561119c57600080fd5b810190808051906020019092919050505010151515611223576040517f08c379a000000000000000000000000000000000000000000000000000000000815260040180806020018281038252601e8152602001807f4e6f7420656e6f7567682062616c616e636520746f207769746864726177000081525060200191505060405180910390fd5b600a60009054906101000a900473ffffffffffffffffffffffffffffffffffffffff1673ffffffffffffffffffffffffffffffffffffffff1663a9059cbb600860009054906101000a900473ffffffffffffffffffffffffffffffffffffffff16836040518363ffffffff167c0100000000000000000000000000000000000000000000000000000000028152600401808373ffffffffffffffffffffffffffffffffffffffff1673ffffffffffffffffffffffffffffffffffffffff16815260200182815260200192505050602060405180830381600087803b15801561130a57600080fd5b505af115801561131e573d6000803e3d6000fd5b505050506040513d602081101561133457600080fd5b81019080805190602001909291905050505050565b60065481565b600160003373ffffffffffffffffffffffffffffffffffffffff1673ffffffffffffffffffffffffffffffffffffffff16815260200190815260200160002060030160009054906101000a900460ff161515611413576040517f08c379a000000000000000000000000000000000000000000000000000000000815260040180806020018281038252601a8152602001807f4163636f756e74206973206e6f7420612064656c656761746f7200000000000081525060200191505060405180910390fd5b600061141d612944565b905060006114e1600160003373ffffffffffffffffffffffffffffffffffffffff1673ffffffffffffffffffffffffffffffffffffffff168152602001908152602001600020600201546114d364e8d4a510006114c586600160003373ffffffffffffffffffffffffffffffffffffffff1673ffffffffffffffffffffffffffffffffffffffff16815260200190815260200160002060000154612b5d90919063ffffffff16565b612be790919063ffffffff16565b612c3190919063ffffffff16565b905060008111156115885761154181600160003373ffffffffffffffffffffffffffffffffffffffff1673ffffffffffffffffffffffffffffffffffffffff16815260200190815260200160002060010154612c7b90919063ffffffff16565b600160003373ffffffffffffffffffffffffffffffffffffffff1673ffffffffffffffffffffffffffffffffffffffff168152602001908152602001600020600101819055505b6000600a60009054906101000a900473ffffffffffffffffffffffffffffffffffffffff1673ffffffffffffffffffffffffffffffffffffffff166370a08231306040518263ffffffff167c0100000000000000000000000000000000000000000000000000000000028152600401808273ffffffffffffffffffffffffffffffffffffffff1673ffffffffffffffffffffffffffffffffffffffff16815260200191505060206040518083038186803b15801561164557600080fd5b505afa158015611659573d6000803e3d6000fd5b505050506040513d602081101561166f57600080fd5b8101908080519060200190929190505050905080600160003373ffffffffffffffffffffffffffffffffffffffff1673ffffffffffffffffffffffffffffffffffffffff1681526020019081526020016000206001015411156116f9577ff4d678b8ce6b5157126b1484a53523762a93571537a7d5ae97d8014a44715c9460405160405180910390a15b80600160003373ffffffffffffffffffffffffffffffffffffffff1673ffffffffffffffffffffffffffffffffffffffff1681526020019081526020016000206001015411151515611796576040517f08c379a00000000000000000000000000000000000000000000000000000000081526004018080602001828103825260268152602001806136d36026913960400191505060405180910390fd5b600a60009054906101000a900473ffffffffffffffffffffffffffffffffffffffff1673ffffffffffffffffffffffffffffffffffffffff1663a9059cbb33600160003373ffffffffffffffffffffffffffffffffffffffff1673ffffffffffffffffffffffffffffffffffffffff168152602001908152602001600020600101546040518363ffffffff167c0100000000000000000000000000000000000000000000000000000000028152600401808373ffffffffffffffffffffffffffffffffffffffff1673ffffffffffffffffffffffffffffffffffffffff16815260200182815260200192505050602060405180830381600087803b15801561189d57600080fd5b505af11580156118b1573d6000803e3d6000fd5b505050506040513d60208110156118c757600080fd5b81019080805190602001909291905050505061194564e8d4a5100061193785600160003373ffffffffffffffffffffffffffffffffffffffff1673ffffffffffffffffffffffffffffffffffffffff16815260200190815260200160002060000154612b5d90919063ffffffff16565b612be790919063ffffffff16565b600160003373ffffffffffffffffffffffffffffffffffffffff1673ffffffffffffffffffffffffffffffffffffffff168152602001908152602001600020600201819055506000600160003373ffffffffffffffffffffffffffffffffffffffff1673ffffffffffffffffffffffffffffffffffffffff168152602001908152602001600020600101819055507f53b9d5507ac4acc6089be6ad220e498a2ee4c787c3e697596406bc7f3dc19e7f33600160003373ffffffffffffffffffffffffffffffffffffffff1673ffffffffffffffffffffffffffffffffffffffff16815260200190815260200160002060010154604051808373ffffffffffffffffffffffffffffffffffffffff1673ffffffffffffffffffffffffffffffffffffffff1681526020018281526020019250505060405180910390a1505050565b600281815481101515611a9457fe5b906000526020600020016000915054906101000a900473ffffffffffffffffffffffffffffffffffffffff1681565b6000600280549050905090565b6000600454905090565b611ae2611c7b565b1515611b56576040517f08c379a00000000000000000000000000000000000000000000000000000000081526004018080602001828103825260208152602001807f4f776e61626c653a2063616c6c6572206973206e6f7420746865206f776e657281525060200191505060405180910390fd5b600073ffffffffffffffffffffffffffffffffffffffff166000809054906101000a900473ffffffffffffffffffffffffffffffffffffffff1673ffffffffffffffffffffffffffffffffffffffff167f8be0079c531659141344cd1fd0a4f28419497f9722a3daafe3b4186f6b6457e060405160405180910390a360008060006101000a81548173ffffffffffffffffffffffffffffffffffffffff021916908373ffffffffffffffffffffffffffffffffffffffff160217905550565b60016020528060005260406000206000915090508060000154908060010154908060020154908060030160009054906101000a900460ff16905084565b60008060009054906101000a900473ffffffffffffffffffffffffffffffffffffffff16905090565b60008060009054906101000a900473ffffffffffffffffffffffffffffffffffffffff1673ffffffffffffffffffffffffffffffffffffffff16611cbd612f2b565b73ffffffffffffffffffffffffffffffffffffffff1614905090565b611ce1611c7b565b1515611d55576040517f08c379a00000000000000000000000000000000000000000000000000000000081526004018080602001828103825260208152602001807f4f776e61626c653a2063616c6c6572206973206e6f7420746865206f776e657281525060200191505060405180910390fd5b600073ffffffffffffffffffffffffffffffffffffffff168173ffffffffffffffffffffffffffffffffffffffff1614151515611dfa576040517f08c379a00000000000000000000000000000000000000000000000000000000081526004018080602001828103825260168152602001807f496e76616c6964206461656d6f6e20616464726573730000000000000000000081525060200191505060405180910390fd5b80600760006101000a81548173ffffffffffffffffffffffffffffffffffffffff021916908373ffffffffffffffffffffffffffffffffffffffff16021790555050565b600160003373ffffffffffffffffffffffffffffffffffffffff1673ffffffffffffffffffffffffffffffffffffffff16815260200190815260200160002060030160009054906101000a900460ff161515611f02576040517f08c379a000000000000000000000000000000000000000000000000000000000815260040180806020018281038252601a8152602001807f4163636f756e74206973206e6f7420612064656c656761746f7200000000000081525060200191505060405180910390fd5b6000811415611f105761274e565b6000600b60009054906101000a900473ffffffffffffffffffffffffffffffffffffffff1673ffffffffffffffffffffffffffffffffffffffff166370a08231336040518263ffffffff167c0100000000000000000000000000000000000000000000000000000000028152600401808273ffffffffffffffffffffffffffffffffffffffff1673ffffffffffffffffffffffffffffffffffffffff16815260200191505060206040518083038186803b158015611fcd57600080fd5b505afa158015611fe1573d6000803e3d6000fd5b505050506040513d6020811015611ff757600080fd5b81019080805190602001909291905050509050808211151515612065576040517f08c379a00000000000000000000000000000000000000000000000000000000081526004018080602001828103825260268152602001806136d36026913960400191505060405180910390fd5b600b60009054906101000a900473ffffffffffffffffffffffffffffffffffffffff1673ffffffffffffffffffffffffffffffffffffffff166323b872dd3330856040518463ffffffff167c0100000000000000000000000000000000000000000000000000000000028152600401808473ffffffffffffffffffffffffffffffffffffffff1673ffffffffffffffffffffffffffffffffffffffff1681526020018373ffffffffffffffffffffffffffffffffffffffff1673ffffffffffffffffffffffffffffffffffffffff1681526020018281526020019350505050602060405180830381600087803b15801561215e57600080fd5b505af1158015612172573d6000803e3d6000fd5b505050506040513d602081101561218857600080fd5b81019080805190602001909291905050505060006121a4612944565b9050600160003373ffffffffffffffffffffffffffffffffffffffff1673ffffffffffffffffffffffffffffffffffffffff16815260200190815260200160002060030160009054906101000a900460ff1615156123c25760018060003373ffffffffffffffffffffffffffffffffffffffff1673ffffffffffffffffffffffffffffffffffffffff16815260200190815260200160002060030160006101000a81548160ff0219169083151502179055506000600160003373ffffffffffffffffffffffffffffffffffffffff1673ffffffffffffffffffffffffffffffffffffffff168152602001908152602001600020600101819055506122c864e8d4a510006122ba8386612b5d90919063ffffffff16565b612be790919063ffffffff16565b600160003373ffffffffffffffffffffffffffffffffffffffff1673ffffffffffffffffffffffffffffffffffffffff1681526020019081526020016000206002018190555082600160003373ffffffffffffffffffffffffffffffffffffffff1673ffffffffffffffffffffffffffffffffffffffff1681526020019081526020016000206000018190555060023390806001815401808255809150509060018203906000526020600020016000909192909190916101000a81548173ffffffffffffffffffffffffffffffffffffffff021916908373ffffffffffffffffffffffffffffffffffffffff16021790555050505061274e565b6000600160003373ffffffffffffffffffffffffffffffffffffffff1673ffffffffffffffffffffffffffffffffffffffff1681526020019081526020016000206000015411156125785760006124cf600160003373ffffffffffffffffffffffffffffffffffffffff1673ffffffffffffffffffffffffffffffffffffffff168152602001908152602001600020600201546124c164e8d4a510006124b386600160003373ffffffffffffffffffffffffffffffffffffffff1673ffffffffffffffffffffffffffffffffffffffff16815260200190815260200160002060000154612b5d90919063ffffffff16565b612be790919063ffffffff16565b612c3190919063ffffffff16565b905060008111156125765761252f81600160003373ffffffffffffffffffffffffffffffffffffffff1673ffffffffffffffffffffffffffffffffffffffff16815260200190815260200160002060010154612c7b90919063ffffffff16565b600160003373ffffffffffffffffffffffffffffffffffffffff1673ffffffffffffffffffffffffffffffffffffffff168152602001908152602001600020600101819055505b505b6125cd83600160003373ffffffffffffffffffffffffffffffffffffffff1673ffffffffffffffffffffffffffffffffffffffff16815260200190815260200160002060000154612c7b90919063ffffffff16565b600160003373ffffffffffffffffffffffffffffffffffffffff1673ffffffffffffffffffffffffffffffffffffffff1681526020019081526020016000206000018190555061262883600454612c7b90919063ffffffff16565b60048190555061269a64e8d4a5100061268c83600160003373ffffffffffffffffffffffffffffffffffffffff1673ffffffffffffffffffffffffffffffffffffffff16815260200190815260200160002060000154612b5d90919063ffffffff16565b612be790919063ffffffff16565b600160003373ffffffffffffffffffffffffffffffffffffffff1673ffffffffffffffffffffffffffffffffffffffff168152602001908152602001600020600201819055507f5aedeeae90d2689c6e011778ba0380949d9286ec47fd37c8444e569536ae6c5a3384604051808373ffffffffffffffffffffffffffffffffffffffff1673ffffffffffffffffffffffffffffffffffffffff1681526020018281526020019250505060405180910390a150505b50565b612759611c7b565b15156127cd576040517f08c379a00000000000000000000000000000000000000000000000000000000081526004018080602001828103825260208152602001807f4f776e61626c653a2063616c6c6572206973206e6f7420746865206f776e657281525060200191505060405180910390fd5b600073ffffffffffffffffffffffffffffffffffffffff168173ffffffffffffffffffffffffffffffffffffffff1614151515612872576040517f08c379a00000000000000000000000000000000000000000000000000000000081526004018080602001828103825260138152602001807f496e76616c69642064657620616464726573730000000000000000000000000081525060200191505060405180910390fd5b80600860006101000a81548173ffffffffffffffffffffffffffffffffffffffff021916908373ffffffffffffffffffffffffffffffffffffffff16021790555050565b60055481565b6128c4611c7b565b1515612938576040517f08c379a00000000000000000000000000000000000000000000000000000000081526004018080602001828103825260208152602001807f4f776e61626c653a2063616c6c6572206973206e6f7420746865206f776e657281525060200191505060405180910390fd5b61294181612f33565b50565b600080600d60009054906101000a900473ffffffffffffffffffffffffffffffffffffffff1673ffffffffffffffffffffffffffffffffffffffff1663a9f8d1816040518163ffffffff167c010000000000000000000000000000000000000000000000000000000002815260040160206040518083038186803b1580156129cb57600080fd5b505afa1580156129df573d6000803e3d6000fd5b505050506040513d60208110156129f557600080fd5b810190808051906020019092919050505090504381101515612a1c57600354915050612b5a565b6000600d60009054906101000a900473ffffffffffffffffffffffffffffffffffffffff1673ffffffffffffffffffffffffffffffffffffffff16637a54c3d26040518163ffffffff167c010000000000000000000000000000000000000000000000000000000002815260040160206040518083038186803b158015612aa257600080fd5b505afa158015612ab6573d6000803e3d6000fd5b505050506040513d6020811015612acc57600080fd5b810190808051906020019092919050505090506000612b1482612b0664e8d4a51000612af88743613079565b612b5d90919063ffffffff16565b612be790919063ffffffff16565b9050612b54612b43620f4240612b3560055485612b5d90919063ffffffff16565b612be790919063ffffffff16565b600354612c7b90919063ffffffff16565b93505050505b90565b600080831415612b705760009050612be1565b60008284029050828482811515612b8357fe5b04141515612bdc576040517f08c379a00000000000000000000000000000000000000000000000000000000081526004018080602001828103825260218152602001806136f96021913960400191505060405180910390fd5b809150505b92915050565b6000612c2983836040805190810160405280601a81526020017f536166654d6174683a206469766973696f6e206279207a65726f000000000000815250613520565b905092915050565b6000612c7383836040805190810160405280601e81526020017f536166654d6174683a207375627472616374696f6e206f766572666c6f7700008152506135ea565b905092915050565b6000808284019050838110151515612cfb576040517f08c379a000000000000000000000000000000000000000000000000000000000815260040180806020018281038252601b8152602001807f536166654d6174683a206164646974696f6e206f766572666c6f77000000000081525060200191505060405180910390fd5b8091505092915050565b6000600c60009054906101000a900473ffffffffffffffffffffffffffffffffffffffff1673ffffffffffffffffffffffffffffffffffffffff166370a08231600960009054906101000a900473ffffffffffffffffffffffffffffffffffffffff166040518263ffffffff167c0100000000000000000000000000000000000000000000000000000000028152600401808273ffffffffffffffffffffffffffffffffffffffff1673ffffffffffffffffffffffffffffffffffffffff16815260200191505060206040518083038186803b158015612de457600080fd5b505afa158015612df8573d6000803e3d6000fd5b505050506040513d6020811015612e0e57600080fd5b810190808051906020019092919050505090506000600b60009054906101000a900473ffffffffffffffffffffffffffffffffffffffff1673ffffffffffffffffffffffffffffffffffffffff166318160ddd6040518163ffffffff167c010000000000000000000000000000000000000000000000000000000002815260040160206040518083038186803b158015612ea757600080fd5b505afa158015612ebb573d6000803e3d6000fd5b505050506040513d6020811015612ed157600080fd5b81019080805190602001909291905050509050612f2083612f1283612f0464e8d4a5100087612b5d90919063ffffffff16565b612be790919063ffffffff16565b612b5d90919063ffffffff16565b600581905550505050565b600033905090565b600073ffffffffffffffffffffffffffffffffffffffff168173ffffffffffffffffffffffffffffffffffffffff1614151515612fbb576040517f08c379a00000000000000000000000000000000000000000000000000000000081526004018080602001828103825260268152602001806136ad6026913960400191505060405180910390fd5b8073ffffffffffffffffffffffffffffffffffffffff166000809054906101000a900473ffffffffffffffffffffffffffffffffffffffff1673ffffffffffffffffffffffffffffffffffffffff167f8be0079c531659141344cd1fd0a4f28419497f9722a3daafe3b4186f6b6457e060405160405180910390a3806000806101000a81548173ffffffffffffffffffffffffffffffffffffffff021916908373ffffffffffffffffffffffffffffffffffffffff16021790555050565b6000806301312d00905060006298968090506000624c4b4090506000622625a090506000621312d090508688111515156130b257600080fd5b620f42406006540187111515613106576130fa856130ec60016130de8c8c612c3190919063ffffffff16565b612c7b90919063ffffffff16565b612b5d90919063ffffffff16565b9550505050505061351a565b620f42406006540188118015613123575062989680600654018711155b1561316c576131608461315260016131448c8c612c3190919063ffffffff16565b612c7b90919063ffffffff16565b612b5d90919063ffffffff16565b9550505050505061351a565b62989680600654018811801561318a57506301312d00600654018711155b156131d3576131c7836131b960016131ab8c8c612c3190919063ffffffff16565b612c7b90919063ffffffff16565b612b5d90919063ffffffff16565b9550505050505061351a565b6301312d0060065401881180156131f257506301c9c380600654018711155b1561323b5761322f8261322160016132138c8c612c3190919063ffffffff16565b612c7b90919063ffffffff16565b612b5d90919063ffffffff16565b9550505050505061351a565b6301c9c3806006540188111561328f576132838161327560016132678c8c612c3190919063ffffffff16565b612c7b90919063ffffffff16565b612b5d90919063ffffffff16565b9550505050505061351a565b620f42406006540188111580156132ad5750620f4240600654018710155b1561333a5761332e6132e16132d2620f4240600654018a612c3190919063ffffffff16565b86612b5d90919063ffffffff16565b61332061331160016133038d620f424060065401612c3190919063ffffffff16565b612c7b90919063ffffffff16565b88612b5d90919063ffffffff16565b612c7b90919063ffffffff16565b9550505050505061351a565b62989680600654018811158015613358575062989680600654018710155b156133e5576133d961338c61337d62989680600654018a612c3190919063ffffffff16565b85612b5d90919063ffffffff16565b6133cb6133bc60016133ae8d6298968060065401612c3190919063ffffffff16565b612c7b90919063ffffffff16565b87612b5d90919063ffffffff16565b612c7b90919063ffffffff16565b9550505050505061351a565b6301312d0060065401881115801561340557506301312d00600654018710155b156134945761348861343a61342b6301312d00600654018a612c3190919063ffffffff16565b84612b5d90919063ffffffff16565b61347a61346b600161345d8d6301312d0060065401612c3190919063ffffffff16565b612c7b90919063ffffffff16565b86612b5d90919063ffffffff16565b612c7b90919063ffffffff16565b9550505050505061351a565b6135126134c46134b56301c9c380600654018a612c3190919063ffffffff16565b83612b5d90919063ffffffff16565b6135046134f560016134e78d6301c9c38060065401612c3190919063ffffffff16565b612c7b90919063ffffffff16565b85612b5d90919063ffffffff16565b612c7b90919063ffffffff16565b955050505050505b92915050565b6000808311829015156135ce576040517f08c379a00000000000000000000000000000000000000000000000000000000081526004018080602001828103825283818151815260200191508051906020019080838360005b83811015613593578082015181840152602081019050613578565b50505050905090810190601f1680156135c05780820380516001836020036101000a031916815260200191505b509250505060405180910390fd5b50600083858115156135dc57fe5b049050809150509392505050565b60008383111582901515613699576040517f08c379a00000000000000000000000000000000000000000000000000000000081526004018080602001828103825283818151815260200191508051906020019080838360005b8381101561365e578082015181840152602081019050613643565b50505050905090810190601f16801561368b5780820380516001836020036101000a031916815260200191505b509250505060405180910390fd5b506000838503905080915050939250505056fe4f776e61626c653a206e6577206f776e657220697320746865207a65726f206164647265737345524332303a207472616e7366657220616d6f756e7420657863656564732062616c616e6365536166654d6174683a206d756c7469706c69636174696f6e206f766572666c6f77a165627a7a7230582084112e6597975ea90a21084472e3b267f1c9e769ebb8cf76ef1c52fd03f0e69b0029536166654d6174683a206d756c7469706c69636174696f6e206f766572666c6f77",
  "source": "pragma solidity ^0.5.0;\n\nimport \"./SafeMath.sol\";\nimport \"./Ownable.sol\";\n\ninterface ERC20Token {\n    function transfer(address _to, uint256 _value) external returns (bool);\n    function transferFrom(address sender, address recipient, uint256 amount) external returns (bool);\n    function balanceOf(address account) external view returns (uint256);\n    function totalSupply() external view returns (uint256);\n}\n\ninterface PeanutsPool {\n    function genesisBlock() external view returns (uint256);\n    function lastRewardBlock() external view returns (uint256);\n    function totalDepositedSP() external view returns (uint256);\n}\n\ncontract TspLPPooling is Ownable {\n    using SafeMath for uint256;\n    struct Delegator {\n        uint256 tspLPAmount;             // TSP-LP token\n        uint256 availablePeanuts;       // minted peanuts for user\n        uint256 debtRewards;            // rewards debt\n        bool hasDeposited;              // set true when first time deposit\n    }\n\n    mapping(address => Delegator) public delegators;\n    address[] public delegatorsList;\n    uint256 public shareAcc;                        // reward peanuts per TSPLP * 1e12\n    uint256 public totalDepositedTSPLP;\n    uint256 public TSPLPToVests;                    // TSP-LP to vests * 1e12\n    uint256 public genesisBlock;                    \n    address public daemonAddress;\n    address public devAddress;                      // send balance peanuts to this devAddress\n    address public LPAddress;                       // address of TRX-TSP pool    \n\n    ERC20Token Pnuts;                               // pnut token\n    ERC20Token TspLP;                               // Tsp-LP token\n    ERC20Token Tsp;                                 // TSP token\n    PeanutsPool PnutPool;                           // pnutPool :use to cal acc\n\n    modifier onlyDaemon(){\n        require(msg.sender == daemonAddress, \"Caller is not the daemon\");\n        _;\n    }\n\n    modifier onlyDelegator() {\n        require(delegators[msg.sender].hasDeposited, \"Account is not a delegator\");\n        _;\n    }\n\n\n    event DepositTSP(address delegator, uint256 amount);\n    event WithdrawTSP(address delegator, uint256 amount);\n    event WithdrawPeanuts(address delegator, uint256 amount);\n    event UpdateData(uint256 vestsToSP);\n    event InsufficientBalance();\n\n    constructor (address _pnuts, address _pnutPool, address _tsp, address _tsplp, address _LPAddress, uint256 _tspToVests) public {\n        Pnuts = ERC20Token(_pnuts);\n        TspLP = ERC20Token(_tsplp);\n        Tsp = ERC20Token(_tsp);\n        LPAddress = _LPAddress;\n        PnutPool = PeanutsPool(_pnutPool);\n\n        shareAcc = 0;\n        totalDepositedTSPLP = 0;\n        genesisBlock = PnutPool.genesisBlock();\n\n//      set shareAcc first time\n        _updateTSPLPToVests(_tspToVests);\n        shareAcc = _calculateCurrentAcc();\n\n    }\n\n    function deposit(uint256 _amount)\n        public\n        onlyDelegator\n    {\n        if (_amount == 0) return;\n\n        uint256 tspLPBalance = TspLP.balanceOf(msg.sender);\n        require(_amount <= tspLPBalance, \"ERC20: transfer amount exceeds balance\");\n\n        TspLP.transferFrom(msg.sender, address(this), _amount);\n\n        uint256 _shareAcc = _calculateCurrentAcc();\n\n        if(!delegators[msg.sender].hasDeposited){\n            delegators[msg.sender].hasDeposited = true;\n            delegators[msg.sender].availablePeanuts = 0;\n            delegators[msg.sender].debtRewards = _amount.mul(_shareAcc).div(1e12);\n            delegators[msg.sender].tspLPAmount = _amount;\n            delegatorsList.push(msg.sender);\n            return;\n        }\n        if (delegators[msg.sender].tspLPAmount > 0){\n            uint256 pending = delegators[msg.sender].tspLPAmount.mul(_shareAcc).div(1e12).sub(delegators[msg.sender].debtRewards);\n            if (pending > 0){\n                delegators[msg.sender].availablePeanuts = delegators[msg.sender].availablePeanuts.add(pending);\n            }\n        }\n        delegators[msg.sender].tspLPAmount = delegators[msg.sender].tspLPAmount.add(_amount);\n        totalDepositedTSPLP = totalDepositedTSPLP.add(_amount);\n\n        delegators[msg.sender].debtRewards = delegators[msg.sender].tspLPAmount.mul(_shareAcc).div(1e12);\n\n        emit DepositTSP(msg.sender, _amount);\n\n    }\n\n    function withdraw(uint256 _amount)\n        public\n        onlyDelegator\n    {\n        if (_amount == 0) return;\n\n        if (delegators[msg.sender].tspLPAmount == 0) return;\n\n        uint256 _shareAcc = _calculateCurrentAcc();\n        uint256 pending = delegators[msg.sender].tspLPAmount.mul(_shareAcc).div(1e12).sub(delegators[msg.sender].debtRewards);\n        if(pending > 0){\n            delegators[msg.sender].availablePeanuts = delegators[msg.sender].availablePeanuts.add(pending);\n        }\n        uint256 withdrawAmount;\n        if (_amount >= delegators[msg.sender].tspLPAmount)\n            withdrawAmount = delegators[msg.sender].tspLPAmount;\n        else\n            withdrawAmount = _amount;\n\n        require(withdrawAmount <= TspLP.balanceOf(address(this)), \"ERC20: transfer amount exceeds balance\");\n        TspLP.transfer(msg.sender, withdrawAmount);\n        delegators[msg.sender].tspLPAmount = delegators[msg.sender].tspLPAmount.sub(withdrawAmount);\n        totalDepositedTSPLP = totalDepositedTSPLP.sub(withdrawAmount);\n        delegators[msg.sender].debtRewards = delegators[msg.sender].tspLPAmount.mul(_shareAcc).div(1e12);\n\n\n        emit WithdrawTSP(msg.sender, _amount);\n\n    }\n\n    function withdrawPeanuts()\n        public\n        onlyDelegator\n    {\n         uint256 _shareAcc = _calculateCurrentAcc();\n\n        uint256 pending = delegators[msg.sender].tspLPAmount.mul(_shareAcc).div(1e12).sub(delegators[msg.sender].debtRewards);\n        if (pending > 0)\n            delegators[msg.sender].availablePeanuts = delegators[msg.sender].availablePeanuts.add(pending);\n\n        uint256 balanceOfPnut = Pnuts.balanceOf(address(this));\n\n        if (delegators[msg.sender].availablePeanuts > balanceOfPnut){\n            emit InsufficientBalance();\n        }\n        \n        require(delegators[msg.sender].availablePeanuts <= balanceOfPnut, \"ERC20: transfer amount exceeds balance\");\n        Pnuts.transfer(msg.sender, delegators[msg.sender].availablePeanuts);\n        delegators[msg.sender].debtRewards = delegators[msg.sender].tspLPAmount.mul(_shareAcc).div(1e12);\n        delegators[msg.sender].availablePeanuts = 0;\n\n        emit WithdrawPeanuts(msg.sender, delegators[msg.sender].availablePeanuts);\n    }\n\n//  _tspToVests = totalvest / totalsteem * 1e6\n    function updateData(uint256 _tspToVests)\n        public\n        onlyDaemon\n    {\n        // cul acc use the old vestsToTSPlP,then update vestsTSPLP\n        shareAcc = _calculateCurrentAcc();\n\n        _updateTSPLPToVests(_tspToVests);\n\n        emit UpdateData(_tspToVests);\n    }\n\n    function _calculateCurrentAcc() internal view returns (uint256) {\n        uint256 lastRewardBlock = PnutPool.lastRewardBlock();\n        if (lastRewardBlock >= block.number) return shareAcc;\n        uint256 totalDepositedSP = PnutPool.totalDepositedSP();\n        uint256 readyRewardsPerVests = _calculateReward(lastRewardBlock,block.number).mul(1e12).div(totalDepositedSP);\n        return shareAcc.add(readyRewardsPerVests.mul(TSPLPToVests).div(1e6));\n    }\n\n    // calculate reward between blocks [from, to]\n    function _calculateReward(uint256 from, uint256 to) internal view returns (uint256) {\n        uint256 BASE_20  = 20 * 1e6;\n        uint256 BASE_10  = 10 * 1e6;\n        uint256 BASE_5  = 5 * 1e6;\n        uint256 BASE_2  = 25 * 1e5;\n        uint256 BASE_1  = 125 * 1e4;\n\n        require(from <= to);\n        if (to <= (genesisBlock + 1000000)) {\n            return to.sub(from).add(1).mul(BASE_20);\n        } else if (from > (genesisBlock + 1000000) && to <= (genesisBlock + 10000000)) {\n            return to.sub(from).add(1).mul(BASE_10);\n        } else if (from > (genesisBlock + 10000000) && to <= (genesisBlock + 20000000)) {\n            return to.sub(from).add(1).mul(BASE_5);\n        } else if (from > (genesisBlock + 20000000) && to <= (genesisBlock + 30000000)) {\n            return to.sub(from).add(1).mul(BASE_2);\n        } else if(from > (genesisBlock + 30000000)) {\n            return to.sub(from).add(1).mul(BASE_1);\n        } else {    // reward maybe different under those blocks, so calculate it one by one\n            if (from <= (genesisBlock + 1000000) && to >= (genesisBlock + 1000000)) {\n                return BASE_20.mul((genesisBlock + 1000000).sub(from).add(1)).add(BASE_10.mul(to.sub((genesisBlock + 1000000))));\n            } else if (from <= (genesisBlock + 10000000) && to >= (genesisBlock + 10000000)) {\n                return BASE_10.mul((genesisBlock + 10000000).sub(from).add(1)).add(BASE_5.mul(to.sub((genesisBlock + 10000000))));\n            } else if (from <= (genesisBlock + 20000000) && to >= (genesisBlock + 20000000)) {\n                return BASE_5.mul((genesisBlock + 20000000).sub(from).add(1)).add(BASE_2.mul(to.sub((genesisBlock + 20000000))));\n            } else {\n                return BASE_2.mul((genesisBlock + 30000000).sub(from).add(1)).add(BASE_1.mul(to.sub((genesisBlock + 30000000))));\n            }\n        }\n    }\n\n    function _updateTSPLPToVests(uint256 _vestsToTSP) internal {\n        uint256 TSPinPool = Tsp.balanceOf(LPAddress);\n        uint256 totalLPToken = TspLP.totalSupply();\n        TSPLPToVests = TSPinPool.mul(1e12).div(totalLPToken).mul(_vestsToTSP);\n        // TSPLPToVests = TSPinPool + totalLPToken + _vestsToTSP;\n    }\n\n    function withdrawBanlanceOfPeanuts(uint256 _amount)\n        public\n        onlyOwner\n    {\n        require(Pnuts.balanceOf(address(this)) >= _amount, \"Not enough balance to withdraw\");\n        Pnuts.transfer(devAddress, _amount);\n    }\n\n    function getPendingPeanuts() public view returns (uint256) {\n        uint256 _shareAcc = _calculateCurrentAcc();\n        uint256 pending = delegators[msg.sender].tspLPAmount.mul(_shareAcc).div(1e12).sub(delegators[msg.sender].debtRewards);\n        return delegators[msg.sender].availablePeanuts.add(pending);\n    }\n\n       // return TSP-LP as unit\n    function getTotalDepositedSP() public view returns (uint256) {\n        return totalDepositedTSPLP;\n    }\n\n    function getDelegatorListLength() public view returns(uint256){\n        return delegatorsList.length;\n    }\n\n    function setDaemonAddress(address daemon)\n        public\n        onlyOwner\n    {\n        require(daemon != address(0), \"Invalid daemon address\");\n        daemonAddress = daemon;    \n    }\n\n        // should do this before game start\n    function setDevAddress(address dev) \n        public\n        onlyOwner\n    {\n        require(dev != address(0), \"Invalid dev address\");\n        devAddress = dev;\n    }\n\n}",
  "sourcePath": "/Users/wangxi/work/nutbox-contract/contracts/TspLPPooling.sol",
  "compiler": {
    "name": "solc",
    "version": "0.5.4+commit.d15a3125.mod.Emscripten.clang"
  },
  "schemaVersion": "2.0.1",
  "updatedAt": "2020-12-24T02:55:45.082Z"
}