{
  "contractName": "TspPooling",
  "abi": [
    {
      "constant": true,
      "inputs": [],
      "name": "shareAcc",
      "outputs": [
        {
          "name": "",
          "type": "uint256"
        }
      ],
      "payable": false,
      "stateMutability": "view",
      "type": "function"
    },
    {
      "constant": true,
      "inputs": [],
      "name": "devAddress",
      "outputs": [
        {
          "name": "",
          "type": "address"
        }
      ],
      "payable": false,
      "stateMutability": "view",
      "type": "function"
    },
    {
      "constant": true,
      "inputs": [
        {
          "name": "",
          "type": "uint256"
        }
      ],
      "name": "delegatorsList",
      "outputs": [
        {
          "name": "",
          "type": "address"
        }
      ],
      "payable": false,
      "stateMutability": "view",
      "type": "function"
    },
    {
      "constant": true,
      "inputs": [],
      "name": "totalDepositedTSP",
      "outputs": [
        {
          "name": "",
          "type": "uint256"
        }
      ],
      "payable": false,
      "stateMutability": "view",
      "type": "function"
    },
    {
      "constant": false,
      "inputs": [],
      "name": "renounceOwnership",
      "outputs": [],
      "payable": false,
      "stateMutability": "nonpayable",
      "type": "function"
    },
    {
      "constant": true,
      "inputs": [
        {
          "name": "",
          "type": "address"
        }
      ],
      "name": "delegators",
      "outputs": [
        {
          "name": "tspAmount",
          "type": "uint256"
        },
        {
          "name": "availablePeanuts",
          "type": "uint256"
        },
        {
          "name": "debtRewards",
          "type": "uint256"
        },
        {
          "name": "hasDeposited",
          "type": "bool"
        }
      ],
      "payable": false,
      "stateMutability": "view",
      "type": "function"
    },
    {
      "constant": true,
      "inputs": [],
      "name": "owner",
      "outputs": [
        {
          "name": "",
          "type": "address"
        }
      ],
      "payable": false,
      "stateMutability": "view",
      "type": "function"
    },
    {
      "constant": true,
      "inputs": [],
      "name": "isOwner",
      "outputs": [
        {
          "name": "",
          "type": "bool"
        }
      ],
      "payable": false,
      "stateMutability": "view",
      "type": "function"
    },
    {
      "constant": true,
      "inputs": [],
      "name": "lastRewardBlock",
      "outputs": [
        {
          "name": "",
          "type": "uint256"
        }
      ],
      "payable": false,
      "stateMutability": "view",
      "type": "function"
    },
    {
      "constant": false,
      "inputs": [
        {
          "name": "newOwner",
          "type": "address"
        }
      ],
      "name": "transferOwnership",
      "outputs": [],
      "payable": false,
      "stateMutability": "nonpayable",
      "type": "function"
    },
    {
      "inputs": [
        {
          "name": "_punts",
          "type": "address"
        },
        {
          "name": "_pnutPool",
          "type": "address"
        },
        {
          "name": "_tsp",
          "type": "address"
        }
      ],
      "payable": false,
      "stateMutability": "nonpayable",
      "type": "constructor"
    },
    {
      "anonymous": false,
      "inputs": [
        {
          "indexed": false,
          "name": "delegator",
          "type": "address"
        },
        {
          "indexed": false,
          "name": "amount",
          "type": "uint256"
        }
      ],
      "name": "DepositTSP",
      "type": "event"
    },
    {
      "anonymous": false,
      "inputs": [
        {
          "indexed": false,
          "name": "delegator",
          "type": "address"
        },
        {
          "indexed": false,
          "name": "amount",
          "type": "uint256"
        }
      ],
      "name": "WithdrawTSP",
      "type": "event"
    },
    {
      "anonymous": false,
      "inputs": [
        {
          "indexed": false,
          "name": "delegator",
          "type": "address"
        },
        {
          "indexed": false,
          "name": "amount",
          "type": "uint256"
        }
      ],
      "name": "WithdrawPeanuts",
      "type": "event"
    },
    {
      "anonymous": false,
      "inputs": [
        {
          "indexed": true,
          "name": "previousOwner",
          "type": "address"
        },
        {
          "indexed": true,
          "name": "newOwner",
          "type": "address"
        }
      ],
      "name": "OwnershipTransferred",
      "type": "event"
    },
    {
      "constant": false,
      "inputs": [
        {
          "name": "dev",
          "type": "address"
        }
      ],
      "name": "setDevAddress",
      "outputs": [],
      "payable": false,
      "stateMutability": "nonpayable",
      "type": "function"
    },
    {
      "constant": false,
      "inputs": [
        {
          "name": "_amount",
          "type": "uint256"
        }
      ],
      "name": "deposit",
      "outputs": [],
      "payable": false,
      "stateMutability": "nonpayable",
      "type": "function"
    },
    {
      "constant": false,
      "inputs": [
        {
          "name": "_amount",
          "type": "uint256"
        }
      ],
      "name": "withdraw",
      "outputs": [],
      "payable": false,
      "stateMutability": "nonpayable",
      "type": "function"
    },
    {
      "constant": false,
      "inputs": [],
      "name": "withdrawPeanuts",
      "outputs": [],
      "payable": false,
      "stateMutability": "nonpayable",
      "type": "function"
    },
    {
      "constant": true,
      "inputs": [],
      "name": "getPendingPeanuts",
      "outputs": [
        {
          "name": "",
          "type": "uint256"
        }
      ],
      "payable": false,
      "stateMutability": "view",
      "type": "function"
    },
    {
      "constant": true,
      "inputs": [],
      "name": "getDelegatorListLength",
      "outputs": [
        {
          "name": "",
          "type": "uint256"
        }
      ],
      "payable": false,
      "stateMutability": "view",
      "type": "function"
    }
  ],
  "bytecode": "0x60806040523480156200001157600080fd5b50d380156200001f57600080fd5b50d280156200002d57600080fd5b5060405160608062002f0e833981018060405260608110156200004f57600080fd5b810190808051906020019092919080519060200190929190805190602001909291905050506200008d6200022c640100000000026401000000009004565b6000806101000a81548173ffffffffffffffffffffffffffffffffffffffff021916908373ffffffffffffffffffffffffffffffffffffffff1602179055506000809054906101000a900473ffffffffffffffffffffffffffffffffffffffff1673ffffffffffffffffffffffffffffffffffffffff16600073ffffffffffffffffffffffffffffffffffffffff167f8be0079c531659141344cd1fd0a4f28419497f9722a3daafe3b4186f6b6457e060405160405180910390a382600760006101000a81548173ffffffffffffffffffffffffffffffffffffffff021916908373ffffffffffffffffffffffffffffffffffffffff16021790555080600860006101000a81548173ffffffffffffffffffffffffffffffffffffffff021916908373ffffffffffffffffffffffffffffffffffffffff16021790555081600960006101000a81548173ffffffffffffffffffffffffffffffffffffffff021916908373ffffffffffffffffffffffffffffffffffffffff16021790555060006003819055506000600481905550600060068190555050505062000234565b600033905090565b612cca80620002446000396000f3fe608060405234801561001057600080fd5b50d3801561001d57600080fd5b50d2801561002a57600080fd5b5060043610610137576000357c010000000000000000000000000000000000000000000000000000000090048063715018a6116100ce578063a9f8d1811161009d578063a9f8d1811461038b578063b6b55f25146103a9578063d0d41fe1146103d7578063f2fde38b1461041b57610137565b8063715018a6146102a45780638d23fc61146102ae5780638da5cb5b1461031f5780638f32d59b1461036957610137565b806352983a8f1161010a57806352983a8f146101f057806352e270e2146101fa5780635411c637146102685780635645b0801461028657610137565b80630370607c1461013c578063245357a31461015a5780632e1a7d4d146101785780633ad10ef6146101a6575b600080fd5b61014461045f565b6040518082815260200191505060405180910390f35b61016261062d565b6040518082815260200191505060405180910390f35b6101a46004803603602081101561018e57600080fd5b8101908080359060200190929190505050610633565b005b6101ae610c53565b604051808273ffffffffffffffffffffffffffffffffffffffff1673ffffffffffffffffffffffffffffffffffffffff16815260200191505060405180910390f35b6101f8610c79565b005b6102266004803603602081101561021057600080fd5b81019080803590602001909291905050506111bb565b604051808273ffffffffffffffffffffffffffffffffffffffff1673ffffffffffffffffffffffffffffffffffffffff16815260200191505060405180910390f35b6102706111f9565b6040518082815260200191505060405180910390f35b61028e6111ff565b6040518082815260200191505060405180910390f35b6102ac61120c565b005b6102f0600480360360208110156102c457600080fd5b81019080803573ffffffffffffffffffffffffffffffffffffffff169060200190929190505050611347565b604051808581526020018481526020018381526020018215151515815260200194505050505060405180910390f35b610327611384565b604051808273ffffffffffffffffffffffffffffffffffffffff1673ffffffffffffffffffffffffffffffffffffffff16815260200191505060405180910390f35b6103716113ad565b604051808215151515815260200191505060405180910390f35b61039361140b565b6040518082815260200191505060405180910390f35b6103d5600480360360208110156103bf57600080fd5b8101908080359060200190929190505050611411565b005b610419600480360360208110156103ed57600080fd5b81019080803573ffffffffffffffffffffffffffffffffffffffff169060200190929190505050611efb565b005b61045d6004803603602081101561043157600080fd5b81019080803573ffffffffffffffffffffffffffffffffffffffff169060200190929190505050612060565b005b6000806006541415610474576000905061062a565b60004390506006548111156105e3576000600354905060006104946120e8565b90506104bd6104ae600454836122a990919063ffffffff16565b836122f390919063ffffffff16565b91506000610581600160003373ffffffffffffffffffffffffffffffffffffffff1673ffffffffffffffffffffffffffffffffffffffff1681526020019081526020016000206002015461057364e8d4a5100061056587600160003373ffffffffffffffffffffffffffffffffffffffff1673ffffffffffffffffffffffffffffffffffffffff1681526020019081526020016000206000015461237d90919063ffffffff16565b6122a990919063ffffffff16565b61240790919063ffffffff16565b90506105d881600160003373ffffffffffffffffffffffffffffffffffffffff1673ffffffffffffffffffffffffffffffffffffffff168152602001908152602001600020600101546122f390919063ffffffff16565b94505050505061062a565b600160003373ffffffffffffffffffffffffffffffffffffffff1673ffffffffffffffffffffffffffffffffffffffff168152602001908152602001600020600101549150505b90565b60035481565b600160003373ffffffffffffffffffffffffffffffffffffffff1673ffffffffffffffffffffffffffffffffffffffff16815260200190815260200160002060030160009054906101000a900460ff1615156106f7576040517f08c379a000000000000000000000000000000000000000000000000000000000815260040180806020018281038252601a8152602001807f4163636f756e74206973206e6f7420612064656c656761746f7200000000000081525060200191505060405180910390fd5b600081141561070557610c50565b6000600160003373ffffffffffffffffffffffffffffffffffffffff1673ffffffffffffffffffffffffffffffffffffffff16815260200190815260200160002060000154141561075557610c50565b61075d612451565b6000610821600160003373ffffffffffffffffffffffffffffffffffffffff1673ffffffffffffffffffffffffffffffffffffffff1681526020019081526020016000206002015461081364e8d4a51000610805600354600160003373ffffffffffffffffffffffffffffffffffffffff1673ffffffffffffffffffffffffffffffffffffffff1681526020019081526020016000206000015461237d90919063ffffffff16565b6122a990919063ffffffff16565b61240790919063ffffffff16565b905060008111156108c85761088181600160003373ffffffffffffffffffffffffffffffffffffffff1673ffffffffffffffffffffffffffffffffffffffff168152602001908152602001600020600101546122f390919063ffffffff16565b600160003373ffffffffffffffffffffffffffffffffffffffff1673ffffffffffffffffffffffffffffffffffffffff168152602001908152602001600020600101819055505b6000600160003373ffffffffffffffffffffffffffffffffffffffff1673ffffffffffffffffffffffffffffffffffffffff168152602001908152602001600020600001548310151561095f57600160003373ffffffffffffffffffffffffffffffffffffffff1673ffffffffffffffffffffffffffffffffffffffff168152602001908152602001600020600001549050610963565b8290505b600860009054906101000a900473ffffffffffffffffffffffffffffffffffffffff1673ffffffffffffffffffffffffffffffffffffffff1663a9059cbb33836040518363ffffffff167c0100000000000000000000000000000000000000000000000000000000028152600401808373ffffffffffffffffffffffffffffffffffffffff1673ffffffffffffffffffffffffffffffffffffffff16815260200182815260200192505050602060405180830381600087803b158015610a2857600080fd5b505af1158015610a3c573d6000803e3d6000fd5b505050506040513d6020811015610a5257600080fd5b810190808051906020019092919050505050610ab981600160003373ffffffffffffffffffffffffffffffffffffffff1673ffffffffffffffffffffffffffffffffffffffff1681526020019081526020016000206000015461240790919063ffffffff16565b600160003373ffffffffffffffffffffffffffffffffffffffff1673ffffffffffffffffffffffffffffffffffffffff16815260200190815260200160002060000181905550610b148160045461240790919063ffffffff16565b600481905550610b8864e8d4a51000610b7a600354600160003373ffffffffffffffffffffffffffffffffffffffff1673ffffffffffffffffffffffffffffffffffffffff1681526020019081526020016000206000015461237d90919063ffffffff16565b6122a990919063ffffffff16565b600160003373ffffffffffffffffffffffffffffffffffffffff1673ffffffffffffffffffffffffffffffffffffffff1681526020019081526020016000206002018190555060006004541415610be257610be16126bc565b5b7f41ebc803482ede4e53affbf933a58c937037ae6029f4b061ac9c30333dd31f393382604051808373ffffffffffffffffffffffffffffffffffffffff1673ffffffffffffffffffffffffffffffffffffffff1681526020018281526020019250505060405180910390a150505b50565b600560009054906101000a900473ffffffffffffffffffffffffffffffffffffffff1681565b600160003373ffffffffffffffffffffffffffffffffffffffff1673ffffffffffffffffffffffffffffffffffffffff16815260200190815260200160002060030160009054906101000a900460ff161515610d3d576040517f08c379a000000000000000000000000000000000000000000000000000000000815260040180806020018281038252601a8152602001807f4163636f756e74206973206e6f7420612064656c656761746f7200000000000081525060200191505060405180910390fd5b60006006541415610d4d576111b9565b600654431115610d6057610d5f612451565b5b6000610e24600160003373ffffffffffffffffffffffffffffffffffffffff1673ffffffffffffffffffffffffffffffffffffffff16815260200190815260200160002060020154610e1664e8d4a51000610e08600354600160003373ffffffffffffffffffffffffffffffffffffffff1673ffffffffffffffffffffffffffffffffffffffff1681526020019081526020016000206000015461237d90919063ffffffff16565b6122a990919063ffffffff16565b61240790919063ffffffff16565b90506000811115610ecb57610e8481600160003373ffffffffffffffffffffffffffffffffffffffff1673ffffffffffffffffffffffffffffffffffffffff168152602001908152602001600020600101546122f390919063ffffffff16565b600160003373ffffffffffffffffffffffffffffffffffffffff1673ffffffffffffffffffffffffffffffffffffffff168152602001908152602001600020600101819055505b600760009054906101000a900473ffffffffffffffffffffffffffffffffffffffff1673ffffffffffffffffffffffffffffffffffffffff1663a9059cbb33600160003373ffffffffffffffffffffffffffffffffffffffff1673ffffffffffffffffffffffffffffffffffffffff168152602001908152602001600020600101546040518363ffffffff167c0100000000000000000000000000000000000000000000000000000000028152600401808373ffffffffffffffffffffffffffffffffffffffff1673ffffffffffffffffffffffffffffffffffffffff16815260200182815260200192505050602060405180830381600087803b158015610fd257600080fd5b505af1158015610fe6573d6000803e3d6000fd5b505050506040513d6020811015610ffc57600080fd5b81019080805190602001909291905050505061107c64e8d4a5100061106e600354600160003373ffffffffffffffffffffffffffffffffffffffff1673ffffffffffffffffffffffffffffffffffffffff1681526020019081526020016000206000015461237d90919063ffffffff16565b6122a990919063ffffffff16565b600160003373ffffffffffffffffffffffffffffffffffffffff1673ffffffffffffffffffffffffffffffffffffffff168152602001908152602001600020600201819055507f53b9d5507ac4acc6089be6ad220e498a2ee4c787c3e697596406bc7f3dc19e7f33600160003373ffffffffffffffffffffffffffffffffffffffff1673ffffffffffffffffffffffffffffffffffffffff16815260200190815260200160002060010154604051808373ffffffffffffffffffffffffffffffffffffffff1673ffffffffffffffffffffffffffffffffffffffff1681526020018281526020019250505060405180910390a16000600160003373ffffffffffffffffffffffffffffffffffffffff1673ffffffffffffffffffffffffffffffffffffffff16815260200190815260200160002060010181905550505b565b6002818154811015156111ca57fe5b906000526020600020016000915054906101000a900473ffffffffffffffffffffffffffffffffffffffff1681565b60045481565b6000600280549050905090565b6112146113ad565b1515611288576040517f08c379a00000000000000000000000000000000000000000000000000000000081526004018080602001828103825260208152602001807f4f776e61626c653a2063616c6c6572206973206e6f7420746865206f776e657281525060200191505060405180910390fd5b600073ffffffffffffffffffffffffffffffffffffffff166000809054906101000a900473ffffffffffffffffffffffffffffffffffffffff1673ffffffffffffffffffffffffffffffffffffffff167f8be0079c531659141344cd1fd0a4f28419497f9722a3daafe3b4186f6b6457e060405160405180910390a360008060006101000a81548173ffffffffffffffffffffffffffffffffffffffff021916908373ffffffffffffffffffffffffffffffffffffffff160217905550565b60016020528060005260406000206000915090508060000154908060010154908060020154908060030160009054906101000a900460ff16905084565b60008060009054906101000a900473ffffffffffffffffffffffffffffffffffffffff16905090565b60008060009054906101000a900473ffffffffffffffffffffffffffffffffffffffff1673ffffffffffffffffffffffffffffffffffffffff166113ef6126c6565b73ffffffffffffffffffffffffffffffffffffffff1614905090565b60065481565b600081141561141f57611ef8565b600060045414156116e85743600681905550600960009054906101000a900473ffffffffffffffffffffffffffffffffffffffff1673ffffffffffffffffffffffffffffffffffffffff166352983a8f6040518163ffffffff167c0100000000000000000000000000000000000000000000000000000000028152600401600060405180830381600087803b1580156114b757600080fd5b505af11580156114cb573d6000803e3d6000fd5b50505050600760009054906101000a900473ffffffffffffffffffffffffffffffffffffffff1673ffffffffffffffffffffffffffffffffffffffff1663a9059cbb600560009054906101000a900473ffffffffffffffffffffffffffffffffffffffff16600760009054906101000a900473ffffffffffffffffffffffffffffffffffffffff1673ffffffffffffffffffffffffffffffffffffffff166370a08231306040518263ffffffff167c0100000000000000000000000000000000000000000000000000000000028152600401808273ffffffffffffffffffffffffffffffffffffffff1673ffffffffffffffffffffffffffffffffffffffff16815260200191505060206040518083038186803b1580156115eb57600080fd5b505afa1580156115ff573d6000803e3d6000fd5b505050506040513d602081101561161557600080fd5b81019080805190602001909291905050506040518363ffffffff167c0100000000000000000000000000000000000000000000000000000000028152600401808373ffffffffffffffffffffffffffffffffffffffff1673ffffffffffffffffffffffffffffffffffffffff16815260200182815260200192505050602060405180830381600087803b1580156116ab57600080fd5b505af11580156116bf573d6000803e3d6000fd5b505050506040513d60208110156116d557600080fd5b8101908080519060200190929190505050505b6000600860009054906101000a900473ffffffffffffffffffffffffffffffffffffffff1673ffffffffffffffffffffffffffffffffffffffff166370a08231336040518263ffffffff167c0100000000000000000000000000000000000000000000000000000000028152600401808273ffffffffffffffffffffffffffffffffffffffff1673ffffffffffffffffffffffffffffffffffffffff16815260200191505060206040518083038186803b1580156117a557600080fd5b505afa1580156117b9573d6000803e3d6000fd5b505050506040513d60208110156117cf57600080fd5b8101908080519060200190929190505050905080821115151561183d576040517f08c379a0000000000000000000000000000000000000000000000000000000008152600401808060200182810382526026815260200180612c586026913960400191505060405180910390fd5b600860009054906101000a900473ffffffffffffffffffffffffffffffffffffffff1673ffffffffffffffffffffffffffffffffffffffff166323b872dd3330856040518463ffffffff167c0100000000000000000000000000000000000000000000000000000000028152600401808473ffffffffffffffffffffffffffffffffffffffff1673ffffffffffffffffffffffffffffffffffffffff1681526020018373ffffffffffffffffffffffffffffffffffffffff1673ffffffffffffffffffffffffffffffffffffffff1681526020018281526020019350505050602060405180830381600087803b15801561193657600080fd5b505af115801561194a573d6000803e3d6000fd5b505050506040513d602081101561196057600080fd5b810190808051906020019092919050505050600160003373ffffffffffffffffffffffffffffffffffffffff1673ffffffffffffffffffffffffffffffffffffffff16815260200190815260200160002060030160009054906101000a900460ff161515611b615760018060003373ffffffffffffffffffffffffffffffffffffffff1673ffffffffffffffffffffffffffffffffffffffff16815260200190815260200160002060030160006101000a81548160ff0219169083151502179055506000600160003373ffffffffffffffffffffffffffffffffffffffff1673ffffffffffffffffffffffffffffffffffffffff168152602001908152602001600020600101819055506000600160003373ffffffffffffffffffffffffffffffffffffffff1673ffffffffffffffffffffffffffffffffffffffff168152602001908152602001600020600001819055506000600160003373ffffffffffffffffffffffffffffffffffffffff1673ffffffffffffffffffffffffffffffffffffffff1681526020019081526020016000206002018190555060023390806001815401808255809150509060018203906000526020600020016000909192909190916101000a81548173ffffffffffffffffffffffffffffffffffffffff021916908373ffffffffffffffffffffffffffffffffffffffff160217905550505b611b69612451565b6000600160003373ffffffffffffffffffffffffffffffffffffffff1673ffffffffffffffffffffffffffffffffffffffff168152602001908152602001600020600001541115611d21576000611c78600160003373ffffffffffffffffffffffffffffffffffffffff1673ffffffffffffffffffffffffffffffffffffffff16815260200190815260200160002060020154611c6a64e8d4a51000611c5c600354600160003373ffffffffffffffffffffffffffffffffffffffff1673ffffffffffffffffffffffffffffffffffffffff1681526020019081526020016000206000015461237d90919063ffffffff16565b6122a990919063ffffffff16565b61240790919063ffffffff16565b90506000811115611d1f57611cd881600160003373ffffffffffffffffffffffffffffffffffffffff1673ffffffffffffffffffffffffffffffffffffffff168152602001908152602001600020600101546122f390919063ffffffff16565b600160003373ffffffffffffffffffffffffffffffffffffffff1673ffffffffffffffffffffffffffffffffffffffff168152602001908152602001600020600101819055505b505b611d7682600160003373ffffffffffffffffffffffffffffffffffffffff1673ffffffffffffffffffffffffffffffffffffffff168152602001908152602001600020600001546122f390919063ffffffff16565b600160003373ffffffffffffffffffffffffffffffffffffffff1673ffffffffffffffffffffffffffffffffffffffff16815260200190815260200160002060000181905550611dd1826004546122f390919063ffffffff16565b600481905550611e4564e8d4a51000611e37600354600160003373ffffffffffffffffffffffffffffffffffffffff1673ffffffffffffffffffffffffffffffffffffffff1681526020019081526020016000206000015461237d90919063ffffffff16565b6122a990919063ffffffff16565b600160003373ffffffffffffffffffffffffffffffffffffffff1673ffffffffffffffffffffffffffffffffffffffff168152602001908152602001600020600201819055507f5aedeeae90d2689c6e011778ba0380949d9286ec47fd37c8444e569536ae6c5a3383604051808373ffffffffffffffffffffffffffffffffffffffff1673ffffffffffffffffffffffffffffffffffffffff1681526020018281526020019250505060405180910390a1505b50565b611f036113ad565b1515611f77576040517f08c379a00000000000000000000000000000000000000000000000000000000081526004018080602001828103825260208152602001807f4f776e61626c653a2063616c6c6572206973206e6f7420746865206f776e657281525060200191505060405180910390fd5b600073ffffffffffffffffffffffffffffffffffffffff168173ffffffffffffffffffffffffffffffffffffffff161415151561201c576040517f08c379a00000000000000000000000000000000000000000000000000000000081526004018080602001828103825260138152602001807f496e76616c69642064657620616464726573730000000000000000000000000081525060200191505060405180910390fd5b80600560006101000a81548173ffffffffffffffffffffffffffffffffffffffff021916908373ffffffffffffffffffffffffffffffffffffffff16021790555050565b6120686113ad565b15156120dc576040517f08c379a00000000000000000000000000000000000000000000000000000000081526004018080602001828103825260208152602001807f4f776e61626c653a2063616c6c6572206973206e6f7420746865206f776e657281525060200191505060405180910390fd5b6120e5816126ce565b50565b60006122a46121d7600860009054906101000a900473ffffffffffffffffffffffffffffffffffffffff1673ffffffffffffffffffffffffffffffffffffffff166318160ddd6040518163ffffffff167c010000000000000000000000000000000000000000000000000000000002815260040160206040518083038186803b15801561217457600080fd5b505afa158015612188573d6000803e3d6000fd5b505050506040513d602081101561219e57600080fd5b81019080805190602001909291905050506121c964e8d4a5100060045461237d90919063ffffffff16565b6122a990919063ffffffff16565b600960009054906101000a900473ffffffffffffffffffffffffffffffffffffffff1673ffffffffffffffffffffffffffffffffffffffff16630370607c6040518163ffffffff167c010000000000000000000000000000000000000000000000000000000002815260040160206040518083038186803b15801561225b57600080fd5b505afa15801561226f573d6000803e3d6000fd5b505050506040513d602081101561228557600080fd5b810190808051906020019092919050505061237d90919063ffffffff16565b905090565b60006122eb83836040805190810160405280601a81526020017f536166654d6174683a206469766973696f6e206279207a65726f000000000000815250612814565b905092915050565b6000808284019050838110151515612373576040517f08c379a000000000000000000000000000000000000000000000000000000000815260040180806020018281038252601b8152602001807f536166654d6174683a206164646974696f6e206f766572666c6f77000000000081525060200191505060405180910390fd5b8091505092915050565b6000808314156123905760009050612401565b600082840290508284828115156123a357fe5b041415156123fc576040517f08c379a0000000000000000000000000000000000000000000000000000000008152600401808060200182810382526021815260200180612c7e6021913960400191505060405180910390fd5b809150505b92915050565b600061244983836040805190810160405280601e81526020017f536166654d6174683a207375627472616374696f6e206f766572666c6f7700008152506128de565b905092915050565b60006006541415612461576126ba565b60004390506006548111151561247757506126ba565b60006124816129a0565b9050600061248d6120e8565b9050600960009054906101000a900473ffffffffffffffffffffffffffffffffffffffff1673ffffffffffffffffffffffffffffffffffffffff166352983a8f6040518163ffffffff167c0100000000000000000000000000000000000000000000000000000000028152600401600060405180830381600087803b15801561251557600080fd5b505af1158015612529573d6000803e3d6000fd5b50505050600760009054906101000a900473ffffffffffffffffffffffffffffffffffffffff1673ffffffffffffffffffffffffffffffffffffffff1663a9059cbb600560009054906101000a900473ffffffffffffffffffffffffffffffffffffffff166125a664e8d4a51000866122a990919063ffffffff16565b6040518363ffffffff167c0100000000000000000000000000000000000000000000000000000000028152600401808373ffffffffffffffffffffffffffffffffffffffff1673ffffffffffffffffffffffffffffffffffffffff16815260200182815260200192505050602060405180830381600087803b15801561262b57600080fd5b505af115801561263f573d6000803e3d6000fd5b505050506040513d602081101561265557600080fd5b8101908080519060200190929190505050506000600454141561267f5761267a6126bc565b6126af565b6126a8612697600454836122a990919063ffffffff16565b6003546122f390919063ffffffff16565b6003819055505b436006819055505050505b565b6000600381905550565b600033905090565b600073ffffffffffffffffffffffffffffffffffffffff168173ffffffffffffffffffffffffffffffffffffffff1614151515612756576040517f08c379a0000000000000000000000000000000000000000000000000000000008152600401808060200182810382526026815260200180612c326026913960400191505060405180910390fd5b8073ffffffffffffffffffffffffffffffffffffffff166000809054906101000a900473ffffffffffffffffffffffffffffffffffffffff1673ffffffffffffffffffffffffffffffffffffffff167f8be0079c531659141344cd1fd0a4f28419497f9722a3daafe3b4186f6b6457e060405160405180910390a3806000806101000a81548173ffffffffffffffffffffffffffffffffffffffff021916908373ffffffffffffffffffffffffffffffffffffffff16021790555050565b6000808311829015156128c2576040517f08c379a00000000000000000000000000000000000000000000000000000000081526004018080602001828103825283818151815260200191508051906020019080838360005b8381101561288757808201518184015260208101905061286c565b50505050905090810190601f1680156128b45780820380516001836020036101000a031916815260200191505b509250505060405180910390fd5b50600083858115156128d057fe5b049050809150509392505050565b6000838311158290151561298d576040517f08c379a00000000000000000000000000000000000000000000000000000000081526004018080602001828103825283818151815260200191508051906020019080838360005b83811015612952578082015181840152602081019050612937565b50505050905090810190601f16801561297f5780820380516001836020036101000a031916815260200191505b509250505060405180910390fd5b5060008385039050809150509392505050565b6000612c2c612b5f600860009054906101000a900473ffffffffffffffffffffffffffffffffffffffff1673ffffffffffffffffffffffffffffffffffffffff166318160ddd6040518163ffffffff167c010000000000000000000000000000000000000000000000000000000002815260040160206040518083038186803b158015612a2c57600080fd5b505afa158015612a40573d6000803e3d6000fd5b505050506040513d6020811015612a5657600080fd5b8101908080519060200190929190505050612b5164e8d4a51000612b43600454600860009054906101000a900473ffffffffffffffffffffffffffffffffffffffff1673ffffffffffffffffffffffffffffffffffffffff166318160ddd6040518163ffffffff167c010000000000000000000000000000000000000000000000000000000002815260040160206040518083038186803b158015612afa57600080fd5b505afa158015612b0e573d6000803e3d6000fd5b505050506040513d6020811015612b2457600080fd5b810190808051906020019092919050505061240790919063ffffffff16565b61237d90919063ffffffff16565b6122a990919063ffffffff16565b600960009054906101000a900473ffffffffffffffffffffffffffffffffffffffff1673ffffffffffffffffffffffffffffffffffffffff16630370607c6040518163ffffffff167c010000000000000000000000000000000000000000000000000000000002815260040160206040518083038186803b158015612be357600080fd5b505afa158015612bf7573d6000803e3d6000fd5b505050506040513d6020811015612c0d57600080fd5b810190808051906020019092919050505061237d90919063ffffffff16565b90509056fe4f776e61626c653a206e6577206f776e657220697320746865207a65726f206164647265737345524332303a207472616e7366657220616d6f756e7420657863656564732062616c616e6365536166654d6174683a206d756c7469706c69636174696f6e206f766572666c6f77a165627a7a7230582022c39f8788c37d8a08275ee861738b803e24af906eafe8af97ee1ab2c971e4b60029",
  "source": "pragma solidity ^0.5.0;\n\nimport \"./SafeMath.sol\";\nimport \"./Ownable.sol\";\n\ninterface ERC20Token {\n    function transfer(address _to, uint256 _value) external returns (bool);\n    function transferFrom(address sender, address recipient, uint256 amount) external returns (bool);\n    function balanceOf(address account) external view returns (uint256);\n    function totalSupply() external view returns (uint256);\n}\n\ninterface PeanutsPool {\n    function withdrawPeanuts() external;\n    function getPendingPeanuts() external view returns (uint256);\n}\n\ncontract TspPooling is Ownable {\n    using SafeMath for uint256;\n\n    struct Delegator {\n        uint256 tspAmount;          // deposted tsp\n        uint256 availablePeanuts;   // minted peanuts for user\n        uint256 debtRewards;        // rewards debt \n        bool hasDeposited;          // set true when first time deposit\n    }\n\n    mapping(address => Delegator) public delegators;\n    address[] public delegatorsList;\n    uint256 public shareAcc;\n    uint256 public totalDepositedTSP;\n    address public devAddress;\n    uint256 public lastRewardBlock;\n\n    ERC20Token Pnuts;\n    ERC20Token Tsp;\n    PeanutsPool PnutPool;\n\n    event DepositTSP(address delegator, uint256 amount);\n    event WithdrawTSP(address delegator, uint256 amount);\n    event WithdrawPeanuts(address delegator, uint256 amount);\n\n    modifier onlyDelegator() {\n        require(delegators[msg.sender].hasDeposited, \"Account is not a delegator\");\n        _;\n    }\n\n    constructor (address _punts, address _pnutPool, address _tsp) public {\n        Pnuts = ERC20Token(_punts);\n        Tsp = ERC20Token(_tsp);\n        PnutPool = PeanutsPool(_pnutPool);\n\n        shareAcc = 0;\n        totalDepositedTSP = 0;\n        lastRewardBlock = 0;\n    }\n\n    // should do this before game start\n    function setDevAddress(address dev) \n        public\n        onlyOwner\n    {\n        require(dev != address(0), \"Invalid dev address\");\n        devAddress = dev;\n    }\n\n    function deposit(uint256 _amount)\n        public\n    {\n        if (_amount == 0) return;\n\n        // totalDepositedTSP == 0 means there is not delegator exist. When first delegator come,\n        // we set lastRewardBlock as current block number, then our game starts!\n        // and reward before this moment shoud be sent to dev\n        if (totalDepositedTSP == 0) {\n            lastRewardBlock = block.number;\n            PnutPool.withdrawPeanuts();\n            Pnuts.transfer(devAddress, Pnuts.balanceOf(address(this)));\n        }\n\n        uint256 tspBalance = Tsp.balanceOf(msg.sender);\n        require(_amount <= tspBalance, \"ERC20: transfer amount exceeds balance\");\n\n        Tsp.transferFrom(msg.sender, address(this), _amount);\n\n        // Add to delegator list if account hasn't deposited before\n        if(!delegators[msg.sender].hasDeposited) {\n            delegators[msg.sender].hasDeposited = true;\n            delegators[msg.sender].availablePeanuts = 0;\n            delegators[msg.sender].tspAmount = 0;\n            delegators[msg.sender].debtRewards = 0;\n            delegatorsList.push(msg.sender);\n        }\n\n        _updateRewardInfo();\n\n        if (delegators[msg.sender].tspAmount > 0) {\n            uint256 pending = delegators[msg.sender].tspAmount.mul(shareAcc).div(1e12).sub(delegators[msg.sender].debtRewards);\n            if(pending > 0) {\n                delegators[msg.sender].availablePeanuts = delegators[msg.sender].availablePeanuts.add(pending);\n            }\n        }\n\n        delegators[msg.sender].tspAmount = delegators[msg.sender].tspAmount.add(_amount);\n        totalDepositedTSP = totalDepositedTSP.add(_amount);\n\n        delegators[msg.sender].debtRewards = delegators[msg.sender].tspAmount.mul(shareAcc).div(1e12);\n\n        emit DepositTSP(msg.sender, _amount);\n    }\n\n    function withdraw(uint256 _amount) \n        public\n        onlyDelegator\n    {\n        if (_amount == 0) return;\n\n        if (delegators[msg.sender].tspAmount == 0) return;\n\n        _updateRewardInfo();\n\n        uint256 pending = delegators[msg.sender].tspAmount.mul(shareAcc).div(1e12).sub(delegators[msg.sender].debtRewards);\n        if(pending > 0) {\n            delegators[msg.sender].availablePeanuts = delegators[msg.sender].availablePeanuts.add(pending);\n        }\n        \n        uint256 withdrawAmount;\n        if (_amount >= delegators[msg.sender].tspAmount)\n            withdrawAmount = delegators[msg.sender].tspAmount;\n        else\n            withdrawAmount = _amount;\n\n        // transfer TSP from this to delegator\n        Tsp.transfer(msg.sender, withdrawAmount);\n        delegators[msg.sender].tspAmount = delegators[msg.sender].tspAmount.sub(withdrawAmount);\n        totalDepositedTSP = totalDepositedTSP.sub(withdrawAmount);\n\n        delegators[msg.sender].debtRewards = delegators[msg.sender].tspAmount.mul(shareAcc).div(1e12);\n        // now game stopped, reset contract status\n        if (totalDepositedTSP == 0)\n            _resetStatus();\n\n\n        emit WithdrawTSP(msg.sender, withdrawAmount);\n    }\n    \n    function withdrawPeanuts() \n        public\n        onlyDelegator\n    {\n        // game has not started\n        if (lastRewardBlock == 0) return;\n\n        // There are new blocks created after last updating, so append new rewards before withdraw\n        if(block.number > lastRewardBlock) {\n            _updateRewardInfo();\n        }\n\n        uint256 pending = delegators[msg.sender].tspAmount.mul(shareAcc).div(1e12).sub(delegators[msg.sender].debtRewards);\n        if(pending > 0) {\n            delegators[msg.sender].availablePeanuts = delegators[msg.sender].availablePeanuts.add(pending);\n        }\n\n        Pnuts.transfer(msg.sender, delegators[msg.sender].availablePeanuts);\n\n        delegators[msg.sender].debtRewards = delegators[msg.sender].tspAmount.mul(shareAcc).div(1e12);\n\n        emit WithdrawPeanuts(msg.sender, delegators[msg.sender].availablePeanuts);\n\n        delegators[msg.sender].availablePeanuts = 0;\n    }\n    \n    // pending peanuts >= delegator.availablePeanuts\n    function getPendingPeanuts() public view returns (uint256) {\n        // game has not started\n        if (lastRewardBlock == 0) return 0;\n\n        uint256 currentBlock = block.number;\n\n        // our lastRewardBlock isn't up to date, as the result, the availablePeanuts isn't\n        // the right amount that delegator can award\n        if (currentBlock > lastRewardBlock) {\n            uint256 _shareAcc = shareAcc;\n            uint256 unmintedPeanuts = _calculateRewardToDelegators();\n            _shareAcc = _shareAcc.add(unmintedPeanuts.div(totalDepositedTSP));\n            uint256 pending = delegators[msg.sender].tspAmount.mul(_shareAcc).div(1e12).sub(delegators[msg.sender].debtRewards);\n            return delegators[msg.sender].availablePeanuts.add(pending);\n        } else {\n            return delegators[msg.sender].availablePeanuts;\n        }\n    }\n\n    function getDelegatorListLength() public view returns(uint256) {\n        return delegatorsList.length;\n    }\n\n    function _resetStatus() internal {\n        shareAcc = 0;\n    }\n\n    function _updateRewardInfo() internal {\n        // game has not started\n        if (lastRewardBlock == 0) return;\n\n        uint256 currentBlock = block.number;\n\n        // make sure one block can only be calculated one time.\n        // think about this situation that more than one deposit/withdraw/withdrowPeanuts transactions \n        // were exist in the same block, delegator.amout should be updated after _updateRewardInfo being \n        // invoked and it's award peanuts should be calculated next time\n        if (currentBlock <= lastRewardBlock) return;\n\n        uint256 peanutsMintedToDev = _calculateRewardToDev();\n        uint256 peanutsMintedToDelegators = _calculateRewardToDelegators();\n\n        // rewards belong to delegators temporary saved in contract, need delegator withdraw it\n        PnutPool.withdrawPeanuts();\n\n        // reward extra peanuts to dev\n        Pnuts.transfer(devAddress, peanutsMintedToDev.div(1e12));\n\n        // whenever game being stopped, reset shareAcc\n        if (totalDepositedTSP == 0) {\n            _resetStatus();\n        } else {\n            shareAcc = shareAcc.add(peanutsMintedToDelegators.div(totalDepositedTSP));\n        }\n\n        lastRewardBlock = block.number;\n    }\n\n    function _calculateRewardToDelegators() internal view returns (uint256) {\n        return PnutPool.getPendingPeanuts().mul(totalDepositedTSP.mul(1e12).div(Tsp.totalSupply()));\n    }\n\n    function _calculateRewardToDev() internal view returns (uint256) {\n        return PnutPool.getPendingPeanuts().mul(Tsp.totalSupply().sub(totalDepositedTSP).mul(1e12).div(Tsp.totalSupply()));\n    }\n}",
  "sourcePath": "/Users/wangxi/work/deploy-contract/contracts/TspPooling.sol",
  "compiler": {
    "name": "solc",
    "version": "0.5.4+commit.d15a3125.mod.Emscripten.clang"
  },
  "schemaVersion": "2.0.1",
  "updatedAt": "2020-12-19T02:31:26.542Z"
}